:020000040800F2
:100000000000022055E6040801990008710C02085E
:1000100005E7040805E7040805E7040800000000F8
:100020000000000000000000000000006DA00008BB
:100030006FA000080000000071A00008A5080108DA
:1000400005E7040805E7040805E7040805E70408D0
:1000500005E7040805E704081FC4000823C40008D6
:1000600005E7040827C400082BC40008299A0008E3
:100070003D9A0008519A0008659A0008799A00088C
:100080008D9A0008A19A000805E704080000000006
:100090000000000000000000000000002FC4000865
:1000A0006199000889990008B19900084D990008E4
:1000B000D9990008ED990008019A000805E704089D
:1000C00005E7040805E7040805E7040805E7040850
:1000D00005E70408039900080D99000800000000D6
:1000E00033C4000805E7040873A0000800000000FE
:1000F000000000000000000000000000B59A0008A9
:100100000000000005E70408159A000805E7040848
:1001100000000000000000000000000000000000DF
:10012000C99A0008DD9A0008F19A0008059B0008AA
:10013000199B000800000000000000000000000003
:10014000000000000000000000000000C5A0000842
:100150002D9B0008419B0008559B000805E70408FB
:1001600005E7040805E7040800000000000000009F
:10017000000000000000000000000000000000007F
:100180000000000005E70408000000000000000077
:0801900005E7040805E7040877
:08019800E8E104000100000091
:1001A00068E900200208000001022C0088E9002014
:1001B0000112000000007600A8E90020011A0000EA
:1001C00000000D00C8E900200132000000003C00E2
:0C01D000E8E900200135000000002000DC
:10800000D0E907239A422FBFD01AC0688018C01A3F
:108010007047D0E9092300699A4238BF1218D31A71
:108020000138C01A7047D0E90902131A5842584162
:108030007047036A41690246C85CD16801338B42CC
:1080400028BF002313627047436A8269D154436A90
:1080500002690133934228BF0023426B4362D36815
:1080600043F08003D3607047436B188810F0100012
:108070001EBF1A889B88012070470028ACBF00F102
:108080006040074B4FEA0111ACBF00F5614000F0C2
:108090000F00C9B2B4BF195480F80013704700BF75
:1080A00014ED00E0436B99891A88890610B592B2E5
:1080B000044607D5900605D5E26A22B39888216B5D
:1080C00080B29047636B99891A88090692B20FD5DE
:1080D00010060DD5D4E909128A4222D0A169895C23
:1080E000998021690132B2FBF1F001FB1022A262FA
:1080F000998A1A88C90592B204D5D20744BF4FF6AF
:10810000F7721A8010BD9B88E2696169DBB28B54FB
:10811000E369E2680133B3FBF2F102FB1133E3617F
:10812000D0E7DA6822F08002DA60E1E7704770B5E4
:10813000002828D04C684CB9426815685679AB893C
:1081400002229BB2B24023EA0203AB818A683AB9A9
:1081500043681D68AB8923F001031B041B0CAB8132
:10816000816044B14468216864798D890223A34009
:108170002B439BB28B8132B143681A6893899BB2BF
:1081800043F00103938170BD43685A79032A0FD8E5
:10819000DFE802F00205080B1868343070471868F1
:1081A0003830704718683C30704718684030704766
:1081B0000020704710B5436808481A685B79C45CB2
:1081C000138C01209BB2A04023EA00031384138C7C
:1081D000A140194389B2118410BD00BF7020050869
:1081E000036941681F2B30B54FF0200285BFA3F112
:1081F00020054C680C68AA4098BF9A4022421FD0C4
:10820000826900201074D0688468206820F0010022
:1082100020605068046845790A48A28900EB45004F
:1082200092B280881F2B22EA0002A28188BF203BE5
:108230004FF020028BBF9A4002FA03F3CA608B60B2
:1082400030BD00BF70200508036823F00103036000
:108250000023036043608360C360036121234361A3
:108260002A4B984203D13D2243F8082C7047284BF3
:10827000984204D14FF4746243F8202C7047254B88
:10828000984204D14FF4741243F8382C7047224BB3
:10829000984204D14FF0746243F8502C70471F4B42
:1082A000984203D11E4A43F8642C70471D4B9842F4
:1082B00003D11D4A43F87C2C70471C4B984203D1D4
:1082C0001B4A43F8942C70471A4B984204D14FF044
:1082D0003D5243F8AC2C17E0174B9842C3D0174BD4
:1082E0009842C7D0164B9842CCD0164B9842D1D06A
:1082F000154B9842D6D0154B9842DAD0144B984281
:10830000DED0144B9842E2D0704700BF10600240AC
:1083100028600240406002405860024070600240A5
:108320003D00002088600240400F0020A060024015
:1083300000003D20B8600240106402402864024002
:108340004064024058640240706402408864024005
:10835000A0640240B86402400E4BDA68D20310D425
:10836000DA68D1060FD4DA68D2050ED4DA6812F0D2
:10837000E00F0CD1DB6813F0020F14BF08200920B6
:108380007047012070470620704702207047072081
:10839000704700BF003C024007B509238DF8073045
:1083A000FFF7DAFF8DF807009DF80730012BF7D0B3
:1083B0009DF8070003B05DF804FB2DE9F0410022B1
:1083C000012603250B6806FA02FC3CEA030331D1BF
:1083D0000368540005FA04FE23EA0E0303600B79D8
:1083E000D0F800806FEA0E0703FA04FE013B4EEA64
:1083F000080E012BC0F800E011D883681F40876089
:108400004B798768A3403B438360436823EA0C03AE
:1084100043608B79476893409BB23B434360C3689A
:1084200005FA04F723EA0703C360CB79C768A340C2
:108430003B43C3600132102AC4D1BDE8F081838A76
:10844000028B9BB243EA024331EA03030CBF0120D3
:108450000020704782B00023019300930123009015
:108460000193019B63B1009A21F07F431432009283
:10847000009A12681A4214BF0120002002B070470F
:10848000009A1832F3E77047704701207047044B99
:10849000D3E90003984288BF03F50063181A7047B8
:1084A000F8140020054AD2E900318B42FDD0D118E2
:1084B0000133C3F30A03087A13607047F8140020ED
:1084C000044BD3F8080820B1D3F80808431F5842DA
:1084D00058417047F8140020012380F84930704754
:1084E00010B5D0F8E83504461B699847032384F893
:1084F0001231002010BD08B590F8123180F8133108
:10850000042380F81231D0F8E835DB689847002062
:1085100008BD08B5D0F8E435DB6903B19847002001
:1085200008BD08B5D0F8E4351B6A9847002008BD9F
:1085300008B5D0F8E4355B6A9847002008BD10B54F
:10854000074C2068FF2808D00649D1F80C2801F50F
:10855000016100F035F8FF232360002010BD00BF4B
:1085600000000020F8140020432301480B807047CE
:1085700004000020122301480B80704747000020B0
:10858000042301480B807047590000207047704752
:108590007047704770477047044B00200522C3F8AE
:1085A0000828C3F81808C3F81C087047F8140020FE
:1085B000024B0020C3F80808704700BFF8140020E1
:1085C000212838B50C461BD022282BD0202815D1C5
:1085D000A1B1072A12D11A4DD5F81C3813B1096878
:1085E000002098472368C5F82038237985F8243877
:1085F000637985F82538A37985F82638002038BDB9
:108600000029FBD0072AF9D10D4BD3F820280A60A6
:1086100093F824280A7193F825284A7193F826388C
:108620008B71EBE70029E9D0022AE7D1044BD3F89C
:108630001838002BE2D0098800209847DEE700BFF9
:10864000F8140020074AD2F82838D2F82C28934290
:1086500003F1FF338CBF002001209B1A03EBC020E5
:10866000704700BFF8140020ECE730B50F4CD4E998
:1086700000239A4286BF03F50065AA1A9A1A0A4493
:10868000B2F5006F10D801440022814203D102B13B
:108690006360002030BDE21810F8015B15720133F1
:1086A000C3F30A030122F0E70220F3E7F8140020E5
:1086B00070477047D0ED007AD0ED036A30EE677AEC
:1086C000E6EE877AB0EE670AC0ED007A7047D0ED2B
:1086D000017AF5EE407AF1EE10FA09D1DFED0F7A6A
:1086E00060EEA70AB7EE007AC7EE207AC0ED017AF5
:1086F000D0ED017A80ED021A71EE277AC1EE276A79
:10870000D0ED007AC0ED036A30EE677AE6EE877A44
:10871000B0EE670AC0ED007A704700BFDB0FC940BA
:10872000D0ED017AD0ED036A30EE670AE6EE807A8A
:1087300090ED000AC0ED017AB0EE677AD0ED027AD2
:1087400037EE677AE6EE877AC0ED027A77EEC07A86
:10875000A6EEA70A80ED000A704790ED056AD0EDFD
:10876000017AD0ED006AD0ED025A90ED045A66EE1F
:10877000277AB0EE407AE6EE807AD0ED066A80ED98
:10878000057AE5EEA67AD0ED076AD0ED035A80EDC2
:10879000066AE5EEE67AD0ED085AC0ED086AE5EE25
:1087A000657AB0EE670AC0ED077A7047D0ED006ACF
:1087B000D0ED057AE6EE807AB0EE407AB0EE670A48
:1087C000D0ED037AD0ED016A67EEC07AE6EE877AE3
:1087D000D0ED066A76EEA77AD0ED026AC0ED057A92
:1087E000D0ED047A67EEC07AE6EE877AC0ED067ABD
:1087F000704703685A1C026019707047036901339F
:10880000012B036106D1002380ED010A80ED000AEF
:108810008360704790ED006A07EE903A70EE466A0A
:10882000F8EEE77A86EEA77A77EE067A90ED027A8E
:10883000C0ED017A30EE670AC0ED007AA6EE807ACC
:1088400080ED037A80ED027A704703685A1C02605B
:1088500019707047007970470079C0F34010704775
:1088600000794009704790F83020034602F0FF007D
:1088700012B1002283F8302070474FF48053838177
:10888000704710B5054A0423002152F8044B844276
:1088900008BF42F8041C013BF7D110BD281D002081
:1088A00031B10A4BD3ED067AFDEEE77AC1ED007ADD
:1088B00052B1064B9FED067AD3ED077A67EE877AC1
:1088C000FDEEE77AC2ED007A01207047381D0020E6
:1088D0000000C84201207047054B0022C3F8602801
:1088E000C3F86428C3F86828C3F86C2801207047CF
:1088F000F81400200A4BD3F87028D3F86C18521AD9
:10890000FA2A9FBFD3F86028C286D3F86428D3F828
:1089100068389DBF0287438701200020704700BF51
:10892000F814002010B1036882881A83704790F809
:108930005F3230B53BB990F85D1290F85E32012499
:10894000DAB2914200D830BDB0F8665204FA03F2B0
:108950002A43A0F866220133F2E7437913F00103BA
:108960001FBFD0E90732C0689B1A00F1FF3014BF67
:10897000184018467047437913F002031FBFD0E92F
:10898000093200699B1A00F1FF3014BF9843184662
:10899000704710B5437913F0010301460DD0FFF77E
:1089A000DCFF60B10A6A4B69C8689B5C0132B2FBAC
:1089B000F0F400FB1422DBB20A62184610BD034635
:1089C000FBE743799B070AD5436A8269D154436A1E
:1089D00002690133B3FBF2F102FB113343627047CA
:1089E00041717047D0E90920131A58425841704725
:1089F000024BD3F874385B68184700BFF8140020A6
:108A0000024BD3F8743808309B681847F8140020DC
:108A100001207047012070470120704701207047F6
:108A200041B10D4B03F67803D3ED007AF8EEE77A07
:108A3000C1ED007A7AB1084BDFED086AD3F87C38D3
:108A4000A3F5D543333B07EE903AF8EEE77A87EE8D
:108A5000A67A82ED007A7047F81400200000C84220
:108A600001207047012070472DE9F0414769064613
:108A70008846002F59D10368C3F30D0515B3D8F804
:108A800000803568FFF788FC092840F08780454C56
:108A9000236923F440732361236943F40073236142
:108AA000236943F001032361C5F80080FFF774FCDC
:108AB0002369092823F0010323616FD1336804334C
:108AC000336032E0384A934229D302F58042934220
:108AD00024D302F5804293422AD3344A934229D9BF
:108AE00002F58032934227D902F50032934225D90C
:108AF00002F50032934223D902F50032934221D984
:108B000002F5003293421FD902F5802293421DD90B
:108B1000B3F1016F1CD3052007F074FF0825FFF7A0
:108B20003BFC092816D04FF0FF373846BDE8F081EE
:108B30001025F4E71825F2E72025F0E72825EEE7D1
:108B40003025ECE73825EAE74025E8E74825E6E761
:108B50005825E4E7134C236923F440732361236908
:108B600043F400732361236923F0F803236123692D
:108B70001D4345F002052561236943F480332361D9
:108B8000FFF70AFC236923F0020323612369092804
:108B900023F0F80323613FF472AFC4E76FF00107DD
:108BA000C3E700BF003C024000400008FFFF000890
:108BB00003682DE9F04104464068134483421AD803
:108BC0000D468E1804F10C074FF00008B54202D193
:108BD0006069BDE8F08123695A1C2261234415F8BD
:108BE000011B1973042AF1D139462046FFF73CFFD7
:108BF000C4E90480EAE74FF0FF30EAE738B50368DC
:108C00001B681C68244B07EE902A93ED187AF8EE47
:108C1000677AB8EE477A013987EE270A8DB2DFED21
:108C20001F7A30EE270A46F02DF81D4A23880138B6
:108C3000944280B29BB212D002F5806294420ED070
:108C4000B4F1804F0BD0A2F58032944207D002F5E8
:108C50008062944203D002F58062944202D123F0F4
:108C600070039BB20F4A944206D002F58062944290
:108C70001CBF23F440739BB22380094BE5629C42E6
:108C8000208503D003F580639C4201D10023238615
:108C90000123A38238BD00BF000000200AD7233C77
:108CA0000000014000100040234B1A6E10B513461F
:108CB0000446B3FBF1F0B0F5803F03D3012BFAD9A2
:108CC0005B08F6E781B22046FFF798FF23681B6830
:108CD000587990B1032140B2FFF7CFF923681B68A0
:108CE0005A7993F90530002B07DB02F01F010122AE
:108CF0008A405B09114941F8232023681B68987951
:108D000090B1032140B2FFF7B8F923681B689A7944
:108D100093F90630002B07DB02F01F0101228A4085
:108D20005B09064941F8232063681A6813889BB2DF
:108D300043F00103138010BD0000002000E100E0BB
:108D40008160C06BB0E72DE9F347038A8689B6B22C
:108D500005460C461E404FF0004901F14C0701F159
:108D6000340816B902B0BDE8F087B6FA86F329FADE
:108D700003F2D24391B2298216401B3B002C40D013
:108D8000042BEED8DFE803F039342E280300E36823
:108D9000D5F82CA02BB19B681BB11FFA8AF1201DBE
:108DA0009847636A33B19B6823B11FFA8AF104F1D3
:108DB0001C009847E36B2BB19B681BB11FFA8AF12B
:108DC00040469847636D002BCBD09B68002BC8D0E2
:108DD0001FFA8AF1384603E0E368696B5B68201D7F
:108DE0009847BEE7636AA96B5B6804F11C00F7E76C
:108DF000E36BE96B5B684046F2E7636D296C5B6887
:108E0000E8E7042B06D8DFE803F00D0B09070300A1
:108E1000EB6A0193019BA4E76B6BFAE7AB6BF8E796
:108E2000EB6BF6E72B6CF4E72DE9F0410C4DDFF826
:108E300034802C686B6901271C400CB9BDE8F081B7
:108E4000B4FA84F3C3F11F0307FA03F608EB8303B4
:108E500024EA0604D3F88008036898476E61ECE7BB
:108E6000003C0140F814002090F84820531C0244B4
:108E7000DBB280F8483082F8341090F849200AB10B
:108E8000132B01D944F0E1B97047002280F8492042
:108E900044F0DBB970B50F4E96F8C038002BFBD10B
:108EA00004464518AC4201D1002070BDD6F82C38DC
:108EB00014F8011BF2180133C3F30A0382F8C11836
:108EC000C6F82C38FFF7BEFB0028EBD1012007F0D5
:108ED00084FDF7E7F814002038B50C461146FFF77B
:108EE000EFFA48B1054D002AD5F8703804DD204668
:108EF000FFF7D0FFD5F8703838BD00BFF814002058
:108F0000F0B590F8CF5590F8CE1590F8D12590F89F
:108F1000D03590F8CC7590F8CDC501EB05218DB218
:108F200003EB022390F8D31590F8D22585B002EB1D
:108F3000012207F01F06012192B29BB28E42044625
:108F40008DF808708DF809C0ADF80A50ADF80C30F6
:108F5000ADF80E20C0F8402180F8111100F00C810E
:108F6000022E00F01D81002E40F09B81BCF1090F04
:108F70005ED8DFE81CF0B600F4005D00C8005D00BC
:108F800057000A005D00A90076002E0A022EADF8F7
:108F900006200BD0032E25D0012E49D1D0F8EC3578
:108FA0001B68A0780DF10601984709E0D0F8E43578
:108FB00080789B6A0DF1060198474670C4F8F00569
:108FC000BDF80620002A47D0BDF80E30002B43D054
:108FD0009A4228BF1A46ADF806200146204644F0C2
:108FE00039F839E0E9B2052922D8DFE801F00307B2
:108FF0000B0F1317D0F8EC355B68D2E7D0F8EC35DF
:109000009B68CEE7D0F8EC35DB68CAE7D0F8EC35E2
:109010001B69C6E7D0F8EC355B69C2E7D0F8EC35E0
:109020009B69BEE71A4303D190F81231032B03D199
:10903000204643F063FF0FE0016905F07F0680F8EA
:1090400014610B6865F30A121A430A6044F016F8BB
:109050002EB1022384F81231002005B0F0BD0123A7
:10906000F8E7E9B2904D012905F8371CE0D890F8EF
:109070001231022B0FD0032BDAD1C1B9022380F8B1
:109080001231D0F8E43580F810115B68984720461B
:1090900043F0F4FFE0E70029F9D00121032380F831
:1090A000101180F81231204643F0EAFEEFE790F805
:1090B00010110129EBD0D0F8E4355B68984715F81A
:1090C000371C84F81011EEE7012AB1D190F8123163
:1090D000022B04D0032BABD100F588717EE77349D6
:1090E0007CE790F81231023B012BA1D86E4B002295
:1090F00043F8302CD0F8182112B1022243F8302C5A
:109100006B4902226AE7012D08D1C0F81851D4F842
:10911000E43502A99B6820469847B8E7022D9BD109
:10912000DAB2002A98D102691B0A023B5268032B6B
:1091300003D8DFE803F00C0E1012012363F30612CC
:10914000594B43F82C2C012384F816319FE7022356
:10915000F4E70323F2E70423F0E70523EEE790F8B2
:109160001231023B012B3FF663AF012D7FF474AF48
:109170000023C0F81831CAE790F81221032A7FF4BF
:1091800057AFDBB2012B3FF653AFD0F8E43502A95D
:109190009B689847BDF80E30002B7FF45DAF76E7F3
:1091A00007F06007202FD9B205D1D0F8E43502A925
:1091B0009B68984750E7BCF1010F31D0BCF1030F19
:1091C0001ED0BCF1000F7FF447AF90F81221022AA5
:1091D0005AD0032A7FF42CAF13F0800F4FF02802EF
:1091E000314B59D001F07F0102FB010191F81E21A2
:1091F000002A4FD0012243F8282C2E490222EDE606
:1092000090F81231022B3FD0032B7FF411AF002DC9
:109210007FF47DAF4A063FF47AAF43F03DFE76E738
:1092200090F81221022A2FD0032A7FF401AF002DDB
:109230007FF412AF11F07F003FF429AF5BB2002B37
:109240004FF02802B5BF02FB004102FB014101F5CE
:109250008E7101F55D710022DB0F08708A704B7012
:1092600004EB8000C9786BB18269136802396FF32F
:10927000555301298CBFC3F30071012161F31C73A5
:10928000136044E7426DF0E74B063FF4E5AE43F070
:1092900003FEE1E60022AEE702FB010191F876232E
:1092A000A6E707F08001F2E7F0250020BC250020AA
:1092B000C0250020C825002010B5044671BB90F8D9
:1092C0001131032B1BD1D0F89023D0F87C339A4274
:1092D00017D9C178012908BFD0F88013A2EB030287
:1092E00004BFC918C0F88013934228BF1346C0F8C2
:1092F00090239BB2D0F88023002143F06FFF002021
:1093000010BDD0F8E4351B6923B190F81221032A6F
:1093100000D19847204643F0B1FEF0E7D0F8E4359D
:109320009B69002BEBD090F81221032AE7D19847D4
:10933000E5E770B50A7812F0600406460D462AD0BB
:10934000202C2FD1CC884B78FCB112060CD51F49AC
:1093500022461846FFF734F9EA881C49304643F0A4
:1093600079FE0024204670BD194A1360194A032370
:10937000C2F80C4880F81131C0E9E444234602F5F4
:109380000162002143F02AFFEBE702221144184654
:10939000FFF716F9E6E74B780A2B08D00B2B0BD01A
:1093A000062BDFD1304643F0A9FD0224DAE70A4953
:1093B000012243F04FFED5E78B781BB9074B43F8EA
:1093C000244CCFE743F09AFDCCE700BF081D0020F6
:1093D00000000020F8140020CC250020F0250020FB
:1093E00010B5282303FB0101074AB1F88C1304468A
:1093F0001046FFF73AF92046034A4023012143F083
:10940000EDFE002010BD00BFD0250020002310B5C8
:1094100019460446402243F07FFD40228021204629
:10942000002343F079FD012384F81231D4F8E835A4
:10943000A0785B689847002010BD38B540220446EC
:109440000223812143F068FD2046022340220121AE
:1094500043F062FD204603230822822143F05CFD95
:10946000084B0222002583F84B2083F84C50FFF76D
:1094700093F801212046044A402343F0AFFE2846DA
:1094800038BD00BF00000020D025002038B50122E3
:10949000044640F20113A0F844310125114643F07F
:1094A000BBFE29462046A4F89C53002243F0B4FE9C
:1094B0004FF48173A4F86C3120462A46022143F010
:1094C000ABFEFFF775F8002038BD38B5244C94F892
:1094D000C028012A034630D12248026A1AB984F80A
:1094E000C028002038BD402AD4F8281818D9403A9E
:1094F00001F140050262C4F8285840221A4810FAC7
:1095000081F1C3E9541140F201100021C3E9562151
:10951000A3F8440103F5A271184643F0C6FDE0E745
:1095200002EB0105C4F828584FF0000505620ABF98
:10953000022092B284F8C008E0E7022AD1D10025C7
:1095400040F20112C0E95455C0E95655A0F8442133
:1095500000F5A27143F0A9FD84F8C058C1E700BF2F
:10956000F8140020F0250020B91D002038B5284C43
:10957000636A0F2B03F1010202D06262002038BD42
:10958000244A0023636292F8C038002BF6D1D2F847
:109590002818B1F5006F08BFC2F82838D2F828188B
:1095A000D2F82C38994203D1002382F8C038E5E77D
:1095B0008CBFC1F500635B1A402B1AD9403B01F107
:1095C00040052362012382F8C038C2F8285840239E
:1095D000114A12FA81F140F20112A0F8442100224E
:1095E000C0E95411C0E9563200F5A27143F05DFDA7
:1095F000C4E701EB0305C2F828584FF000052562C7
:109600000EBF022401249BB282F8C048E0E700BFED
:10961000F0250020F8140020B91D002008B50248EC
:1096200041F037FA014808BD21AF0508182600208F
:1096300008B5024841F02DFA014808BD28AF0508D9
:109640001826002008B5024841F023FA014808BD59
:109650002DAF05081826002008B5024841F019FA78
:10966000014808BD37AF05081826002008B5024894
:1096700041F00FFA014808BD42AF05081826002046
:10968000024BD3F8280107F02FB800BFF0250020C7
:1096900010B50D4B0D4CD3F87038D4F82C011B1AB3
:1096A000FA2B06D904201AF03FFD002084F830017F
:1096B00010BD11B1D4F834310B6012B1D4F8383187
:1096C00013600120F4E700BFF8140020F02500200B
:1096D00010B504464FF4FA7007F000F96069BDE870
:1096E0001040FFF71FB973B5104B154690F91020C5
:1096F0000446142000FB02335E6EA3689A0704D46C
:109700006069019143F016FA0199304643F0EFFD8C
:109710002946304643F0EBFDA3689B0702D4204660
:10972000FFF7D6FF012002B070BD00BF000000208F
:10973000F7B515461E4690F91020104B044614202C
:1097400000FB02335F6EA3689A0704D4606901913D
:1097500043F0F0F90199384643F0C9FD33462A46F3
:109760000021384643F098FDA3689B0702D42046A9
:10977000FFF7AEFF012003B0F0BD00BF00000020E6
:10978000F7B515461E4690F91020104B04461420DC
:1097900000FB02335F6EA3689A0704D460690191ED
:1097A00043F0C8F90199384643F0A1FD3346002241
:1097B0002946384643F070FDA3689B0702D4204633
:1097C000FFF786FF012003B0F0BD00BF00000020BE
:1097D00073B5114B154690F910200446142000FB78
:1097E00002335E6EA3689A0704D46069019143F066
:1097F000A1F90199304643F07AFD01230022294660
:10980000304643F049FDA3689B0702D42046FFF78A
:109810005FFF012002B070BD0000002037B58368F3
:109820001C686379DB0724D5A57994F85C3205F0D0
:1098300001010D46FBB1E06B43681A68D36AC3F3BC
:109840004E03536294F86D32012B07D094F86132C5
:1098500023B1B4F868320133A4F8683285F001010D
:1098600041F036F90023A4F866324FF08073C4F853
:109870005C3203B030BD94F85F320191012B04BF1C
:1098800094F85D3284F85E322046FFF750F894F881
:109890005F32019953B9012384F85F3285EA0301ED
:1098A000E06B03B0BDE8304041F012B9002384F80A
:1098B0005F32F5E70E49D1F8883043F47003C1F800
:1098C00088300C4B1A68002042F001021A60986040
:1098D0001A6822F0847222F480321A60064A5A60B2
:1098E0001A6822F480221A60D860044B8B6070479B
:1098F00000ED00E0003802401030002400000008B5
:1099000070470148FEF7CEBBB80000200148FEF7C3
:10991000C9BB00BF0403002070470B4B30B51A468B
:1099200000241D79854208D1DD68294203D0142026
:1099300000FB042030BD0029F9D001340A2C03F1CA
:109940001403EED10020F5E74C050020024B03483C
:10995000D3F83C11FFF7F7B9F025002000000140D3
:1099600010B5064C0648D4F83C11FFF7ECF9D4F8D2
:109970005C110448BDE81040FFF7E5B9F025002070
:10998000000001400040014010B5064C0648D4F8E4
:109990003C11FFF7D8F9D4F860110448BDE8104035
:1099A000FFF7D1B9F025002000000140004401403C
:1099B00010B5064C0648D4F83C11FFF7C4F9D4F8AA
:1099C00064110448BDE81040FFF7BDB9F025002040
:1099D0000000014000480140034B4FF08040D3F8A5
:1099E0004011FFF7B0B900BFF0250020024B03483B
:1099F000D3F84411FFF7A7B9F02500200004004078
:109A0000024B0348D3F84811FFF79DB9F025002019
:109A100000080040024B0348D3F84C11FFF793B9FC
:109A2000F0250020000C00400348D0F8203613B188
:109A300000F2146018477047000000200348D0F877
:109A4000403613B100F23460184770470000002020
:109A50000348D0F8603613B100F2546018477047DD
:109A6000000000200348D0F8803613B100F2746083
:109A700018477047000000200348D0F8A03613B103
:109A800000F2946018477047000000200348D0F8A7
:109A9000C03613B100F2B4601847704700000020D0
:109AA0000348D0F8E03613B100F2D460184770478D
:109AB000000000200348D0F8003713B100F2F46032
:109AC00018477047000000200348D0F8203713B132
:109AD00000F2147018477047000000200348D0F8C7
:109AE000403713B100F2347018477047000000206F
:109AF0000348D0F8603713B100F25470184770472C
:109B0000000000200348D0F8803713B100F27470D1
:109B100018477047000000200348D0F8A03713B161
:109B200000F2947018477047000000200348D0F8F6
:109B3000C03713B100F2B47018477047000000201E
:109B40000348D0F8E03713B100F2D47018477047DB
:109B5000000000200348D0F8003813B100F2F47080
:109B60001847704700000020204A936803F00C0358
:109B7000042B10B520D0082B20D01D4B1B4C0360AC
:109B8000A3681C4AC3F30313134493F8141803681F
:109B9000CB404360A168C1F38221114491F81418AD
:109BA00023FA01F18160A168C1F342310A4492F8BD
:109BB0001428D340C36010BD0F4BDFE753685168D2
:109BC00013F4800F01F03F01536814BF0A4A084A9A
:109BD000B2FBF1F1054A5268C2F30142C3F38813A4
:109BE00001324B435200B3FBF2F3C7E700380240A7
:109BF0000024F4000000002000127A00F0B5446B4D
:109C00008668A38923F400531B041B0CA38182796B
:109C1000278A0546BFB2100312F0040F4FEA022153
:109C200000F400506A7927F4405740EA0700208288
:109C300014BF4FF4805C4FF0000C12F0010F0CBF0A
:109C4000002304239207A28922F4B05201F4806118
:109C500022F00C0248BF43F0080341EA0C01120451
:109C60000B43120C1A43A281A38A23F440731B04F2
:109C70001B0C85B0A3826846FFF776FF214B9C4200
:109C800003D003F580639C423AD1039BA28919213A
:109C9000170401FB03F34FF064014CBF7600B600DC
:109CA000B3FBF6F3B3FBF1F001FB10330201A08923
:109CB00000044BBFDB001B01323332334BBFB3FB1D
:109CC000F1F3B3FBF1F303F0070303F00F031343C6
:109CD0009BB223816A6BAB7913F0080F938A0BBF99
:109CE00023F008039BB21B0443F0080308BF1B0CBE
:109CF000938293899BB243F40053938105B0F0BDE6
:109D0000029BC3E700100140816077E7417175E76E
:109D1000F0B587B0002300930193724B1A6842F4A8
:109D200080321A601A6802F400320192009A0132FD
:109D30000092019A1AB9009AB2F5A04FF2D11B68AD
:109D400013F4003318BF01230193019B012B40F052
:109D5000AD80644B64491A6C42F080521A640A6800
:109D600042F440420A609A689A609A689A609A68D7
:109D700042F480529A605D4A5A601A6842F08072DA
:109D80001A601A689201FCD5594A40F202711160BA
:109D90009A6822F003029A609A6842F002029A607E
:109DA000504A936803F00C03082BFAD19368514C86
:109DB00003F00C03042B7BD0082B7BD04E4B236687
:109DC000484B4E4D9A684E48C2F303122244002677
:109DD00092F82418226ECA4022664A4AEA605A6FF4
:109DE000494AAA605A6B22F080025A635A6F42F0C5
:109DF00080725A67196B454A0A431A635A6B5A6351
:109E00001A6C42F0875242F4F61242F41F6242F09A
:109E10000F021A64596C3E4A0A435A6402A948F276
:109E2000FF73CDE902364FF6FF77FEF7C6FA00F56D
:109E300080600297FEF7C1FA00F580600297FEF796
:109E4000BCFA00F58060FEF7B8FA00F58060FEF716
:109E5000B4FA0846FFF788FE029B2E4AB3FBF2F3E2
:109E60002D4AC2F87431D5F8FC302C4A43F0807387
:109E7000C5F8FC302A4BC3F8B02F5E601A6842F078
:109E800001021A60236E4FF47A72B3FBF2F3013BC6
:109E9000B3F1807F08D24FF0E0225361F02385F8C0
:109EA000233007239661136107B0F0BD00BFFDE7C3
:109EB0001C4B84E75368516813F4800F01F03F0195
:109EC000536814BF174A0C4AB2FBF1F1054A5268B5
:109ED000C2F30142C3F3881301324B435200B3FB78
:109EE000F2F36CE700380240007000400830400494
:109EF000003C0240000000200024F40000ED00E0DF
:109F0000000002400003FA05000000081F906700EF
:109F10003357070040420F00F025002055CEACC556
:109F2000001000E000127A0082B000230193054B7C
:109F30000193019B03EB80000190019B196002B02B
:109F4000704700BF50280040436D064A1A61C2782E
:109F5000012A06D100F2CC5058611A684FF08022D5
:109F60001A6070471800086038B5044600296FD1A0
:109F700090F81131022B2AD1D0F83821D0F82411D1
:109F80008A4232D9C378012B04BFD0F828315B183C
:109F9000A2EB010208BFC0F828314FF48071D0F85D
:109FA0002831C0F83821002592B2A0F81C11C0F861
:109FB0002C31C0F83451C0F8302100F58E7142F0D8
:109FC000F7FF2B462A462946204643F007F994F826
:109FD0001631012B07D1244A236952F82C2C5A60E0
:109FE000002384F81631002038BDD0F83C31B3FB93
:109FF000F1F501FB1535A5B9994212D8D0F84021E9
:10A0000093420ED24FF48073C0E94A55C0E94C55D3
:10A01000A0F81C3100F58E7142F0CAFFC4F840511F
:10A02000CFE7D4F8E435DB682BB194F81221032A8A
:10A0300001D120469847052384F81131002320469A
:10A040001A46194643F0CAF82046FFF77DFFBEE7DF
:10A05000D0F8E4355B69002BC5D090F81221032AB3
:10A06000C1D19847BFE700BFF02500207047704777
:10A07000704710B5114C94F88231CBB14FF0E0220B
:10A08000D2F8103D23F00603C2F8103DFFF712FC92
:10A0900094F8823163B1D4F888319B68DB0707D527
:10A0A000D4F88422136823F0030161F307031360DB
:10A0B000034B4FF480225A6110BD00BFF0250020F1
:10A0C000003C01402DE9F04F954CD4F884315A6999
:10A0D000D0078DB000F1A1825A699B6913400193AA
:10A0E00000F09B82C3F307430293019B190311D530
:10A0F000D4F88831DFF834929E69DB6904F5BC7BC3
:10A100001E40360C04F5E6774FF00008DA46002EC4
:10A1100040F01281029B5A070FD5D4F88831814E46
:10A120009F69DB691F40BFB2A6F118054FF0000917
:10A13000A6F5C878002F40F04481019B9DF804707B
:10A14000980741BF764BD3F8843102225A61019BB4
:10A15000002B1BDA724D95F882313BB1D5F8842281
:10A16000136823F0030161F307031360D5F8882116
:10A170006D48536823F0010353606C4BD3F84C389F
:10A180009847D5F884314FF000425A61019B190578
:10A19000C3F3072631D5624D00238DF81F3095F8A3
:10A1A0008A328DF81F30614B05F5BC70D3F8483802
:10A1B0009847D5F88421D5F888314FF400619B6821
:10A1C000516195F88221C2B1DA0716D595F88D3222
:10A1D000012B12D19DF81F30032B0ED1D5F88432FC
:10A1E0001A6842F001021A601A6842F003021A600B
:10A1F0004F4A136943F0060313613B070AD5484DE4
:10A200004A4B05F5BC70D3F840389847D5F88431EF
:10A2100008225A61FD0615D5414BD3F884018269A5
:10A2200022F010028261026AC2F34341022902F065
:10A230000F0500F08381062900F0A781836943F0B0
:10A2400010038361F00635D5354DD5F88821536864
:10A25000002723F001035360384640F06DFDB846F7
:10A2600095F879013B4605F5C875FF218342C0F09A
:10A270009A81D4F888312C484FF0FF329A614FF020
:10A280000112DA610B2262F3070762F307085F61CC
:10A29000C3F810801A686FF30A121A60FFF754FEB1
:10A2A000D4F8843120484FF480525A611F4BD3F8C0
:10A2B00044389847B10640F19281194CD4F888315E
:10A2C000D4F8900199680268C1F34101022906BFE0
:10A2D000032161F30A026FF30A0202605A6842F432
:10A2E00080725A6008A8FFF73FFCD4F88411D4F8B4
:10A2F0008801CB68099A6FF38D23CB6085680D4880
:10A30000C5F341052844007B032840F05381002217
:10A3100084F87A214FF40072A4F87C21092258E1D4
:10A32000F025002080270020682700200000002062
:10A3300000ED00E070200508F2073BD55FFA88F1D8
:10A3400004EB8103D3F8CC319D68D4F888315B6984
:10A350001D40EB0720D594F87B013B680125A842FE
:10A360009D6007D11869DBF87C33C0F312001B1A1B
:10A37000CBF88C33D9F834385046984794F87B3171
:10A38000012B09D1B8F1000F06D194F88932052BC1
:10A3900002D15046FFF7D8FDA80742BF3B6802250F
:10A3A0009D60290706D5D9F83C38504698473B6848
:10A3B00008229A6008F10108760804370BF1280B8F
:10A3C000A5E6FB0777D5D8F888315FFA89FA1969CD
:10A3D000586B08EB8A0220FA0AFBD2F890214FEA68
:10A3E000CB1B92685FFA8BFB4BEA010B0BEA020B6B
:10A3F0001BF0010F1ED05A6BA8484FF0010B0BFA4F
:10A4000009F122EA01025A633368C3F808B0A44B89
:10A410005146D3F83838984798F87B315B4509D1D5
:10A42000B9F1000F06D198F88932042B02D19B486C
:10A43000FFF78AFD1BF0080F1EBF33684FF0080BB3
:10A44000C3F808B01BF0100F1EBF33684FF0100B9D
:10A45000C3F808B01BF0400F1EBF33684FF0400B2D
:10A46000C3F808B01BF0020F1EBF33684FF0020B99
:10A47000C3F808B01BF0800F1DD0D5E94C329B1AF1
:10A48000D5F82421D6F800E098F87BB1DEF8180062
:10A49000934228BF13460333D8F8882103920AF168
:10A4A000320A9B0808EB8A0A80B2984203D9D5E9A0
:10A4B0004C03984205D809F101097F080436283574
:10A4C00038E6C01AD5F82431984228BF1846C31C74
:10A4D0009B08BBF1000F1CD0D5F82811D5F834210A
:10A4E0000144C5F82811D5F8301102448A42DEF83B
:10A4F0001800C5F83421D7D1039A95F81C11526B76
:10A500004FF0010C0CFA01F122EA010203994A63AF
:10A51000CAE7D5F82821049282B2DAF88011033212
:10A5200092108C4605925946059A8A42D4D0049AD4
:10A5300052F82120CCF800200131F5E747F6F07100
:10A5400011423FF47BAE282101FB0531C2F30A1210
:10A55000D71CD3F848E2D1F8F8C4BF1000218F42CD
:10A560000DD1282101FB0533D3F8F8141144C3F8A9
:10A57000F814D3F804150A44C3F804255EE6DEF89F
:10A5800000804CF821800131E9E7D3F848120F68C8
:10A59000C3F844770968C3F84817282101FB05333D
:10A5A000C2F30A12E5E755F8042B9160AA6B013358
:10A5B00091605BE6012084F87A014020A4F87C01D8
:10A5C000A0F56400374CA0F562401044A04227D8A3
:10A5D0000E2262F38D23CB604FF400534B61029B3C
:10A5E000DA060BD5304C2E4B04F5BC70D3F850383E
:10A5F0009847D4F884314FF480125A61029B9B062D
:10A600000BD5294C264B04F5BC70D3F85438984729
:10A61000D4F884314FF400125A610DB0BDE8F08FC8
:10A62000224CA2F57400A0F51050A04201D80D22D2
:10A63000CFE71F481F4C1044A04201D20C22C8E7AC
:10A640001D4CA2F18C70A0F54340A04201D80B2212
:10A65000BFE71A481A4C1044A04201D20A22B8E7B8
:10A660001848194C1044A042FFF458AE174CA2F100
:10A67000B770A0F55850A04201D20822A9E71448AB
:10A68000144C1044A04201D20722A2E71248104401
:10A69000124A904234BF062205229AE7682700201A
:10A6A000000000203F420F00F0250020DFC810000E
:10A6B0002013FBFE20D61300FF69180000D3CEFE46
:10A6C00040771B00C05BB3FEC091210040AC270067
:10A6D000C01D6AFE40E13300803C36FEE09C410034
:10A6E0004A09012301F01F0103FA01F150F8223059
:10A6F000194214BF0120002070474A09012301F0CC
:10A700001F0103FA01F150F822300B4340F82230C8
:10A7100070474A09012301F01F0103FA01F150F8C3
:10A72000223023EA010340F82230704710B50A4472
:10A7300041F221048A4200D110BD11F8013B80EAA8
:10A740000320082310F4004F4FEA400018BF604078
:10A75000013B80B2F6D1EDE74840082310F0800FAE
:10A760004FEA400018BF80F0D500013BC0B2F5D1E0
:10A77000704710B50A440C46944200D110BD14F83D
:10A78000011BFFF7E9FFF7E738B50A4605680446FD
:10A790000020AA4203D36B1C2360287038BD12F836
:10A7A000011BFFF7D9FFF4E7DFED0A7AC0ED020ADB
:10A7B00020EE270AB7EE007AC7EE007A0023036086
:10A7C000C0ED017A70EEA77A80EEA77A80ED037A69
:10A7D000704700BFDB0FC94090ED017AD0ED007AE1
:10A7E000C0ED020A30EE877AC0EE876A30EE677AF3
:10A7F000E6EE877AB0EE670AC0ED007A7047012373
:10A8000003700023C3648364036503644364436586
:10A81000836283657047DFED157A80ED010AF4EEFF
:10A82000E70AF1EE10FAC0ED020A80ED031AC0ED5E
:10A83000051A18DDB4EEE70AF1EE10FA10DD81EE2C
:10A84000007AC0EE207AF0EE006A77EE877A86EE24
:10A85000A77A80ED047A80ED0F2AC0ED0E2ACEE7AC
:10A8600000230361F7E700238360FAE7BD378635ED
:10A87000FDEEC07A17EE903A2033402B43D8DFED3F
:10A88000237A9FED237AB4EEE70AF1EE10FA28DC82
:10A89000DFED207A9FED1E7AB4EEE70AF1EE10FAB2
:10A8A00022D4DFED1D7AB4EEE70AF1EE10FA1EDDD8
:10A8B00030EE670A37EEC00A60EE007ADFED176A05
:10A8C0009FED177AA7EEA67ADFED166AE7EE876AA4
:10A8D0009FED157AA7EEA67A20EE276AA6EE070A64
:10A8E000704730EE470ACEE730EE070AD4E79FED17
:10A8F0000F7AB4EEC70AF1EE10FA44BF30EE270A21
:10A9000037EE400AD8E79FED0A0A7047DB0F49404F
:10A91000DB0FC940DB0F49C0DB0FC93F9A7C2E36E5
:10A92000FAAF4FB93587083CA4AA2ABEDB0FC9BFCE
:10A9300000000000DFED027A30EE270A98E700BF42
:10A94000DB0FC93F38B51D46304BB3FBF2F39942DC
:10A95000B0EE405AF7EE005A4FF000044FD207EE27
:10A96000901A9FED2B7ADFED2B6AF8EE677A67EE8F
:10A97000877A07EE102AB8EE477A27EE267AC5EED8
:10A98000876A87EEA64AB0EE440AFFF771FFF0EE41
:10A99000404AB0EE440AFFF7CDFF35EE055A012DCF
:10A9A00084EE854AF0EE407A1CBF35EEE76AF6EE9B
:10A9B000006AB8EE000A34EE257A12BF66EE266A07
:10A9C00027EE806AF0EE656A86EE875AC6EE076A61
:10A9D00067EE807A75EEC45AC0ED016AC7EE876AE9
:10A9E000C5EE877A80ED005A80ED025AC0ED036A09
:10A9F000C0ED047A846144610462C46138BDC0ED75
:10AA0000005A44608460C4600461F3E720A1070039
:10AA1000DB0FC940BD3786359FED010A002391E762
:10AA2000F304353FB5EE400AF1EE10FA10B5F0EE42
:10AA3000406A04464FF00003084627D007EE902AEC
:10AA4000F8EE670ADFED1A7A60EEA70A4CB9FFF755
:10AA5000ABFEFCEEE66ABDE8104016EE903A99B205
:10AA6000DAE7022C13D0032CF3D19FED120A0B600E
:10AA700066EE806AB7EE007AC7EE267A4B608B608E
:10AA800077EEA07A80EEA77A81ED037A10BD9FED74
:10AA90000A7A0B6020EE077AB7EE006AC6EE077AF4
:10AAA0004B6077EEA07A80EEA77A81ED027AD0E74C
:10AAB000BD378635F82F4541D2331C41F0EEE06AB0
:10AAC000B0EEC07AF4EEC76AF1EE10FAD4BFB0EE81
:10AAD000476AB0EE666AB5EE406AF1EE10FAF0EE43
:10AAE000405A46D0F4EEC76AF1EE10FA54BFB0EE09
:10AAF000475AB0EE665AC5EE067A9FED1F6A9FED83
:10AB00001F5ADFED1F4AA7EE865A9FED1E6AA5EE7B
:10AB1000276A9FED1D5AA6EE275A9FED1C6AA5EEE7
:10AB2000276A9FED1B5AE7EE854AB7EE005AA4EE5E
:10AB3000A75AF1EE467A87EE850AF4EEC76AF1EE7F
:10AB400010FA48BFDFED137AF5EEC00A48BF37EEC2
:10AB5000C00AF1EE10FA48BFDFED0F7AF5EEC05AE9
:10AB600048BF37EEC00AF1EE10FA48BFB1EE400A16
:10AB70007047DFED0A7AC0E739094E3DE3B59EBE66
:10AB800069A2163E88FA16BE45FE7FBFA7DFA8B4AD
:10AB900099FB243FDB0FC93FDB0F49400000000059
:10ABA00044F25063984203DDA0F50C40A038704792
:10ABB000034B9842BCBF00F50C40A030704700BF6B
:10ABC000B0B9FFFF48F69F43984203DDA0F50C4063
:10ABD000A03870470028BCBF00F50C40A03070477B
:10ABE00091ED005A08B5B0EE450AFFF7A3FEF0EE6E
:10ABF000405AB0EE450AFFF73BFE91ED015AF0EEE8
:10AC0000404AB0EE450AFFF795FEF0EE403AB0EE4E
:10AC1000450AFFF72DFE91ED023AB0EE405AB0EE34
:10AC2000430AFFF787FEB0EE404AB0EE430AFFF753
:10AC30001FFE25EE806A63EEC07A24EE847AC0EDB2
:10AC4000017AF0EE467AE5EE077A25EE843A64EE74
:10AC5000806AC0ED037AF0EE437AE5EE667AA5EEFF
:10AC6000067AE5EE436A23EE844A64EEE34A65EE33
:10AC7000A35A80ED004A80ED025AC0ED047AC0ED7F
:10AC8000054AC0ED066A80ED077AC0ED085A08BD96
:10AC9000034600F1400100221A615A619A61DA61AB
:10ACA00010339942F8D11022002147F044B9D1ED78
:10ACB000007A90ED066AD0ED095AB8EEE77AD0ED49
:10ACC000047AE7EE077AB7EE005AC0ED047AD1EDC8
:10ACD000017AF8EEE76AD0ED057AE7EE267AC0ED64
:10ACE000057AD1ED027AF8EEE77AA7EE276A80EDD1
:10ACF000066A90ED076A36EE076A80ED076A90ED06
:10AD0000086AA7EE266A80ED086A26EEA66A75EE46
:10AD1000865AA7EE076AC0ED095AD0ED0A5AE6EE48
:10AD2000A75AA7EEA76AC0ED0A5AD0ED0B5A75EEE6
:10AD3000A65AC0ED0B5AD0ED0C5AE7EE275AC0EDDB
:10AD40000C5AD0ED0D5AE6EEA75AC0ED0D5AD0EDD3
:10AD50000E5AE7EEA75AC0ED0E5AD0ED0F5A75EE17
:10AD6000A75AC0ED0F5AD0ED105A75EE875AC0EDB4
:10AD7000105AD0ED115A75EEA65AC0ED115AD0ED09
:10AD8000125A75EEA75AC0ED125AD0ED135A75EE4D
:10AD9000855AC0ED135AD0ED005AE7EE065A90EDF1
:10ADA000017AC0ED005AA6EE867A80ED017A90ED28
:10ADB000027AA7EE867AD0ED037A80ED027A37EE3A
:10ADC000866A80ED036A70472DE9F043034685B03B
:10ADD00000F11007054600261C46AC4612E0F8ECD0
:10ADE000016A1EED047AD4ED007AE6EEC77AC4ED6E
:10ADF000007A98450EF1100EF1D10434BC420CF1EA
:10AE0000040C03D0A7F11008E646F2E701361C4611
:10AE1000B646BEF1040F1FD000EB0E1CA84604F18D
:10AE2000100909E0FCEC016A18ED047AD4ED047A0B
:10AE3000E6EEC77AC4ED047ACC4508F11008F1D1EA
:10AE4000D4ED046A93ED007AC6EE877A0EF1010E16
:10AE5000C4ED047A6446DCE7042E03F1140305F123
:10AE6000040507F11007B7D1002300930193029363
:10AE700003936C460023142752F8045B44F8045BE8
:10AE800007FB030C00EB03156E4665451FD101332C
:10AE9000042BF1D104AD103100F1400255F8044DFE
:10AEA0000E4600EB031741F8044D1446A742D1EDBE
:10AEB000007A17D152ED016A87EEA67A013BA2F122
:10AEC000140281ED007AE9D105B0BDE8F083B6EC5B
:10AED000017A54ED017AF5EC016AE6EEC77A44EDA9
:10AEE000017AD2E7F4EC016AB6EC017AE6EEC77AB1
:10AEF000C1ED007ADAE79FED0C7A00F10C03F0EC7B
:10AF0000017AF4EE677AF1EE10FA06D7F0EEE77AFE
:10AF1000F4EE477AF1EE10FA03DC9842EFD101200B
:10AF200070470020704700BFFFFF7F7F1FB50C46B2
:10AF3000024669461030FFF747FFDDED007AB6EEB6
:10AF4000007A67EE877A2046C4ED007ADDED017A5B
:10AF500067EE877AC4ED017ADDED027A67EE877AD3
:10AF6000C4ED027AFFF7C7FF04B010BD08B543F087
:10AF70002DF800EE100AB5EEC00AF1EE10FA06DB6D
:10AF800044F0A2F8B4EE400AF1EE10FA01D79FEDBA
:10AF9000010A08BD0000000008B5F7EE007A2DEDAB
:10AFA000028BF0EEC08A77EEE87AB0EE408A17EEB8
:10AFB000900A42F0E3FCFFF7D9FF9FED0E7ADFED38
:10AFC0000E7AE8EE877A9FED0D7AA7EEA87ADFED8C
:10AFD0000C7AE7EE287AB5EEC08ABDEC028BF1EE72
:10AFE00010FA20EE270A44BFDFED067A37EEC00ADA
:10AFF00008BD00BF306E99BC2716983D843459BEF9
:10B00000A40DC93FDB0F494008B50369012BC3BF3D
:10B0100003F1FF3307EE903AD0ED036A9FED067A15
:10B02000C4BFF8EEE77A86EEA77A17EE100A42F070
:10B03000A5FCBDE8084099E70000000038B503789A
:10B04000012B04462CD103691D4D23B9426812B966
:10B05000D5F870284260D4ED067A77EE807A013315
:10B060002361C4ED067A04F11C00FDF7C7FB62689A
:10B07000D5F870389B1AA268934211D9FFF7C4FF24
:10B08000D4ED057AB4EEE70AF1EE10FA0CDD237B7D
:10B090003BB9D5F87028626000222361A261E362A7
:10B0A00038BD03232370FBE7D4ED047AD4ED066AA0
:10B0B000F8EE677A022386EEA77A84ED067AF1E746
:10B0C000F814002038B500F11C02044604F16405B0
:10B0D000104650ED017AB1EC010A77EE807A40ED2E
:10B0E000017AFDF78BFB1830A842F2D12369294D74
:10B0F000616801332361D5F870385B1AA1688B420F
:10B100002CD91046FFF780FFD4ED057AB4EEE70A9C
:10B11000F1EE10FA15DC04F13400FFF775FFD4ED01
:10B12000057AB4EEE70AF1EE10FA0ADC04F14C00FD
:10B13000FFF76AFFD4ED057AB4EEE70AF1EE10FAF4
:10B1400010DD237B5BB9D5F8702862600022236193
:10B15000A261E36222636364A264E36538BD0323F2
:10B160002370FBE7D4ED047AD4ED066AF8EE677A33
:10B17000022386EEA77AD4ED0C6A84ED067A86EE79
:10B18000A77AD4ED126A84ED0C7A86EEA77A84ED64
:10B19000127AE5E7F814002060EEA00A08B5E0EEA8
:10B1A000000A10EE900A42F0E9FBBDE80840DDE637
:10B1B00060EEA00A08B5E0EE000AE1EE010A10EE2A
:10B1C000900A42F0DBFBBDE80840CFE670B52DEDFC
:10B1D000028B82B00E4615463BF056FD00286AD021
:10B1E000364B374CD3F8903094F8082803F002031C
:10B1F000002A45D0002B59D00DF1060020F08CFD1F
:10B20000304ABDF80630D2F8E8139FED2F7A5B1A6A
:10B2100007EE903AF8EEE77AF0EE405A87EE870AAA
:10B2200004F60C04DFED297A20EE270AFFF782FBF3
:10B2300092EDFF8AA0EE658A35F02AF8D4ED020A75
:10B24000D0ED057AB0EE480A70EEA70AFFF7A4FF2A
:10B250007EB1DFED1F7A9FED1F7A20EE000A20EE0F
:10B26000270AC0EE077A9FED1C7A77EE877AC6ED43
:10B27000007A0DB1194B2B6002B0BDEC028B70BD92
:10B28000A3B1B4F93A3801EE103AB4F9383800EE07
:10B29000903AB4F9363800EE103AB8EEC11AF8EE2A
:10B2A000E00AB8EEC00AFFF783FFD1E7D4F85038C0
:10B2B00093ED350ACCE79FED0A0AC9E710EA0020B2
:10B2C000F02500205C5100200000C84235FA8E3C79
:10B2D000CDCC9C3F00409C4682E6C547331390434B
:10B2E000000000002DE9F74F90469DF83020002A1D
:10B2F00014BF4FF030094FF020090D9A1C1E05466F
:10B300000F46BABF64420123002312F8011B01B1AA
:10B310002CB9A24663B100240D9EA41B12E0013C8F
:10B32000F3E7BD4204D2494628460193C047019B3A
:10B33000BAF1010AF5D2EFE7BD4203D228460193E4
:10B34000C047019B06EB040B16F8011B0029F3D143
:10B3500033B15446002C07DCBAF1000FA8BFD34428
:10B36000584603B0BDE8F08FBD4202D24946284698
:10B37000C047013CEEE70FB437B50C4D06ABD5F82E
:10B38000581853F8042BD5F85408019341F0C8FF1E
:10B390000446D5F8280105F00CFA0028F9D020461B
:10B3A00003B0BDE8304004B0704700BFF025002076
:10B3B0000EB403B503AB084953F8042BCDE90030B4
:10B3C00001A841F0ADFF019B00221A7002B05DF8A8
:10B3D00004EB03B0704700BF4B8800080CB430B5D5
:10B3E0002C4CD4F85C38A5B01BB9D4F86038002BCD
:10B3F0003AD094F86438994206D9012303FA00F050
:10B40000D4F8683818422FD0234BD3F870184FF473
:10B410007A7304A8B1FBF3F203FB12131F49FFF781
:10B42000C7FF04AB0344289A1D490393054629AB83
:10B4300003A8029341F074FF039B591C03910A2156
:10B440001970039B0246591CD4F85C080391002133
:10B45000197090B103681B6A03B19847D4F85C581F
:10B4600004AC14F8011B21B925B0BDE8304002B08E
:10B470007047284605F038F9F3E7D4F86038002B18
:10B48000F2D002212A4400910A44FD2004A921F0AF
:10B4900025FEE9E7F0250020F814002050AF05084C
:10B4A000F387000810B54FF4004086B021F016F87D
:10B4B000044690B34FF4004121F072F902281AD1EA
:10B4C000226848F201039A4227D14FF400403EF02F
:10B4D00051FF10B31F4BD3F86C2882421FD0D3F812
:10B4E0004829904230D0D3F8242A90422FD000220D
:10B4F000C3F8602811E00023022294F90400CDE98A
:10B5000001234FF4612200924FF400411A4621F0CA
:10B5100099F9104BC3F85C0828B906B010BD03F6C2
:10B520006C02C3F860280C4B04930C4B03930C4B38
:10B5300002930C4B01930C4B00930C4A0C4B0221D1
:10B540000020FFF74BFFE8E703F64812E9E703F6B0
:10B550002422E6E7F02500205CAF050865AF05086A
:10B560006EAF05087AAF050821AF05087DBB050859
:10B5700028AF0508184A38B5D2F8004B033004EB61
:10B580009003B3F5007F19D802F60435C2F8003BEA
:10B59000124A02EB810120F00300D1F80C22C3F51E
:10B5A00000731044C1F80C020D4A9B0004210020D6
:10B5B00005EB8404FFF712FF204638BD0021094A3D
:10B5C0000846FFF70BFF084AD2F8943043F00073A7
:10B5D000C2F894300024EFE7F0250020E836002080
:10B5E00080AF0508A3AF050810EA00202DE9F84F49
:10B5F0000268DFF8A4800646002358F833108A4218
:10B600000BD1DDB20D2D0CD9204A00210520FFF70A
:10B61000E5FE00242046BDE8F88F01330E2BECD167
:10B62000F2E71B4F07EB850A4FEA8509DAF83CB1D0
:10B63000BBF1000F1AD107216420FFF79BFF0446DE
:10B64000CAF83C0128B90146124A0520FFF7C6FE98
:10B65000E0E76422594646F06EFCDAF83C3108EB2C
:10B66000C505C3E90053DB615B63DB644F4471795B
:10B67000D7F83C41182000FB014300221C46C3E9D7
:10B6800003229E601A750434C4E700BFB1AF0508F9
:10B69000F0250020D6AF05089020050803685A1C45
:10B6A000026019700368090A5A1C02601970704719
:10B6B00003685A1C0260197003685A1C02600A0A67
:10B6C0001A7003685A1C02600A0C1A700368090E8B
:10B6D0005A1C02601970704703685A1C02600A0AFB
:10B6E0001A7003685A1C02601970704738B5044616
:10B6F0000068154646F0E6F923682B44236038BD00
:10B7000003685A1C02601878704703685A1C02606C
:10B710001A4612F8021B0260587841EA002070476E
:10B7200010B502681146531C036011F8024B01600A
:10B73000D31C5178036093781B0443EA0123111D45
:10B740000160D078234343EA006010BDD1E90032A4
:10B750009A4206D05A1C0A6008B11B780370012077
:10B76000704700207047D1E900239B1A012B10B5C8
:10B770000446084604DDFFF7C8FF2080012010BD05
:10B780000020FCE730B50A440446914201D1002074
:10B7900011E014F8013BA3F14100192811F8010B45
:10B7A000A0F1410598BF2033192D98BF20301B1AF6
:10B7B00002D10028E9D130BD1846FCE76FF0004205
:10B7C000E0E710B50288C378A2F5FA62910840F26A
:10B7D000B554013B04FB013381780C24013902F09C
:10B7E000030204FB02120D49847901EB4202182185
:10B7F000B2F890201344027901FB032243790089B7
:10B800003C2101FB0233064A224401FB03224FF490
:10B810007A730021C2FB030110BD00BF7020050830
:10B8200080436D382DE9F04190461F4605464FF4A0
:10B830007A7200234046394642F026FD284B3C21CF
:10B84000034493FBF1F201FB1233AB7192FBF1F372
:10B8500001FB13226A7140F2B551182293FBF2F4F6
:10B8600002FB143394FBF1F201FB1244B4F5896F2F
:10B870002B714FEA82032EDA40F2DA2294422CDC5A
:10B88000B4F5B77FB4BF00210121164A182000FB90
:10B8900001220B2632F81600A04201DD013EF9D14B
:10B8A00003F5FA630B442B80731CAB700C2303FB72
:10B8B00001660D4B03EB46060134B6F89030E41AEE
:10B8C000EC704FF47A7200234046394642F0DCFCBB
:10B8D0002A81BDE8F0810321D7E70221D5E700BF27
:10B8E00080BC92C70021050870200508F0B5274DDF
:10B8F00006460F460FCD8DB06C460FC40FCD0FC45A
:10B9000095E80F0084E80F0016F003033AD1642194
:10B9100096FBF1F201FB126242B94FF4C87296FB3A
:10B92000F2F302FB1363003B18BF0123721EC3F145
:10B930001D03002A019340F26D13104606FB03F32A
:10B94000B8BFB01C03EBA0006FF0630392FBF3F3EE
:10B9500018444FF4C87392FBF3F210440630694662
:10B9600000240725013F51F8042BA74202EB0003F6
:10B9700093FBF5F0C0EBC000A3EB000004D1101A5C
:10B980000DB0F0BD0123D1E70134ECE760210508DB
:10B99000084BD3E9A41251EA020309D0064BD3F8AD
:10B9A00070385B1842F10002C0E900320120704794
:10B9B00000207047E8360020F814002037B505460F
:10B9C0006846FFF7E5FF044638B1DDE90023284665
:10B9D000FFF728FF204603B030BD40F20113288056
:10B9E0006B80A880A8712881F4E7F0B50124B0FB32
:10B9F000F4F58D4203D200261CB91C70F0BD4C43F7
:10BA0000F5E7B0FBF4F5B4FBF1F704FB15002EB934
:10BA1000002D03DC8C420CD33C46EDE7092D08DDFC
:10BA2000002A14BF372457242C4403F8014B013655
:10BA3000F2E73024F8E7A0F13003DAB2092A01D89E
:10BA400018467047A0F16103052B01D8573870479D
:10BA5000A0F14103052B94BF37384FF0FF307047FA
:10BA600070B50446944208461546B4FBF2F602D37C
:10BA70003046FFF7F5FF05FB1644024B1B5D00F84F
:10BA8000013B70BDF0AF0508B5EEC00ADFED2D7AC1
:10BA9000F1EE10FACCBF30EE270A30EE670ADFED88
:10BAA0002A7A20EE270A30B5FDEEC07A87B017EE6D
:10BAB000904A054684EAE470002303A9A0EBE470F1
:10BAC000CDE9003302933FF027F9002CACBF2023CF
:10BAD0002D2303A88DF8003041F0E4FD012822D188
:10BAE00030238DF801308DF802308DF8033003A932
:10BAF000684646F028FA684641F0D4FD0338C4B2DF
:10BB000022466946284645F0DDFF00232B550F49A4
:10BB1000284646F018FA0DEB0401284646F013FAC1
:10BB2000284607B030BD022805D130238DF80130FA
:10BB30008DF80230DBE7032804BF30238DF8013095
:10BB4000D5E700BF6F12033A00007A449DDB050879
:10BB500030B50278202A034600F10100F9D0092A05
:10BB6000F7D02D2A4BD10346BFEE000A9FED3C7A59
:10BB70001A46F2EE046A134612F8010BA0F13001E6
:10BB8000CCB2092C41D92E280BD1F2EE046A114611
:10BB9000B0EE666A0B4611F8012B303AD0B2092894
:10BBA0003CD91A7802F0DF02452A53D15A782D2A5F
:10BBB0003FD102330120013B00220A2513F8011F67
:10BBC0003039CCB2092C3AD9B2F59A7F1346DFED61
:10BBD000256A28BF4FF49A731A46F7EE007A072AAF
:10BBE00030D8DA086FF0070101FB0233F2EE046A85
:10BBF00063BB88B3C7EE276A20EE260A30BD2B2A26
:10BC000008BF0346B7EE000AB0E707EE901AF8EE59
:10BC1000E77AE7EE267AB0EE677AACE707EE902A8D
:10BC2000F8EEE77AC7EEA65A66EE866A37EE257A10
:10BC3000B0E72B2A14BF013302330020BBE705FB1A
:10BC40000212BBE767EEA67A083AC8E767EEA67A63
:10BC5000013BCDE7F7EE007A67EE276ACCE700BF3D
:10BC60000000000020BCBE4C70B5034610F8012B4C
:10BC7000202AFAD0092AF8D02D2A0ABF0346012526
:10BC80004FF0FF35591E00240A2611F8010FFFF767
:10BC9000D2FE092802D905FB04F070BD06FB04049E
:10BCA000F3E710B50023802804D893420AD2C85481
:10BCB000581C10BD934205D060F07F04CC54C009DD
:10BCC0000133F0E74FF0FF30F3E770B51249134C42
:10BCD000134E01220020FEF729FD228862B1A31D28
:10BCE000B34217D2A518B54214D2052A12D921465B
:10BCF000FEF71CFD2C46F0E721460222FEF716FD5A
:10BD000063880849084AC31A641A5842A2F898423C
:10BD1000584170BD0020FCE70040000801400008C9
:10BD200000800008FC3F0008E83600202DE9F04FB5
:10BD3000794BDFF8F4818FB0A3EB0802CDE9012342
:10BD40004FF00309102200210AA846F0F4F8019BE5
:10BD50000993029B0893714BCDF81C801A69002A45
:10BD6000BFBF6F4A5A6002F188325A600124F32241
:10BD7000DA604FF0000A7E23224604A907A88DF856
:10BD80003440CDF830A08DF81030FCF711FF50454D
:10BD900013DA0023B9F1010900F0B780002BD1D0EC
:10BDA00098F800307E2B40F0B380FFF78EFF00281C
:10BDB00000F0AE800FB0BDE8F08F224604A95046D7
:10BDC000FEF7B4FC574CDFF864B1ADF812005C45E7
:10BDD0003CD30024022205A907A8ADF81440FCF7C3
:10BDE000E7FEA042D5DBBDF81200022205A9FEF74E
:10BDF0009DFC0222ADF812000DF1120107A8FCF71C
:10BE0000D7FEA042C5DB0B9888B1079B089A034474
:10BE10009342BED80AABC0F104022146184446F052
:10BE20008AF80AA907A8FCF71FFECDE90B400C9B76
:10BE3000002BAEDB9DF8342022B138490A6942F06C
:10BE400000420A61B3FA83F35B09A3E762888DF8C5
:10BE500019A0C2F30B06B31DADF814302388C3F349
:10BE60000B011B0B8DF818301304ADF8161020D4FD
:10BE7000062205A907A8FCF79BFE002889DBBDF870
:10BE80001200062205A9FEF751FC6168ADF8120008
:10BE9000324607A8FCF78CFE0028FFF67AAFBDF803
:10BEA000120061683246FEF741FCADF8120014340E
:10BEB0008DE700273D460135EDB2062205A907A80A
:10BEC0008DF81950FCF774FE0028FFF662AFBDF83C
:10BED0001200062205A9FEF729FC6168ADF81200E0
:10BEE0003944324607A80391FCF762FE0028FFF6AA
:10BEF00050AFBDF8120003993246FEF717FC032D30
:10BF0000ADF812003744D6D1D1E7002B7FF448AF0B
:10BF1000052004F077FD00BF00800008003C0240CF
:10BF200023016745A408060800400008400D0608E4
:10BF3000034AD2F89C3223EA0000C2F89C02704700
:10BF4000E8360020034606490648884201D300200F
:10BF500070470288C2F30B029342F9D01430F4E721
:10BF6000400D0608A408060813B542880B4604468F
:10BF7000C2F30B0200211846019245F0DCFF216953
:10BF800003460A48814209D30948019A814205D2F1
:10BF9000184602B0BDE8104045F094BD21B11846E6
:10BFA00002B0BDE81040084702B010BD400D0608C1
:10BFB000D511060810B4B0F902404288002C0B4697
:10BFC00041685DF8044BBEBFC2F30B02DBB203FB5A
:10BFD0000211C9E730B5094B094CA34200D330BD6B
:10BFE000B3F902205988002A06DA5A68DD68C1F3DD
:10BFF0000B0100FB01222A601433EEE7A4080608B7
:10C00000400D060830B502460144002012F8015BDD
:10C01000082480EA050313F0010F4FEA50001CBF0B
:10C0200080F08C03D8B2631E13F0FF044FEA55056D
:10C03000EFD18A42EAD130BD154B03EB800070B5D9
:10C04000D0F8300808B3134D0C2202FB005292F9CD
:10C05000A132591C1AD092F8A902B0B1E91864248F
:10C0600091F8DC6292F8A8120020142263435C1855
:10C0700005EB4404013AB4F8E042314410FA84F08C
:10C08000F5D11423B0FBF3F080B270BD0020FCE7C3
:10C09000F8140020E836002038B503200D46144679
:10C0A000FFF7CAFF07EE900A8DB19FED0B7AF8EE0D
:10C0B000677AF0EE006A67EE877AB8EE047AA7EE48
:10C0C000A67ADFED067A67EE277AC5ED007A0CB125
:10C0D000034B236038BD00BF6740533A00007A44E9
:10C0E0003313904310B5427A044632B1014640689A
:10C0F00051F80A3B98470023637210BD10B4447A8C
:10C10000621C0444D2B24272A172037A934202D8F2
:10C110005DF8044BE6E75DF8044B704710B5036823
:10C120001A79022A044602D1987A40F00BFD0023C6
:10C130002360237110BDC36910B5044623B90921DA
:10C140001420FFF717FAE061E06910BD10B504464E
:10C150000068FFF7F0FF83783BB18388E381C388F1
:10C16000238203896382012010BD1846FCE738B59D
:10C1700000680D461446FFF7DEFFD0F8013007EEE9
:10C18000103ACDB1D0F80530DFED166A9FED166A92
:10C1900007EE903AF8EE677A77EEE67A77EEA77ACE
:10C1A000C7EE866AF7EE007A76EEE77ADFED0F6A81
:10C1B00067EEE67AC5ED007A9CB1DFED0D7ADFED32
:10C1C0000D6AB8EEC77A27EE277AC7EE267A9FED7A
:10C1D0000A7A77EEC77A9FED097A77EE877AC4ED0F
:10C1E000007A38BD9AC9CC449AC94C460E76D745D8
:10C1F0000000484300E0FF44000048423393884376
:10C200000368DB6B13B504462BB923685B6B3BB942
:10C21000FF23E38202E098470028F6D102B010BD68
:10C22000214601A898470028F2D0BDF80630013B0E
:10C230009BB2EEE710B5036804469B68984701235C
:10C240006374FF23A37410BD036810B504461B6814
:10C250009847236820469B689847E37C0133E37442
:10C2600010BD036810B504465B68984723682046F4
:10C270009B689847E37C013BE37410BDF0B585B043
:10C28000044618460D461646039341F00BFA226801
:10C29000E67328440021A07300915769039B32463E
:10C2A00029462046B84705B0F0BD30B5046885B0D2
:10C2B000E469089D34B10DB90DF10F050095A04753
:10C2C00005B030BD2046FBE703685B6A184703688A
:10C2D0009B6A184710B5037B04460BB1437B13B927
:10C2E0002046FFF7F4FF23682046DB68BDE81040D6
:10C2F000184703685B6C03B11847704738B50446AC
:10C300008B6801600D4698470B4B23610023237512
:10C310002B6B13B1204698472075084B93F838359E
:10C320001BB1237D23F0010323750023E382204604
:10C33000BDE8384064E700BF0001FF00E836002098
:10C3400003681B6803B11847704703685B6803B153
:10C350001847704703681B6A03B1184770470368A2
:10C360005B6A03B11847704730B40468A46A14B11B
:10C37000A44630BC604730BC704730B40468E46AFF
:10C3800014B1A44630BC604730BC704703685B6C96
:10C3900003B11847704703689B6C03B11847704797
:10C3A00003689B6F03B1184770470368D3F8803068
:10C3B00003B1184770470368D3F8843003B11847B6
:10C3C00070470368D3F8883003B11847704721B12C
:10C3D0000B68D3F88C3003B118470020704738B58C
:10C3E000094B052404FB0030A0F1A00515F8010B52
:10C3F000013C40F05CFA14F0FF04F7D12046BDE8A0
:10C40000384040F054BA00BF9021050810B5441ED2
:10C4100014F8010F00B910BDFFF7E1FFF8E7FCF7D2
:10C4200003BDFCF701BDFCF7FFBCFCF7FDBCFCF74E
:10C43000FBBCFCF7F9BC28B10368828809B11A83F8
:10C4400070475A83704710B1036882885A837047D7
:10C4500010B504464069FFF7F6FF012004F0BDFA6D
:10C460006069FCF75FFABDE810400A2004F0B5BA35
:10C470008379806BDB0748BF81F0010109B1FCF7CC
:10C4800051BAE0E737B50C46054608B30368114AD0
:10C4900003F13F4303F57E0302EB932393F8C303B9
:10C4A0003EF018FCAB88009304F003038DF80430D1
:10C4B000C4F381038DF805302868C4F3001369467E
:10C4C000C4F341148DF806308DF80740FBF775FF73
:10C4D00003B030BD70200508F7B50C46154606467A
:10C4E000A8B303681B4A03F13F4303F57E0302EB45
:10C4F00093230F2793F8C3033EF0ECFB3068B68814
:10C500000096B6FA86F3C3F11F0303F00702C3F3E4
:10C51000CC0300EB83039200196A974021EA0701DC
:10C520001962196A95400D431D6204F003038DF8EA
:10C530000430C4F381038DF805306946C4F3001359
:10C5400064098DF806308DF80740FBF736FF03B01D
:10C55000F0BD00BF7020050810B5837913F0010FFE
:10C5600003F020020446C36B12D05B68002A1A7ADB
:10C5700014BF02214221606BFFF7AEFF0121E06B87
:10C5800084F86012A4F85C12BDE81040FBF712BEFC
:10C590005B68002A18BF02211A7A08BF2221EAE745
:10C5A000036C806B1BB15B6801211A7A94E701214F
:10C5B00068E770B583681C6863799A0731D594F889
:10C5C0006152D5B194F962329BB1B4F864124B0850
:10C5D000A4F86432204601F00101FFF749FF94F806
:10C5E0006232A279013B5BB2500684F8623218D500
:10C5F000BBB9002384F8613213E0A36A626A94F83D
:10C6000060129A4226D161B9A3791B0709D5236C20
:10C61000A06BDBB15B681A7AFFF75EFF2046FFF77D
:10C620009BFF6379D90740F1818094F85C32002B3D
:10C630007CD194F85D320133DBB2092B84F85D3292
:10C6400035D12046BDE87040FCF771B91946FFF7B7
:10C6500019FFE3E75A1CA069A262C35C26695B006C
:10C6600043F40073A4F864320A23B24234BF104684
:10C67000284684F862320123A06284F8613291B1C5
:10C68000A3791E070FD5E06B2946FBF793FDE36BFB
:10C69000606B5B6829461A7AFFF71EFF84F86052C8
:10C6A0002046FFF77DFFA3795D068BD4B9E70A2BFF
:10C6B0003CD194F85F322BB9B4F8663243F00103F1
:10C6C000A4F86632B4F86602820501D4C3071AD40E
:10C6D000B4F86A320133A4F86A3294F85F52012345
:10C6E0009D42A4F85C3221D1A179E06B002384F84B
:10C6F0005F3201F001013EF0EBF9E06B2946BDE845
:10C700007040FBF757BDE36AC0F3470013B1216BDC
:10C710009847E2E7E3696269D054E369E26801336C
:10C72000B3FBF2F102FB1133E361D6E770BD38B51C
:10C730000409013C032C00F00F021AD80E4D05EB42
:10C740004403B3F8CA1341FA02F313F001000FD007
:10C75000012303FA02F2013A02EA01002C4441F0FB
:10C76000FBFD94F8D2331844044B0C2202FB00303A
:10C7700038BD0020FCE700BF70200508243C0020E5
:10C780002DE9F043654F07EBC00985B005464FEA38
:10C79000C00899F8240FFFF7CAFF064699F8250F3D
:10C7A000FFF7C5FF044699F8260F3EF093FA6B1C7D
:10C7B000DBB21EB140F60B12F28033721CB140F6B0
:10C7C0000B22E280237204223A213046FFF784FED6
:10C7D000204604223A21FFF77FFE07EB0803D3F837
:10C7E000204F4F4B9C4263D103F5F2331A6A42F457
:10C7F00000121A621A6A22F400121A62474497F869
:10C80000273F022B6ED0032B6ED0464E464A012B9B
:10C8100008BF1646A78827F03F0768463F04FDF784
:10C82000A3F93F0C029A414BB2FBF3F398B20743D2
:10C83000A780218821F001010904090C21803C49CD
:10C840008E4253D13B4BB2FBF3F2013092B2042A39
:10C8500080B238BF04222084A28323889BB243F095
:10C8600001032380238823F4816323F002031B0444
:10C870001B0C43F4806323804FF48043238123887F
:10C8800023F080031B041B0C238023889BB243F0FE
:10C8900001032380284B03EB4513012283F88927EA
:10C8A000002283F8885783F88A2705B0BDE8F08313
:10C8B000224B9C4209D103F5F0331A6A42F48002FC
:10C8C0001A621A6A22F4800297E71D4B9C4295D1A6
:10C8D00003F5EE331A6A42F400021A621A6A22F46D
:10C8E00000028AE7124E95E7124E93E706EB4606E2
:10C8F000B2FBF6F291B2C2F30B020AB941F00101A8
:10C9000041F400424FF496714B434FF47A71B3FBFC
:10C91000F1F301339BB223849EE700BF00000020A7
:10C9200000540040801A060000350C0040420F0001
:10C93000A0860100400D0300E836002000580040AA
:10C94000005C00402DE9F047BB4E440106EB401966
:10C9500004F004F899F98827B84B8846D10003EB16
:10C96000C2020746D2F8205F99F88A27013A142AB2
:10C9700000F28580DFE812F07B008B00A400BD0090
:10C98000CB00D500E100FA00080111011F0171017F
:10C990009001BA012B023F0251025D027102940222
:10C9A00015005F184FF0090A97F8240FFFF7BFFE34
:10C9B000054697F8250FFFF7BAFEB6F8E8370133BA
:10C9C0009BB207462846A6F8E837FBF7ABFF384688
:10C9D000FBF7A8FF11212846FFF754FD1121384627
:10C9E000FFF750FD4FF0650803E00520002103F03C
:10C9F000E3FF25B12B68AA881B691A4202D1B8F15E
:10CA00000108F2D12846FFF71EFD0021052003F0A2
:10CA1000D3FF2846FBF786FF0021052003F0CCFF5B
:10CA2000BAF1010ADED12846FFF70DFD00210520ED
:10CA300003F0C2FF3846FFF706FD0021052003F092
:10CA4000BBFF2846FBF76EFF0021052003F0B4FF73
:10CA50003846FBF767FF331993F98807431C01D069
:10CA6000FFF78EFE3319002283F88A2707E02B8810
:10CA700013F4007340F0EC81321982F88A373319CD
:10CA800093F88A37002B7FF463AFBDE8F0872B88DB
:10CA900023F400631B041B0C2B802B889BB243F4F4
:10CAA00080632B802B889BB243F480732B803319D7
:10CAB000032283F88A27624B1A191F51C2F8048097
:10CAC00060492846FBF7BBFC002800F0C181331900
:10CAD00093F89A275AB993F89B27FF2A04D193F821
:10CAE00098270AB10A22BFE733190422BCE70F22B4
:10CAF000BAE7321992F8993703F0FE032B82052327
:10CB000082F88A374E4B1A191F51C2F804804E49D9
:10CB10002846FBF794FC002800F092813319062286
:10CB2000A2E7331993F89B272A82072283F88A27E2
:10CB3000434B1A191F51C2F8048044492846FBF799
:10CB40007EFC002800F07C813219D2F89C375BB95A
:10CB50002B889BB243F400732B80394B19191F515A
:10CB6000C1F80480012388E7082386E72B889BB25D
:10CB700043F480732B803319092283F88A27304BC2
:10CB80001A191F51C2F804802E492846FBF757FC9A
:10CB9000002800F05D813319A4E7321992F8993723
:10CBA00043F001032B820B2382F88A37244B1A1996
:10CBB0001F51C2F8048026492846FBF740FC002894
:10CBC00000F03E813219D2F89C37012B1CD12B8802
:10CBD00023F480631B041B0C2B80EFF311811023C3
:10CBE00083F312882B8B2B889BB243F400732B802A
:10CBF000CBB283F311880C2382F88A37104B1A19B1
:10CC00001F51C2F804803AE7022B23D12B889BB234
:10CC100043F400632B80EFF31181102383F3128818
:10CC20002B8B2B8823F480631B041B0C2B80CBB233
:10CC300083F311880D23DFE7E83600200000002091
:10CC4000783E0020010003008200070084000700F6
:10CC5000020003002B8B0E23CEE799492846FBF7F1
:10CC6000F9FB984A002800F0A2803319D3F8A017E6
:10CC7000481CC3F8A007288A0870D3F89C1701390C
:10CC80001019C3F89C170121175183F8A417C0F895
:10CC9000048083F88A17F2E68B492846FBF7DAFB13
:10CCA000884A002800F08380EFF31181102383F37A
:10CCB00012882B889BB243F400732B803319C9B2BE
:10CCC000D3F8A00700F1010CC3F8A0C7B5F810C055
:10CCD00080F800C081F31188D3F8A017481CC3F86E
:10CCE000A007288A08706FF00101C9E77649284635
:10CCF000FBF7B0FB734A002859D03319D3F89C17BF
:10CD0000032930D1298821F480610904090C298084
:10CD1000EFF31180102181F31288D3F8A01701F1ED
:10CD2000010CC3F8A0C7B5F810C081F800C029886D
:10CD300089B241F400712980C1B281F31188D3F81E
:10CD4000A017481CC3F8A007288A0870D3F89C17BE
:10CD50000239C3F89C170C2183F88A17131917514D
:10CD6000C3F804808BE6022914D8298821F4806155
:10CD70000904090C2980298889B241F400712980AD
:10CD8000298A1751002183F8A4171119C1F80480CA
:10CD9000012269E6D3F8A017481CC3F8A007288A27
:10CDA0000870D3F89C170139C3F89C17D6E71319FC
:10CDB00010595968381A42F2107368EB010898420A
:10CDC00078F10003FFF45BAE331915224CE62B8893
:10CDD00023F4806332191B041B0C2B8092F89937C3
:10CDE00003F0FE032B82102382F88A37354B1A1981
:10CDF0001F51C2F8048035492846FBF720FBF8B1E3
:10CE0000331993F89B27FF2A04D193F898270AB186
:10CE1000132229E63319112226E6331993F89B27AA
:10CE20002A82122283F88A27264B1A191F51C2F828
:10CE3000048027492846FBF702FB08B13319E7E7CE
:10CE400024492846FBF706FB10B1331914220BE6E0
:10CE50001C4B1A1918595168ACE733191949D3F802
:10CE60009C2782B1D3F8A007013A10F801CBA5F8AE
:10CE700010C0C3F89C270A190F51C3F8A007C2F8C5
:10CE800004801222F0E52A8892B242F400722A80CD
:10CE90000A190F51C2F80480012283F8A427E3E5A0
:10CEA0002B889BB243F400732B804FF6FF33AB8289
:10CEB000044B1A191F51C2F80480331968E700BFE8
:10CEC00040000010783E002004000010820007009F
:10CED000840007000004001038B5114C04EB401426
:10CEE00094F88957D5B1C4F89C37049BC4F8A0378F
:10CEF000002384F8A4370223490084F89B2784F890
:10CF00008A3701229DF8143084F8991784F89A27FB
:10CF100084F89837FFF716FD94F8A457284638BDD3
:10CF2000E8360020F7B50779012F16460BD0022FFF
:10CF300016D18468E40758BF41F0800103B0BDE812
:10CF4000F040FCF7F5BB826802F00102CDE9006217
:10CF50000A46417C90F91000FFF7BEFF03B0F0BD18
:10CF60000020FBE77FB50379012B0D460BD0022B88
:10CF70001AD18368DB0758BF01F07F0104B0BDE818
:10CF80007040FCF7B0BB81688DF80F2001F0010103
:10CF90000DF10F0200920191417C90F910002A4698
:10CFA000FFF79AFF04B070BD0020FBE70068F02295
:10CFB000FF21D7E7CA4341EA02120068D2B2D22168
:10CFC000D0E70068B422FF21CCE70A460068A5211B
:10CFD000C8E75521F9E700689622FF21C2E70A4613
:10CFE00000688721BEE7C90101F08002006878214E
:10CFF000B8E72DE9F04304687E2189B0B6220746E0
:10D000002046FFF7AFFF642003F0E7FC21790229F7
:10D0100003D194F910003FF04BFD2046FFF718FABA
:10D0200000227C212046FFF79DFF012003F0D5FC64
:10D03000002259212046FFF795FF012003F0CDFC87
:10D040005E2394F910208DF81F305F4B142101FBF3
:10D0500002335D6EA3689A0702D460693FF06AFDEF
:10D0600001230DF11F020021284640F015F94FF46D
:10D07000A473564A0021284640F00EF9A3689B0786
:10D0800002D42046FCF724FB0A2003F0A6FC012270
:10D0900059212046FFF766FF012003F09EFC8C22F9
:10D0A00040212046FFF75EFF012003F096FC02229C
:10D0B00041212046FFF756FF012003F08EFCFA6A5B
:10D0C0004349B1FBF2FE434A97F829301146154611
:10D0D0004FF0000C012691F80690A3EB0908A3EB92
:10D0E0000C00B8F1000FB8BFC8F100080028B8BFA5
:10D0F0004042804501F1060106F10106BCBF4FFA2E
:10D1000089FC0D46092EE6D11FFA8EFE1178614585
:10D110000ED168885188AEEB0000AEEB010100280B
:10D12000B8BF40420029B8BF49428842C8BF15462F
:10D13000013E02F10602E9D16A7904922A7903924A
:10D140006A8802922A780321CDE900E20120224A6E
:10D15000FEF744F96A881E4BB3FBF2F37B632A792E
:10D16000422142F0C0022046FFF7FCFE012003F0FE
:10D1700034FC082243212046FFF7F4FE012003F08F
:10D180002CFC042258212046FFF7ECFE012003F07E
:10D1900024FC0A2253212046FFF7E4FE012003F07D
:10D1A0001CFC32467C212046FFF7DCFE012003F008
:10D1B00014FC06227D212046FFF7D4FE012009B091
:10D1C000BDE8F04303F009BC000000207C24050802
:10D1D00040420F004624050815B0050810B501228D
:10D1E00004460B210068FFF7BDFE20B120681D2218
:10D1F0000921FFF7B7FE00F0010010BD034B024606
:10D20000D3F8EC0708B18021ACE67047E83600207F
:10D2100010B5B020FFF7F2FF4020FFF7EFFF00202E
:10D22000FFF7ECFF1020FFF7E9FF4FF48064013CAB
:10D230000020A4B23FF03BFB002CF8D110BD5039C8
:10D2400010B50446C8B2FFF7D9FF04EB4400400014
:10D2500004EB440400F00E00FFF7D0FFC4F3C3005A
:10D260001030BDE81040C9E708B55038C0B2FFF72C
:10D27000C5FF0020FFF7C2FFBDE808401020BDE752
:10D2800038B5114C04EB401494F88957CDB1C4F86B
:10D290009C37049BC4F8A0370223490084F89B27DD
:10D2A00084F88A3700229DF8143084F8991784F89E
:10D2B0009A2784F8A42784F89837FFF743FB94F85B
:10D2C000A457284638BD00BFE8360020F7B50779D7
:10D2D000012F16460BD0022F16D18468E40758BFE1
:10D2E00041F0800103B0BDE8F040FCF749BA826824
:10D2F00002F00102CDE900620A46417C90F910007B
:10D30000FFF7BEFF03B0F0BD0020FBE738B50446D1
:10D310000068FEF710FF0D230546C21C0C21206893
:10D32000FFF7D4FFA87028B16B89A383AB89E3838F
:10D33000EB89238438BD13B503230C46006801AA8A
:10D340002221FFF7C3FF30B1BDF9053003EB8303A2
:10D350001B12E633238002B010BD07B5012301AADA
:10D36000FF210068FFF7B2FF03B05DF804FBF7B5DB
:10D3700005460068FEF7DFFE002303700423044621
:10D380000DEB03022868FF21FFF7A0FF10B9002072
:10D3900003B0F0BD286804236A46FF21FFF796FF1B
:10D3A0000028F4D09DF804108A09023A012AEED927
:10D3B0009DF800209DF805309DF8015003EB0123F6
:10D3C00005EB0225C3F30D03C5F30D055A1B002A17
:10D3D000B8BF5242FF2ADADC9DF806109DF80720FC
:10D3E0009DF8027002EB01229DF8031001EB07216A
:10D3F00049115611C1EB5212002AB8BF5242FF2AFE
:10D40000C5DC01222B443144134111412270C4F880
:10D410000530C4F80110BBE773B50379012B16463C
:10D420000BD0022B16D18368DB0758BF41F0800177
:10D4300002B0BDE87040FCF7CBB9826802F001028F
:10D44000CDE900620A46417C90F91000FFF718FF11
:10D4500002B070BD0020FBE738B5044615460068F1
:10D460000A46E121FFF77EFD28B120682A46FF2108
:10D47000BDE83840D0E738BD0A46E121ECE70A466E
:10D48000C321E9E738B5021D0D46F0210446FFF738
:10D49000E3FF08B123792B7038BDF8B504460E467A
:10D4A0001546071D20683A46FF21FFF7B5FF30B14A
:10D4B00016B12379DB07F5D40DB123792B70F8BDB4
:10D4C00000220121E9E710B50446FFF77AFD18B103
:10D4D0002046BDE81040F3E710BD10B50446FFF745
:10D4E00074FD18B12046BDE81040E9E710BD70B5E5
:10D4F00006460C468D18AC4201D1012006E014F816
:10D50000011B3046FFF7E9FF0028F4D170BDCC21A4
:10D51000E3E738B504460D46FFF75DFD40B1204610
:10D52000FFF7CEFF20B129462046BDE83840A3E7EB
:10D53000002038BD70B506460C468D18AC4201D1AE
:10D54000012006E021463046FFF7E3FF01340028C2
:10D55000F4D170BD38B505461446FFF740FD2846A6
:10D56000FFF7AEFF20B11CB12B79C3F3401323703A
:10D5700038BD10B50446FFF7A6FF38B12046FFF7C7
:10D58000C6FF18B12046BDE8104099E7002010BD45
:10D5900073B50546CDE90023FFF795FFA8B12846EE
:10D5A000FFF717FD88B12846FFF78AFF68B16E467E
:10D5B000082416F8011B2846FFF78FFF28B1013C0D
:10D5C00014F0FF04F5D102B070BD0020FBE7C901E3
:10D5D00038B501F0800104461546FFF704FD08B98F
:10D5E000002038BD002201212046FFF756FF002809
:10D5F000F6D023795B092B70F3E72DE9F04F87B064
:10D60000CDE902120025804604930195039B404614
:10D6100003EBC50AFFF757FFEC00024600286DD068
:10D62000002201214046FFF738FF0246002865D05E
:10D6300098F80430990761D5F0214046FFF74DFF77
:10D64000024600285AD0039BA4F108024FF0000BB9
:10D65000012713443C465E460593029B002B55D0A0
:10D66000082C53D804F1FF3943FA09F909F00109EC
:10D6700049464046FFF7B7FC024600283ED000224C
:10D6800001214046FFF709FF0246002836D098F8EE
:10D69000041001F0600CBCF1600F4FEAD11016D0FD
:10D6A000029B1BB1082C01D8814527D1002841D00D
:10D6B0001AF8061039437F00013417F0FF070AF803
:10D6C0000610E4B2C9D10136F6B2082E1CD1402CA6
:10D6D00010D9072150460592FEF794FC9AF80710DE
:10D6E000059A814206D10135EDB2BBF1000F05D09C
:10D6F000CDF804B0049B1B78AB4287D8049B10463E
:10D700001D7007B0BDE8F08F0127A6E75DB1019B52
:10D71000A34208D9059B9A5D174214BF4FF0010937
:10D720004FF00009A4E7019B1B1BD3F1000949EB53
:10D7300003099DE7880940EA511111F0010F1AF819
:10D74000061008BFA34621EA0701B4E710B5021D81
:10D750000446FF210068FFF75FFE18B12079C0433F
:10D7600000F0010010BDF7B515460DF107021C468B
:10D7700006460F46FFF750FE9DF8073005EA030204
:10D78000A24209D023EA050222433946304603B0BB
:10D79000BDE8F040FFF7E6BB03B0F0BD30B50923AC
:10D7A00087B01A460C210446FFF7DDFF282003F05E
:10D7B00014F901AA08212046FFF72EFE9DF9042046
:10D7C0009DF80430002A03DB0025284607B030BD51
:10D7D0005D06F9D5122301AA10212046FFF776FD38
:10D7E00005460028F0D09DF805209DF80430110969
:10D7F00041EA0311DB09584B18BFA1F58051A3F88A
:10D80000401812029DF8061002F4706211431005D0
:10D810009DF808209DF8070048BFA1F58051A3F8A6
:10D82000421812019DF8091042EA003242EA111032
:10D830001203BDF80A204FEA014152BA01F47021E7
:10D8400092B248BFA0F580100A43090348BFA2F571
:10D850008012C3F84828BDF80C20C3F8440852BA17
:10D8600091B21204BDF80E2048BFA1F5803152BA22
:10D870001004A3F84C1891B2BDF8102048BFA1F5D0
:10D88000803152BAA3F84E1891B21204BDF812209A
:10D8900048BFA1F5803152BA1004A3F8501891B2D4
:10D8A000BDF8142048BFA1F5803152BAA3F8521830
:10D8B00091B2120448BFA1F58031A3F85418204654
:10D8C000002307220821FFF74EFFA5220E21204644
:10D8D000FFF748FB96220F212046FFF743FB022269
:10D8E00062212046FFF73EFB00220E212046FFF773
:10D8F00039FB00220F212046FFF734FB02230722C9
