:020000040800F2
:1000000000000220C5480508ED95000875F60108B6
:10001000754905087549050875490508000000007F
:1000200000000000000000000000000029B00008EF
:100030002BB00008000000002DB00008190E0108C8
:100040007549050875490508754905087549050884
:100050007549050875490508754905087549050874
:10006000754905087549050875490508F99C000892
:100070000D9D0008219D0008359D0008499D000840
:100080005D9D0008719D000875490508000000008D
:100090000000000000000000000000007549050895
:1000A000319C0008599C0008819C00081D9C000898
:1000B000A99C0008BD9C0008D19C00087549050852
:1000C0007549050875490508754905087549050804
:1000D0007549050879980008859800080000000017
:1000E00075490508754905082FB000080000000093
:1000F000000000000000000000000000859D0008D6
:100100000000000075490508E59C000875490508D0
:1001100000000000000000000000000000000000DF
:10012000999D0008AD9D0008C19D0008D59D00085F
:10013000E99D000800000000000000000000000031
:1001400000000000000000000000000081B0000876
:10015000FD9D0008119E0008259E000875490508B0
:1001600075490508754905080000000000000000F9
:10017000000000000000000000000000000000007F
:1001800000000000754905080000000000000000A4
:080190007549050875490508D1
:080198005844050001000000BD
:1001A00028DB00200207000001022C0048DB0020B1
:1001B000011000000000760068DB00200131000023
:1001C00000003C0088DB002001340000000020001B
:0C01D000A8DB0020013500000000290021
:10800000D0E907239A422FBFD01AC0688018C01A3F
:108010007047D0E9092300699A4238BF1218D31A71
:108020000138C01A7047D0E90902131A5842584162
:108030007047036A41690246C85CD16801338B42CC
:1080400028BF002313627047436A8269D154436A90
:1080500002690133934228BF0023426B4362D36815
:1080600043F08003D3607047436B188810F0100012
:108070001EBF1A889B8801207047436B99891A8814
:10808000890610B592B2044607D5900605D5E26A76
:1080900022B39888216B80B29047636B99891A88C4
:1080A000090692B20FD510060DD5D4E909128A42FD
:1080B00022D0A169895C998021690132B2FBF1F07B
:1080C00001FB1022A262998A1A88C90592B204D5CE
:1080D000D20744BF4FF6F7721A8010BD9B88E26941
:1080E0006169DBB28B54E369E2680133B3FBF2F1FF
:1080F00002FB1133E361D0E7DA6822F08002DA6034
:10810000E1E7704770470E4BDA68D20310D4DA68A3
:10811000D1060FD4DA68D2050ED4DA6812F0E00F77
:108120000CD1DB6813F0020F14BF08200920704740
:1081300001207047062070470220704707207047D3
:10814000003C024007B509238DF80730FFF7DBFF3D
:108150008DF807009DF80730012BF7D09DF8070038
:1081600003B05DF804FB838A028B9BB243EA0243AF
:1081700031EA03030CBF01200020704782B00023C6
:1081800001930093012300900193019B63B1009A36
:1081900021F07F4314320092009A12681A4214BFF1
:1081A0000120002002B07047009A1832F3E77047B0
:1081B000704701207047044BD3E90003984288BF01
:1081C00003F50063181A704730140020054AD2E9FD
:1081D00000318B42FDD0D1180133C3F30A03087A72
:1081E0001360704730140020044BD3F8080820B106
:1081F000D3F80808431F58425841704730140020F4
:10820000012380F84930704710B5D0F8E8350446AE
:108210001B699847032384F81231002010BD08B56C
:1082200090F8123180F81331042380F81231D0F81D
:10823000E835DB689847002008BD08B5D0F8E4357C
:10824000DB6903B19847002008BD08B5D0F8E435D4
:108250001B6A9847002008BD08B5D0F8E4355B6A72
:108260009847002008BD10B5074C2068FF2808D0AB
:108270000649D1F80C2801F5016100F035F8FF231B
:108280002360002010BD00BF00000020301400203B
:10829000432301480B80704704000020122301484B
:1082A0000B80704747000020042301480B80704773
:1082B00059000020704770477047704770477047FB
:1082C000044B00200522C3F80828C3F81808C3F897
:1082D0001C08704730140020024B0020C3F8080827
:1082E000704700BF30140020212838B50C461BD041
:1082F00022282BD0202815D1A1B1072A12D11A4D3E
:10830000D5F81C3813B10968002098472368C5F8D0
:108310002038237985F82438637985F82538A379BE
:1083200085F82638002038BD0029FBD0072AF9D16E
:108330000D4BD3F820280A6093F824280A7193F88B
:1083400025284A7193F826388B71EBE70029E9D08C
:10835000022AE7D1044BD3F81838002BE2D0098861
:1083600000209847DEE700BF30140020074AD2F80B
:108370002838D2F82C28934203F1FF338CBF002019
:1083800001209B1A03EBC020704700BF301400206F
:10839000ECE730B50F4CD4E900239A4286BF03F5D1
:1083A0000065AA1A9A1A0A44B2F5006F10D801445F
:1083B0000022814203D102B16360002030BDE21887
:1083C00010F8015B15720133C3F30A030122F0E7D1
:1083D0000220F3E730140020007970470079C0F3E1
:1083E0004010704700794009704700BF704700BFD8
:1083F000704700BFD0ED007AD0ED036A30EE677AA7
:10840000E6EE877AB0EE670AC0ED007A704700BFEB
:10841000D0ED017A80ED021AF5EE407AF1EE10FA15
:1084200004BF9FED0C7AC7EE207A31EE277A08BFA1
:10843000C0ED017AC1EE076AD0ED007AC0ED036AA3
:1084400030EE677AE6EE877AB0EE670AC0ED007A22
:10845000704700BF83F9223E9FED047AC7EE007A91
:1084600077EEA07A80EEA70A704700BF72C7D13DB1
:1084700000230360436080ED020A704790ED017AAB
:10848000D0ED036AD0ED027A30EE470AA6EE807A8C
:1084900090ED000A80ED017A37EE676AE6EE867AA3
:1084A00037EEC07AC0ED027AA6EE870A80ED000AA8
:1084B000704700BFD0ED056AD0ED017A90ED007AEB
:1084C00090ED066AD0ED025A90ED035A80ED050A50
:1084D00066EEA77AC0ED066AE7EE007A90ED077ABD
:1084E000E5EE867A90ED086AD0ED045A80ED087AC0
:1084F000E5EE477AE5EEC67AB0EE670AC0ED077A98
:10850000704700BFD0ED057A90ED006A90ED067AD5
:10851000D0ED035AE6EE007A90ED016AF0EE406A83
:10852000A6EE267AB0EE670AD0ED047A90ED026AE4
:1085300067EEC07AA5EEC07AE6EE267A80ED057A7F
:10854000C0ED067A704703685A1C026019707047C4
:1085500003690133012B03611CD0D0ED005AD0ED2B
:10856000026A07EE903A30EE656AF8EEE77A86EE38
:10857000277A77EE257AB0EE667A30EE670AC0ED9C
:10858000017AA6EE007AC0ED007A80ED037A80EDE4
:10859000027A7047002380ED010A80ED000A8360B3
:1085A000704703685A1C02601970704790F83420B5
:1085B000034602F0FF0012B1002283F83420704716
:1085C0004FF400638381704710B5064A04230021ED
:1085D00052F8044B844208BF42F8041C013BF7D117
:1085E00010BD00BF601C0020012070470A4B10B571
:1085F000D3F84008D3F84448001BFA2809D811B131
:10860000D3F84808086012B1D3F84C381360012041
:1086100000E0002010BD00BF301400202DE9F74F0E
:1086200004463C220021AD4851F015FEAC4A611EC3
:108630001046033411F8013F5D1E032D88BF00234F
:108640008C4240F8043BF5D1002352F8041B012969
:1086500000F0B1810133042BF7D10220FFF7B4FF02
:108660000320FFF7B1FF0420FFF7AEFF9B4C9D4EA8
:108670009D4F4FF00F084FF00009207B30B394F965
:108680000D5007F0F7F928B107238371002380F814
:1086900007800372132107F0C5F9227B002316F827
:1086A0003310914240F0DE8006EBC3035B68236128
:1086B000182303FB05756B6F23755A1C0723A375DD
:1086C00001236A67637585F87030994408F10108E1
:1086D0005FFA88F8B8F1130F04F10C04CDD1B9F1A9
:1086E000000F00F0BC80814CDFF83C924FF0000896
:1086F000237C002B00F0A980607948F057FB20799B
:1087000048F054FBA1680B6823F001030B600023C1
:108710000B604B608B60CB600B6121234B61744B12
:10872000994240F0A5803D2243F8082C0F68E36889
:108730002268606927F07E6727F45F3727F4707737
:108740003B4343F40B3343F480730B604B691425B4
:10875000454323F0070302F14C064B614D608E60E8
:10876000C1F80C900B68634D43F001030B6069681E
:10877000614B0B4043F440336B605368574D012805
:1087800023F04073D4BF0021012123F4807343EA16
:10879000012353609168594B0B4043F002039360EF
:1087A000D36A013823F47003C0B243EA00504FFA91
:1087B00088F10123D0629C4601914FF01F0E697D24
:1087C00061B395F90D100198814227D1297CAE7DC6
:1087D0005F1C0929FFB240F2C480A1F10A00D2F85F
:1087E0000CA000EB40004FF0070B0BFA00FB2AEA4D
:1087F0000B0A06FA00F040EA0A00D060062B00F2ED
:10880000BE80013B506B03EB83030EFA03F620EAB4
:10881000060001FA03F3034353633B460CF1010CDA
:10882000BCF1050F05F10C05C9D1936843F4007341
:108830009360936843F480739360936843F00103FB
:108840009360936843F08043936008F10108B8F1A6
:10885000030F04F1180409F1C8097FF449AF03B00C
:10886000BDE8F08F0133102B7FF419AF00231EE712
:10887000234B994204D14FF4746243F8202C55E7FE
:10888000204B994204D14FF4741243F8382C4DE731
:108890001D4B994204D14FF0746243F8502C45E7C8
:1088A0001A4B994203D11A4A43F8642C3EE7194BFC
:1088B000994203D1184A43F87C2C37E7174B994269
:1088C00003D1174A43F8942C30E7164B99422DD127
:1088D0004FF03D5243F8AC2C28E700BF801C00202D
:1088E000601C002090A3050800000020600000200C
:1088F0001060024000230140E030FCFFFDF7FFC0A4
:1089000028600240406002405860024070600240AF
:108910003D00002088600240400F0020A06002401F
:1089200000003D20B8600240BC1C0020274B99424B
:108930003FF4F9AE264B99429DD0264B9942A2D0E6
:10894000254B9942A7D0254B9942ACD0244B994254
:10895000B0D0244B9942B4D0234B99427FF4E6AE79
:10896000B6E7106901EB410A4FF0070B0BFA0AFB5F
:1089700020EA0B0006FA0AF6304310613EE70C2BA2
:108980000CD8073B106B03EB83030EFA03F620EAC7
:10899000060001FA03F3034313633EE70D3BD06A7D
:1089A00003EB83030EFA03F620EA060001FA03F351
:1089B0000343D36231E70D4B212283F85C2893F8FF
:1089C000E42A013283F8E42A47E600BF106402403B
:1089D00028640240406402405864024070640240CF
:1089E00088640240A0640240B86402403014002051
:1089F00038B514460D4600294BD0394B9FED396AE6
:108A0000D3F8E82A07EE902AF8EEE77AB3F9002BBC
:108A1000C7EE866A03F6043307EE902A33F9082C72
:108A200007EE102AF8EEE77A53F8102CB8EEC77A62
:108A3000A6EEA77A07EE902A53F8142CF8EEE77A00
:108A4000E6EE877A07EE102A33F9062CB8EEC70A4D
:108A5000A6EEA70A07EE902A33F90A2C07EE102A91
:108A6000F8EEE77A33F90C2CB8EEC77AA6EEA77ABF
:108A700007EE902AF8EEE77AE6EE877A93ED007A31
:108A8000B8EEC77AC7EE066AA6EEA70A4EF0BEF9A0
:108A900028601CB3124BDFED136AB3F9EC2A07EE22
:108AA000102AD3F8042BB3F9EE3A07EE902AF8EE29
:108AB000E77AB8EEC77A87EEA60A07EE903AF8EEA4
:108AC000E77AF6EE006A60EE277A9FED070AE7EE96
:108AD000267A27EE800A4EF099F92060012038BDF1
:108AE000301400200000F04A0000C8422DE9F3478E
:108AF000038A8689B6B205460C461E404FF00049EF
:108B000001F14C0701F1340816B902B0BDE8F08755
:108B1000B6FA86F329FA03F2D24391B229821640BB
:108B20001B3B002C40D0042BEED8DFE803F0393497
:108B30002E280300E368D5F82CA02BB19B681BB14D
:108B40001FFA8AF1201D9847636A33B19B6823B1ED
:108B50001FFA8AF104F11C009847E36B2BB19B6864
:108B60001BB11FFA8AF140469847636D002BCBD0AA
:108B70009B68002BC8D01FFA8AF1384603E0E368EF
:108B8000696B5B68201D9847BEE7636AA96B5B68E9
:108B900004F11C00F7E7E36BE96B5B684046F2E722
:108BA000636D296C5B68E8E7042B06D8DFE803F007
:108BB0000D0B09070300EB6A0193019BA4E76B6BA4
:108BC000FAE7AB6BF8E7EB6BF6E72B6CF4E790F8A2
:108BD0004820531C0244DBB280F8483082F834103D
:108BE00090F849200AB1132B01D94AF076BD70479D
:108BF000002280F849204AF070BD70B50F4E96F8FB
:108C0000083B002BFBD104464518AC4201D10020A3
:108C100070BDD6F82C3814F8011BF2180133C3F3D9
:108C20000A0382F8091BC6F82C38FFF79FFB0028BF
:108C3000EBD1012008F02BFAF7E700BF3014002039
:108C400038B50C461146FFF7CFFA48B1054D002A5A
:108C5000D5F8403804DD2046FFF7CFFFD5F840387F
:108C600038BD00BF30140020F0B590F8CF5590F813
:108C7000CE1590F8D12590F8D03590F8CC7590F8B5
:108C8000CDC501EB05218DB203EB022390F8D3157E
:108C900090F8D22585B002EB012207F01F060121D2
:108CA00092B29BB28E4204468DF808708DF809C0CE
:108CB000ADF80A50ADF80C30ADF80E20C0F84021E8
:108CC00080F8111100F00C81022E00F01D81002EA1
:108CD00040F09B81BCF1090F5ED8DFE81CF0B600C4
:108CE000F4005D00C8005D0057000A005D00A900A7
:108CF00076002E0A022EADF806200BD0032E25D0CA
:108D0000012E49D1D0F8EC351B68A0780DF1060191
:108D1000984709E0D0F8E43580789B6A0DF10601A8
:108D200098474670C4F8F005BDF80620002A47D0E1
:108D3000BDF80E30002B43D09A4228BF1A46ADF83A
:108D40000620014620464AF0CDFB39E0E9B205296C
:108D500022D8DFE801F003070B0F1317D0F8EC352A
:108D60005B68D2E7D0F8EC359B68CEE7D0F8EC35FD
:108D7000DB68CAE7D0F8EC351B69C6E7D0F8EC35FC
:108D80005B69C2E7D0F8EC359B69BEE71A4303D1B3
:108D900090F81231032B03D120464AF0F7FA0FE086
:108DA000016905F07F0680F814610B6865F30A120B
:108DB0001A430A604AF0AAFB2EB1022384F812314A
:108DC000002005B0F0BD0123F8E7E9B2904D01297C
:108DD00085F81112E0D890F81231022B0FD0032B36
:108DE000DAD1C1B9022380F81231D0F8E43580F825
:108DF00010115B68984720464AF088FBE0E700299D
:108E0000F9D00121032380F8101180F81231204697
:108E10004AF07EFAEFE790F810110129EBD0D0F874
:108E2000E4355B68984795F8111284F81011EEE765
:108E3000012AB1D190F81231022B04D0032BABD10F
:108E400000F588717EE773497CE790F81231023BA8
:108E5000012BA1D86E4B0022C3F81822D0F818219C
:108E600012B10222C3F818226B4902226AE7012DCF
:108E700008D1C0F81851D4F8E43502A99B682046FF
:108E80009847B8E7022D9BD1DAB2002A98D102693F
:108E90001B0A023B5268032B03D8DFE803F00C0ED9
:108EA0001012012363F30612594BC3F81C2201234D
:108EB00084F816319FE70223F4E70323F2E7042343
:108EC000F0E70523EEE790F81231023B012B3FF665
:108ED00063AF012D7FF474AF0023C0F81831CAE7E7
:108EE00090F81221032A7FF457AFDBB2012B3FF633
:108EF00053AFD0F8E43502A99B689847BDF80E300F
:108F0000002B7FF45DAF76E707F06007202FD9B222
:108F100005D1D0F8E43502A99B68984750E7BCF129
:108F2000010F31D0BCF1030F1ED0BCF1000F7FF454
:108F300047AF90F81221022A5AD0032A7FF42CAFAF
:108F400013F0800F4FF02802314B59D001F07F0110
:108F500002FB010191F81E21002A4FD00122C3F823
:108F600020222E490222EDE690F81231022B3FD04A
:108F7000032B7FF411AF002D7FF47DAF4A063FF441
:108F80007AAF4AF0D1F976E790F81221022A2FD071
:108F9000032A7FF401AF002D7FF412AF11F07F00A0
:108FA0003FF429AF5BB2002B4FF02802B5BF02FBA4
:108FB000004102FB014101F58E7101F55D71002256
:108FC000DB0F08708A704B7004EB8000C9786BB1BE
:108FD0008269136802396FF3555301298CBFC3F3BB
:108FE0000071012161F31C73136044E7426DF0E7E7
:108FF0004B063FF4E5AE4AF097F9E1E60022AEE712
:1090000002FB010191F87623A6E707F08001F2E761
:10901000282500203C27002040270020482700204A
:1090200010B5044671BB90F81131032B1BD1D0F859
:109030009023D0F87C339A4217D9C178012908BF10
:10904000D0F88013A2EB030204BFC918C0F8801344
:10905000934228BF1346C0F890239BB2D0F88023D8
:1090600000214AF003FB002010BDD0F8E4351B6955
:1090700023B190F81221032A00D1984720464AF0E4
:1090800045FAF0E7D0F8E4359B69002BEBD090F877
:109090001221032AE7D19847E5E770B50A7812F064
:1090A000600406460D462AD0202C2FD1CC884B7860
:1090B000FCB112060CD51F4922461846FFF714F9D9
:1090C000EA881C4930464AF00DFA0024204670BD5B
:1090D000194A1360194A0323C2F80C4880F8113169
:1090E000C0E9E444234602F5016200214AF0BEFAD9
:1090F000EBE7022211441846FFF7F6F8E6E74B7853
:109100000A2B08D00B2B0BD0062BDFD130464AF0B0
:109110003DF90224DAE70A4901224AF0E3F9D5E7EA
:109120008B781BB9074BC3F82442CFE74AF02EF9DE
:10913000CCE700BF401C00200000002030140020BD
:109140004C2700202825002010B5282303FB01010F
:10915000074AB1F88C1304461046FFF71AF9204667
:10916000034A402301214AF081FA002010BD00BFCC
:1091700050270020002310B51946044640224AF02B
:1091800013F940228021204600234AF00DF90123E3
:1091900084F81231D4F8E835A0785B68984700204D
:1091A00010BD38B540220446022381214AF0FCF864
:1091B00020460223402201214AF0F6F820460323EC
:1091C000082282214AF0F0F8084B0222002583F899
:1091D0004B2083F84C50FFF773F801212046044AD6
:1091E00040234AF043FA284638BD00BF0000002063
:1091F0005027002038B50122044640F20113A0F8A0
:109200004431012511464AF04FFA29462046A4F878
:109210009C5300224AF048FA4FF48173A4F86C3151
:1092200020462A4602214AF03FFAFFF755F800206F
:1092300038BD38B5254C94F8082B012A034633D1A4
:109240002348D0F868221AB984F8082B002038BDCA
:10925000402AD4F8281819D9403A01F14005C0F83D
:109260006822C4F8285840221A4810FA81F1C3E94C
:10927000541140F201100021C3E95621A3F8440122
:1092800003F5A27118464AF058F9DFE702EB010531
:10929000C4F828584FF00005C0F868520ABF0220F1
:1092A00092B284F8080BDFE7022ACFD1002540F202
:1092B0000112C0E95455C0E95655A0F8442100F503
:1092C000A2714AF03AF984F8085BBFE73014002035
:1092D00028250020391F002038B52A4CD4F86C32DC
:1092E0000F2B03F1010203D0C4F86C22002038BD1B
:1092F000254A0023C4F86C3292F8083B002BF5D1C4
:10930000D2F82818B1F5006F08BFC2F82838D2F893
:109310002818D2F82C38994203D1002382F8083B50
:10932000E4E78CBFC1F500635B1A402B1BD9403BBF
:1093300001F14005C4F86832012382F8083BC2F805
:1093400028584023114A12FA81F140F20112A0F884
:1093500044210022C0E95411C0E9563200F5A2713F
:109360004AF0EBF8C2E701EB0305C2F828584FF0CA
:109370000005C4F868520EBF022401249BB282F893
:10938000084BDFE72825002030140020391F00207B
:1093900008B5024847F00FFB014808BDEF2A060850
:1093A0009827002008B5024847F005FB014808BD92
:1093B000F62A06089827002008B5024847F0FBFA6D
:1093C000014808BDFB2A06089827002008B5024876
:1093D00047F0F1FA014808BD052B06089827002040
:1093E00008B5024847F0E7FA014808BD102B060807
:1093F00098270020024BD3F8700307F039BC00BF58
:10940000282500202DE9F041134E07460C46D6F8DA
:1094100078034FF00008AA21154686F8748307F0F8
:1094200027FCD6F87803414607F022FCD6F87803EB
:10943000394607F01DFC2946D6F8780307F018FCDA
:10944000254414F8011BD6F8780307F011FCAC4250
:10945000F7D1BDE8F08100BF2825002010B54B4CA6
:1094600094F87433C0B253B1494BD4F87C23D3F889
:1094700040389B1A0A2B84BF002384F8743394F875
:109480007433BBB9EE280AD1414AD2F84028C4F857
:109490007C23012284F8742384F8803310BDBB2818
:1094A000FCD13B4BD3F84038C4F87C33012384F81B
:1094B0007433F1E7012B10D194F8803323B984F889
:1094C000810384F87433E9E7012BE7D1002384F8A2
:1094D000983384F897030223F3E7022BDED194F844
:1094E0009833E218013382F8810394F89723DBB2B2
:1094F0009A4284F89833D1D1002384F8743394F8D5
:109500009933012B31D1B4F98323DFED226A224B49
:109510009FED226A07EE102AB8EEC77AC7EE267AC8
:10952000FDEEE77A17EE902A1A80B4F9852307EE4C
:10953000102AB8EEC77AC7EE067AFDEEE77A17EE84
:10954000902A5A80B4F9812307EE102AB8EEC77A20
:10955000C7EE267AFDEEE77A17EE902A9A8021F080
:109560009DFF002384F8993398E7022BF9D194F8F2
:109570008133094A03F003015172C3F3810111726F
:10958000C3F301119B09D1719371EAE728250020EB
:1095900030140020CDCCCC3FD0DB0020CDCCCCBFD4
:1095A0000E49D1F8883043F47003C1F888300C4B71
:1095B0001A68002042F001021A6098601A6822F0CE
:1095C000847222F480321A60064A5A601A6822F4C1
:1095D00080221A60D860044B8B60704700ED00E079
:1095E00000380240103000240000000870472DE9C8
:1095F000F041476906468846002F59D10368C3F3F6
:109600000D0515B3D8F800803568FEF79BFD0928D5
:1096100040F08780444C236923F44073236123691D
:1096200043F400732361236943F001032361C5F808
:109630000080FEF787FD2369092823F001032361D9
:109640006FD133680433336032E0384A934229D310
:1096500002F58042934224D302F5804293422AD3FA
:10966000334A934229D902F58032934227D902F531
:109670000032934225D902F50032934223D902F5F4
:109680000032934221D902F5003293421FD902F5EC
:10969000802293421DD9B3F1016F1CD3052007F03E
:1096A0000BFD0825FEF74EFD092816D04FF0FF37B9
:1096B0003846BDE8F0811025F4E71825F2E72025AB
:1096C000F0E72825EEE73025ECE73825EAE74025E6
:1096D000E8E74825E6E75825E4E7134C236923F437
:1096E00040732361236943F400732361236923F0EA
:1096F000F803236123691D4345F0020525612369B1
:1097000043F480332361FEF71DFD236923F0020338
:1097100023612369092823F0F80323613FF472AF22
:10972000C4E76FF00107C3E7003C024000400008B7
:10973000FFFF00080028ACBF00F16040064B4FEA75
:109740000111ACBF00F5614000F00F00C9B2B4BF19
:10975000195480F80013704714ED00E02DE9F0472C
:109760009846424B914603EB80020546D2F8804072
:10977000002C78D0A033636004F13E03A36104F5AC
:109780009F73E3614FF48073C4E90433236894F852
:109790003D00E160A36306F06DF9064694F84402CB
:1097A00094F83CA0271D08B147F000FB94F845024F
:1097B00008B147F0FBFAD4F840321BB12C4A116BC8
:1097C0000B43136318F0080F2CD00135EDB21EB116
:1097D0004FF4E163F380357218F0100F94F84622CD
:1097E0001AD00221304606F041F9D4F8481294F913
:1097F0004702FFF79FFF94F9473294F84722002B66
:1098000007DB02F01F0101228A405B09194941F878
:1098100023203846BDE8F08718F0200F14BF12212E
:109820003221DFE719F0020F0CD06B1CDBB21EB146
:109830004FF4A162F280337294F84622022130463E
:1098400006F014F919F0010FCFD0504606F012F9C6
:109850000135EDB218B14FF4C163C380057294F8BD
:1098600046220221BFE72746D3E700BF90A30508A1
:109870000038024000E100E00148FEF7FEBB00BFF7
:10988000AC0000200148FEF7F8BB00BFF802002042
:1098900070B5002828D04C684CB9426815685679D4
:1098A000AB8902229BB2B24023EA0203AB818A68F1
:1098B0003AB943681D68AB8923F001031B041B0CF4
:1098C000AB81816044B14468216864798D89022349
:1098D000A3402B439BB28B8132B143681A689389B2
:1098E0009BB243F00103938170BD0B4B30B51A4618
:1098F00000241D79854208D1DD68294203D0142057
:1099000000FB042030BD0029F9D00134072C03F1FD
:109910001403EED10020F5E760A4050838B503680C
:109920001B681C68254B03F5A86393ED007A07EECE
:10993000902AB8EE477AF8EE677A013987EE270A5F
:109940008DB2DFED1F7A30EE270A4DF05FFA1D4A27
:1099500023880138944280B29BB212D002F5806213
:1099600094420ED0B4F1804F0BD0A2F580329442D5
:1099700007D002F58062944203D002F580629442DF
:1099800002D123F070039BB20F4A944206D002F535
:10999000806294421CBF23F440739BB22380094B26
:1099A000E5629C42208503D003F580639C4201D18F
:1099B000002323860123A38238BD00BF00000020BE
:1099C0000AD7233C00000140001000402DE9F0437D
:1099D0004568A87910F0040300F002020BD00020C3
:1099E00017468046042406466B79032B49D8DFE8E6
:1099F00003F0094A89C990464FF480701F461C46FF
:109A00000126F1E72D682B8C23F001031B041B0CAE
:109A10002B84B5F820C0B5F804902B8B23F073038A
:109A20001B041B0C43F0600E2CF0020C6E4B4FEA33
:109A30000C4C4FEA1C4C48EA06069D421FFA89F975
:109A40004CEA060C03D003F580639D420AD14FF621
:109A5000F3730CEA03033B4329F4407943EA040C13
:109A600040EA0909A5F80490A5F818E06963A5F88B
:109A700020C02B8B23F008031B041B0C43F00803AE
:109A80002B83BDE8F0832D682B8C23F010031B047F
:109A90001B0C2B842A8CB5F804E0B5F818C0524B87
:109AA0002CF4E64C22F020024FEA0C4C12044FEA50
:109AB0001C4C120C48EA06069D421FFA8EFE4CF41E
:109AC000C04C42EA061203D003F580639D420BD1DD
:109AD00022F0800242EA071222F040022EF4406E89
:109AE00042EA04124EEA800EA5F804E0A5F818C078
:109AF000A9632A842B8B23F400631B041B0C43F4FF
:109B00000063BDE72D682B8C23F480731B041B0CB2
:109B10002B842A8CB5F804E0B5F81CC022F400733D
:109B20002CF0730C304A4FEA0C4C1B044FEA1C4CCF
:109B30001B0C48EA060695421FFA8EFE4CF0600C9C
:109B400043EA062303D002F5806295420BD123F449
:109B5000006343EA072323F480632EF4405E43EA64
:109B600004234EEA001EA5F804E0A5F81CC0E96332
:109B70002B84AB8B23F008031B041B0C43F008035E
:109B8000AB837EE72C68238C23F480531B041B0CCF
:109B90002384258CA288A38B25F400552D0448EA44
:109BA00006062D0C23F4E64345EA06350E4E1B044B
:109BB0001B0CB44292B243F4C04303D006F5806656
:109BC000B44203D122F4804242EA8012A280A383ED
:109BD00021642584A38B23F400631B041B0C43F432
:109BE0000063A3834DE700BF0000014010B5436848
:109BF0001A685879084B0344012093F85C41138C90
:109C0000A0409BB223EA00031384138CA1401943A4
:109C100089B2118410BD00BF90A30508024B034810
:109C2000D3F89C13FEF762BF2825002000000140F6
:109C300010B5064C0648D4F89C13FEF757FFD4F82D
:109C4000BC130448BDE81040FEF750BF2825002093
:109C5000000001400040014010B5064C0648D4F811
:109C60009C13FEF743FFD4F8C0130448BDE810402E
:109C7000FEF73CBF282500200000014000440140C1
:109C800010B5064C0648D4F89C13FEF72FFFD4F805
:109C9000C4130448BDE81040FEF728BF2825002063
:109CA0000000014000480140034B4FF08040D3F8D2
:109CB000A013FEF71BBF00BF28250020024B03485E
:109CC000D3F8A413FEF712BF28250020000400409B
:109CD000024B0348D3F8A813FEF708BF282500203D
:109CE00000080040024B0348D3F8AC13FEF7FEBE59
:109CF00028250020000C00400348D0F8503513B14F
:109D000000F2445018477047000000200348D0F884
:109D1000703513B100F264501847704700000020FE
:109D20000348D0F8903513B100F2845018477047BB
:109D3000000000200348D0F8B03513B100F2A45061
:109D400018477047000000200348D0F8D03513B101
:109D500000F2C45018477047000000200348D0F8B4
:109D6000F03513B100F2E4501847704700000020AE
:109D70000348D0F8103613B100F20460184770475A
:109D8000000000200348D0F8303613B100F2246000
:109D900018477047000000200348D0F8503613B130
:109DA00000F2446018477047000000200348D0F8D4
:109DB000703613B100F2646018477047000000204D
:109DC0000348D0F8903613B100F28460184770470A
:109DD000000000200348D0F8B03613B100F2A460B0
:109DE00018477047000000200348D0F8D03613B160
:109DF00000F2C46018477047000000200348D0F804
:109E0000F03613B100F2E4601847704700000020FC
:109E10000348D0F8103713B100F2047018477047A8
:109E2000000000200348D0F8303713B100F224704E
:109E300018477047000000202DE9F041002201265C
:109E400003250B6806FA02FC3CEA030331D10368E0
:109E5000540005FA04FE23EA0E0303600B79D0F8E0
:109E600000806FEA0E0703FA04FE013B4EEA080E7B
:109E7000012BC0F800E011D883681F4087604B7940
:109E80008768A3403B438360436823EA0C03436035
:109E90008B79476893409BB23B434360C36805FAA4
:109EA00004F723EA0703C360CB79C768A3403B43A9
:109EB000C3600132102AC4D1BDE8F081F7B51C207F
:109EC00005F0D8FD1121044605F0ACFD204605F053
:109ED000A4FDC82007F0DBF8204605F099FD1B2003
:109EE00005F0C8FD20B140F21113C38000230372B6
:109EF00024B140F21123E38000232372C74B502288
:109F000083F843230822C3F88820BFF34F8FBFF3A1
:109F10006F8FC34CC34D236B43F0010323634FF496
:109F2000C05040F20233CDE90003BF486946FFF755
:109F300083FF436A23F470434362436A43F420433C
:109F40004362436A23F470234362436A43F4202349
:109F50004362636C43F480436364636B43F0800348
:109F60006363B24BB24C01205861B24BC4F8B839AC
:109F700003F12C024833C4F8C039AF4BC4F8BC29F4
:109F8000C4E9F553022384F8DC334FF0A043C4F84E
:109F9000E03303F50063C4F8E43303F58073C4F8D9
:109FA000EC3303F50073C4F82834A3F5F073C4F858
:109FB000F03303F50073C4F82C34A3F5F073C4F840
:109FC000F43303F50073C4F83034A3F5F073C4F828
:109FD000F83303F50073C4F83434A3F5EC63C4F824
:109FE000E8334033C4F8A034C03384F8DF03C4F846
:109FF00064342033C4F868342033C4F86C3420331C
:10A00000C4F870342033C4F874342033C4F878347E
:10A010002033C4F87C342033C4F8803403F5226341
:10A02000C4F8A43403F58053C4F8A83403F580536E
:10A03000C4F8AC3403F58053C4F8B0344FF0502367
:10A04000C4F8B43403F58053C4F8B83403F580532E
:10A05000C4F8BC3403F58053C4F8C034A3F5E4431A
:10A060000022C4F8E03404F5757384F8E60484F83B
:10A07000E82419461546402681F81C21A1F8222122
:10A080000132042AC1E9496581F81D0181F81F5197
:10A09000C1F8305101F12801EED1002211464020D3
:10A0A00083F87423A3F87A230132042AC3E9DF0179
:10A0B00083F8751383F87713C3F8881303F1280323
:10A0C000EED14FF0A04300259A6822F001029A6079
:10A0D000DA6842F04002DA6046F0D8FF94F8DD33E7
:10A0E00094F8D7235B1B18BF01231B0143F0210306
:10A0F00063F31745D4F8E033012A9D6307D19A68CA
:10A1000022F03E0141F02A0161F307029A60DA6809
:10A11000C2F3076121F0600141F0400161F31F6269
:10A12000DA60D4F8E02400201060D4F8E423116849
:10A1300060F3CC21116094F8DF13012912D111686A
:10A1400041F00301116080225A6202F580029A6296
:10A1500002F14012C3F804214FF4A072C3F80821A1
:10A16000C3F80C21102046F073FF00230093009BDE
:10A1700043F010030093D4F8E033009A1A612F4A99
:10A1800019690091013A02D00099C906F8D4D4F8AF
:10A19000E41394F8D5532A4E00224FF0FF300A61A1
:10A1A00017464A614FF0FF0C8861CA61AA4251D339
:10A1B0000022244E17464FF0FF0C95425CD80A69E6
:10A1C00042F480720A6194F8D723012A04BF1E4822
:10A1D0000863002199614FF0FF306FF080415961B1
:10A1E0005860596119499961B2FA82F218495209C5
:10A1F00041EA021299690A439A619A6842F001029F
:10A200009A60D4F8BC391B689847044B502283F8F5
:10A21000432308229A6003B0F0BD00BF00E100E0D4
:10A22000003802400804010000000240003C0140E8
:10A23000282500204407002040004001410D030074
:10A24000142900205029002003018100000800800B
:10A2500008383C0056F8040BD0F800E0BEF1000FBF
:10A26000ACBF4FF0000E4FF0904EC0F800E001324E
:10A270000761C0F808C099E756F8040BD0F800E071
:10A28000BEF1000FACBF4FF0000E4FF0904EC0F883
:10A2900000E001320761C0F808C08EE7204A9368E9
:10A2A00003F00C03042B10B520D0082B20D01D4B3D
:10A2B0001B4C0360A3681C4AC3F30313134493F8B5
:10A2C000A8170368CB404360A168C1F38221114401
:10A2D00091F8A81723FA01F18160A168C1F3423116
:10A2E0000A4492F8A827D340C36010BD0F4BDFE7A4
:10A2F0005368516813F4800F01F03F01536814BF95
:10A300000A4A084AB2FBF1F1054A5268C2F3014217
:10A31000C3F3881301324B435200B3FBF2F3C7E798
:10A32000003802400024F4000000002000127A00EF
:10A33000F0B5446B8668A38923F400531B041B0CFF
:10A34000A3818279278A0546BFB2100312F0040F59
:10A350004FEA022100F400506A7927F4405740EA9E
:10A360000700208214BF4FF4805C4FF0000C12F005
:10A37000010F0CBF002304239207A28922F4B052DC
:10A3800001F4806122F00C0248BF43F0080341EA67
:10A390000C0112040B43120C1A43A281A38A23F46A
:10A3A00040731B041B0C85B0A3826846FFF776FF41
:10A3B000214B9C4203D003F580639C423AD1039B1E
:10A3C000A2891921170401FB03F34FF064014CBF6C
:10A3D0007600B600B3FBF6F3B3FBF1F001FB1033EC
:10A3E0000201A08900044BBFDB001B013233323372
:10A3F0004BBFB3FBF1F3B3FBF1F303F0070303F03F
:10A400000F0313439BB223816A6BAB7913F0080FE0
:10A41000938A0BBF23F008039BB21B0443F008038D
:10A4200008BF1B0C938293899BB243F40053938122
:10A4300005B0F0BD029BC3E7001001402DE9F843D1
:10A440001E46204B9DF820509DF824709842894666
:10A4500090462CD13B462A4631460020FFF77EF934
:10A4600004460020C4E90700C4E90900C4E90B98C8
:10A470006571A660A7712046FFF75AFFEA0707D566
:10A48000636B4FF6DF721A80DA6842F02002DA60FE
:10A49000626BAB0742BFD36843F08003D3609389FC
:10A4A0009BB243F4005393812046BDE8F883064BEA
:10A4B000984204D13B462A4631460120CEE700248B
:10A4C000F2E700BF001001400044004081602FE728
:10A4D00041712DE72DE9F043654F07EBC00985B0C9
:10A4E00005464FEAC00899F8BC0705F0C3FA0646CE
:10A4F00099F8BD0705F0BEFA044699F8BE0746F084
:10A5000055FC6B1CDBB21EB140F60E12F2803372AA
:10A510001CB140F60E22E280237204223A2130461A
:10A5200005F0A4FA204604223A2105F09FFA07EB31
:10A530000803D3F8B8474F4B9C4263D103F5F2337D
:10A540001A6A42F400121A621A6A22F400121A629B
:10A55000474497F8BF37022B6ED0032B6ED0464E80
:10A56000464A012B08BF1646A78827F03F076846D2
:10A570003F04FFF793FE3F0C029A414BB2FBF3F30B
:10A5800098B20743A780218821F001010904090C32
:10A5900021803C498E4253D13B4BB2FBF3F2013058
:10A5A00092B2042A80B238BF04222084A283238876
:10A5B0009BB243F001032380238823F4816323F0BB
:10A5C00002031B041B0C43F4806323804FF480437D
:10A5D0002381238823F080031B041B0C2380238802
:10A5E0009BB243F001032380284B03EB4513012268
:10A5F00083F8C929002283F8C85983F8CA2905B00D
:10A60000BDE8F083224B9C4209D103F5F0331A6A6E
:10A6100042F480021A621A6A22F4800297E71D4B04
:10A620009C4295D103F5EE331A6A42F400021A6295
:10A630001A6A22F400028AE7124E95E7124E93E757
:10A6400006EB4606B2FBF6F291B2C2F30B020AB970
:10A6500041F0010141F400424FF496714B434FF435
:10A660007A71B3FBF1F301339BB223849EE700BF01
:10A670000000002000540040801A060000350C0045
:10A6800040420F00A0860100400D03002825002055
:10A6900000580040005C00402DE9F047BB4E4401EB
:10A6A00006EB401906F0B4FC99F9C829B84B884666
:10A6B000D10003EBC2020746D2F8B85799F8CA296D
:10A6C000013A142A00F28580DFE812F07B008B004B
:10A6D000A400BD00CB00D500E100FA000801110183
:10A6E0001F0171019001BA012B023F0251025D026C
:10A6F0007102940215005F184FF0090A97F8BC0721
:10A7000005F0B8F9054697F8BD0705F0B3F9B6F8B6
:10A71000283A01339BB207462846A6F8283A05F0A6
:10A7200077F9384605F074F91121284605F07AF9D1
:10A730001121384605F076F94FF0650803E0052051
:10A74000002106F093FC25B12B68AA881B691A42E8
:10A7500002D1B8F10108F2D1284605F05EF90021D6
:10A76000052006F083FC284605F052F9052000215B
:10A7700006F07CFCBAF1010ADED1284605F04DF95D
:10A780000021052006F072FC384605F046F900214C
:10A79000052006F06BFC284605F03AF9052000215B
:10A7A00006F064FC384605F033F9331993F9C8090B
:10A7B000431C01D0FFF78EFE3319002283F8CA290B
:10A7C00007E02B8813F4007340F0EC81321982F813
:10A7D000CA39331993F8CA39002B7FF463AFBDE847
:10A7E000F0872B8823F400631B041B0C2B802B8821
:10A7F0009BB243F480632B802B889BB243F480731D
:10A800002B803319032283F8CA29624B1A191F516E
:10A81000C2F8048060492846FDF7A5FC002800F036
:10A82000C181331993F8DA295AB993F8DB29FF2A41
:10A8300004D193F8D8290AB10A22BFE733190422B8
:10A84000BCE70F22BAE7321992F8D93903F0FE03B8
:10A850002B82052382F8CA394E4B1A191F51C2F8B0
:10A8600004804E492846FDF77EFC002800F09281C6
:10A8700033190622A2E7331993F8DB292A8207222B
:10A8800083F8CA29434B1A191F51C2F8048044495E
:10A890002846FDF768FC002800F07C813219D2F8C8
:10A8A000DC395BB92B889BB243F400732B80394BA6
:10A8B00019191F51C1F80480012388E7082386E78E
:10A8C0002B889BB243F480732B803319092283F8C1
:10A8D000CA29304B1A191F51C2F804802E49284644
:10A8E000FDF741FC002800F05D813319A4E732191F
:10A8F00092F8D93943F001032B820B2382F8CA392D
:10A90000244B1A191F51C2F8048026492846FDF726
:10A910002AFC002800F03E813219D2F8DC39012BE4
:10A920001CD12B8823F480631B041B0C2B80EFF3BA
:10A930001181102383F312882B8B2B889BB243F455
:10A9400000732B80CBB283F311880C2382F8CA39B1
:10A95000104B1A191F51C2F804803AE7022B23D179
:10A960002B889BB243F400632B80EFF311811023FB
:10A9700083F312882B8B2B8823F480631B041B0C1E
:10A980002B80CBB283F311880D23DFE7282500202D
:10A9900000000020F82E00200100030082000700C4
:10A9A00084000700020003002B8B0E23CEE7994999
:10A9B0002846FDF7E3FB984A002800F0A2803319EF
:10A9C000D3F8E019481CC3F8E009288A0870D3F8C6
:10A9D000DC1901391019C3F8DC190121175183F86A
:10A9E000E419C0F8048083F8CA19F2E68B492846B6
:10A9F000FDF7C4FB884A002800F08380EFF3118143
:10AA0000102383F312882B889BB243F400732B80AE
:10AA10003319C9B2D3F8E00900F1010CC3F8E0C959
:10AA2000B5F810C080F800C081F31188D3F8E019A0
:10AA3000481CC3F8E009288A08706FF00101C9E7D3
:10AA400076492846FDF79AFB734A002859D03319F6
:10AA5000D3F8DC19032930D1298821F48061090455
:10AA6000090C2980EFF31180102181F31288D3F8AB
:10AA7000E01901F1010CC3F8E0C9B5F810C081F884
:10AA800000C0298889B241F400712980C1B281F3E4
:10AA90001188D3F8E019481CC3F8E009288A087027
:10AAA000D3F8DC190239C3F8DC190C2183F8CA1970
:10AAB00013191751C3F804808BE6022914D829888A
:10AAC00021F480610904090C2980298889B241F4A4
:10AAD00000712980298A1751002183F8E41911197E
:10AAE000C1F80480012269E6D3F8E019481CC3F8D4
:10AAF000E009288A0870D3F8DC190139C3F8DC1999
:10AB0000D6E7131910595968381A42F2107368EBD6
:10AB10000108984278F10003FFF45BAE3319152267
:10AB20004CE62B8823F4806332191B041B0C2B800A
:10AB300092F8D93903F0FE032B82102382F8CA3928
:10AB4000354B1A191F51C2F8048035492846FDF7C4
:10AB50000AFBF8B1331993F8DB29FF2A04D193F8E3
:10AB6000D8290AB1132229E63319112226E633190E
:10AB700093F8DB292A82122283F8CA29264B1A1954
:10AB80001F51C2F8048027492846FDF7ECFA08B1A6
:10AB90003319E7E724492846FDF7F0FA10B13319D5
:10ABA00014220BE61C4B1A1918595168ACE73319DB
:10ABB0001949D3F8DC2982B1D3F8E009013A10F839
:10ABC00001CBA5F810C0C3F8DC290A190F51C3F84E
:10ABD000E009C2F804801222F0E52A8892B242F419
:10ABE00000722A800A190F51C2F80480012283F8EA
:10ABF000E429E3E52B889BB243F400732B804FF6E6
:10AC0000FF33AB82044B1A191F51C2F80480331969
:10AC100068E700BF40000010F82E0020040000107C
:10AC200082000700840007000004001038B5114CB2
:10AC300004EB401494F8C959D5B1C4F8DC39049B2D
:10AC4000C4F8E039002384F8E4390223490084F889
:10AC5000DB2984F8CA3901229DF8143084F8D91907
:10AC600084F8DA2984F8D839FFF716FD94F8E45906
:10AC7000284638BD2825002038B5114C04EB401477
:10AC800094F8C959CDB1C4F8DC39049BC4F8E03953
:10AC90000223490084F8DB2984F8CA3900229DF890
:10ACA000143084F8D91984F8DA2984F8E42984F86E
:10ACB000D839FFF7F1FC94F8E459284638BD00BFB5
:10ACC00028250020F0B587B0002300930193744B32
:10ACD0001A6842F480321A601A6802F40032019253
:10ACE000009A01320092019A1AB9009AB2F5A04F67
:10ACF000F2D11B6813F4003318BF01230193019BA9
:10AD0000012B40F0B180664B66491A6C42F08052CC
:10AD10001A640A6842F440420A609A689A609A6823
:10AD20009A609A6842F480529A605F4A5A601A6840
:10AD300042F080721A601A689201FCD55B4A40F2B8
:10AD4000027111609A6822F003029A609A6842F0D8
:10AD500002029A60524A936803F00C03082BFAD15E
:10AD60009368534C03F00C03042B7FD0082B7FD047
:10AD7000504BC4F840354A4B4F4D9A684F48C2F388
:10AD800003122244002692F8D017D4F84025CA4076
:10AD9000C4F840254A4AEA605A6F4A4AAA605A6B88
:10ADA00022F080025A635A6F42F080725A67196B20
:10ADB000454A0A431A635A6B5A631A6C42F0875227
:10ADC00042F4F61242F41F6242F00F021A64596C08
:10ADD0003E4A0A435A6402A948F2FF73CDE902369B
:10ADE0004FF6FF77FFF728F800F580600297FFF72E
:10ADF00023F800F580600297FFF71EF800F58060E9
:10AE0000FFF71AF800F58060FFF716F80846FFF71D
:10AE100045FA029B2E4AB3FBF2F32E4AC2F82C3AB3
:10AE2000D5F8FC302C4A43F08073C5F8FC302B4B2E
:10AE3000C3F8B02F5E601A6842F001021A60D4F8BD
:10AE400040354FF47A72B3FBF2F3013BB3F1807FEC
:10AE500008D24FF0E0225361F02385F82330072316
:10AE60009661136107B0F0BD00BFFDE71C4B80E7A2
:10AE70005368516813F4800F01F03F01536814BF09
:10AE8000174A0C4AB2FBF1F1054A5268C2F301427B
:10AE9000C3F3881301324B435200B3FBF2F368E76C
:10AEA000003802400070004008304004003C02407E
:10AEB000000000200024F40000ED00E0000002404B
:10AEC0000003FA05000000081F90670033570700D1
:10AED00040420F002825002055CEACC5001000E0F0
:10AEE00000127A0082B000230193054B0193019B6D
:10AEF00003EB80000190019B196002B0704700BF16
:10AF000050280040436D064A1A61C278012A06D1D2
:10AF100000F2CC5058611A684FF080221A607047D6
:10AF20001800086038B5044600296FD190F8113137
:10AF3000022B2AD1D0F83821D0F824118A4232D9F4
:10AF4000C378012B04BFD0F828315B18A2EB0102B3
:10AF500008BFC0F828314FF48071D0F82831C0F80C
:10AF60003821002592B2A0F81C11C0F82C31C0F88D
:10AF70003451C0F8302100F58E7148F061FA2B464B
:10AF80002A462946204648F071FB94F81631012BD9
:10AF900007D1244A2369D2F81C225A60002384F87E
:10AFA0001631002038BDD0F83C31B3FBF1F501FB80
:10AFB0001535A5B9994212D8D0F8402193420ED246
:10AFC0004FF48073C0E94A55C0E94C55A0F81C31D4
:10AFD00000F58E7148F034FAC4F84051CFE7D4F848
:10AFE000E435DB682BB194F81221032A01D1204605
:10AFF0009847052384F81131002320461A46194644
:10B0000048F034FB2046FFF77DFFBEE7D0F8E4357B
:10B010005B69002BC5D090F81221032AC1D1984753
:10B02000BFE700BF2825002070477047704710B564
:10B03000114C94F8DE33CBB14FF0E022D2F8103D42
:10B0400023F00603C2F8103DFEF7AAFA94F8DE33A7
:10B0500063B1D4F8E4339B68DB0707D5D4F8E02468
:10B06000136823F0030161F307031360034B4FF4EC
:10B0700080225A6110BD00BF28250020003C0140FD
:10B080002DE9F04F964CD4F8E0335A69D0078DB0D3
:10B0900000F1A3825A699B691340019300F09D82DD
:10B0A000C3F307430293019B190311D5D4F8E4338A
:10B0B000DFF838929E69DB6904F5757B1E40360C1B
:10B0C00004F585674FF00008DA46002E40F0148141
:10B0D000029B5A070FD5D4F8E433824E9F69DB698F
:10B0E0001F40BFB2A6F118054FF00009A6F57B7806
:10B0F000002F40F04681019B9DF80470980741BFE6
:10B10000774BD3F8E03302225A61019B002B1BDA04
:10B11000734D95F8DE333BB1D5F8E024136823F086
:10B12000030161F307031360D5F8E4236E48536805
:10B1300023F0010353606D4BD3F8F8379847D5F8E7
:10B14000E0334FF000425A61019B1905C3F3072613
:10B1500031D5634D00238DF81F3095F8E6348DF816
:10B160001F30624B05F57570D3F8F4379847D5F862
:10B17000E023D5F8E4334FF400619B68516195F802
:10B18000DE23C2B1DA0716D595F8E934012B12D1C6
:10B190009DF81F30032B0ED1D5F8E0341A6842F029
:10B1A00001021A601A6842F003021A60504A1369D9
:10B1B00043F0060313613B070AD5494D4B4B05F598
:10B1C0007570D3F8EC379847D5F8E03308225A6108
:10B1D000FD0615D5424BD3F8E003826922F0100238
:10B1E0008261026AC2F34341022902F00F0500F0B6
:10B1F0008581062900F0A981836943F010038361EA
:10B20000F00635D5364DD5F8E4235368002723F0F2
:10B2100001035360384645F01BFFB84695F8D50347
:10B220003B4605F57B75FF218342C0F09C81D4F835
:10B23000E4332D484FF0FF329A614FF00112DA618A
:10B240000B2262F3070762F307085F61C3F81080FF
:10B250001A686FF30A121A60FFF754FED4F8E0334D
:10B2600021484FF480525A61204BD3F8F037984769
:10B27000B10640F194811A4CD4F8E433D4F8EC03CD
:10B2800099680268C1F34101022906BF032161F3F5
:10B290000A026FF30A0202605A6842F480725A602E
:10B2A00008A8FEF7FBFFD4F8E013D4F8E403CB685A
:10B2B000099A6FF38D23CB6085680E48C5F341056D
:10B2C000284490F86001032840F05481002284F85B
:10B2D000D6234FF40072A4F8D823092259E100BF05
:10B2E0002825002014290020FC2800200000002030
:10B2F00000ED00E090A30508F2073BD55FFA88F166
:10B3000004EB8103D3F828349D68D4F8E4335B69F7
:10B310001D40EB0720D594F8D7033B680125A842D0
:10B320009D6007D11869DBF87C33C0F312001B1A4B
:10B33000CBF88C33D9F8E0375046984794F8D73398
:10B34000012B09D1B8F1000F06D194F8E534052B93
:10B3500002D15046FFF7D6FDA80742BF3B68022541
:10B360009D60290706D5D9F8E837504698473B68CD
:10B3700008229A6008F10108760804370BF1280BBF
:10B38000A3E6FB0777D5D8F8E4335FFA89FA1969A1
:10B39000586B08EB8A0220FA0AFBD2F8EC234FEA3A
:10B3A000CB1B92685FFA8BFB4BEA010B0BEA020B9B
:10B3B0001BF0010F1ED05A6BA8484FF0010B0BFA7F
:10B3C00009F122EA01025A633368C3F808B0A44BBA
:10B3D0005146D3F8E437984798F8D7335B4509D1FD
:10B3E000B9F1000F06D198F8E534042B02D19B483F
:10B3F000FFF788FD1BF0080F1EBF33684FF0080BE6
:10B40000C3F808B01BF0100F1EBF33684FF0100BCD
:10B41000C3F808B01BF0400F1EBF33684FF0400B5D
:10B42000C3F808B01BF0020F1EBF33684FF0020BC9
:10B43000C3F808B01BF0800F1DD0D5E94C329B1A21
:10B44000D5F82421D6F800E098F8D7B3DEF8180034
:10B45000934228BF13460333D8F8E42303920AF13A
:10B46000320A9B0808EB8A0A80B2984203D9D5E9D0
:10B470004C03984205D809F101097F0804362835A4
:10B4800036E6C01AD5F82431984228BF1846C31CA6
:10B490009B08BBF1000F1CD0D5F82811D5F834213A
:10B4A0000144C5F82811D5F8301102448A42DEF86B
:10B4B0001800C5F83421D7D1039A95F81C11526BA6
:10B4C0004FF0010C0CFA01F122EA010203994A63E0
:10B4D000CAE7D5F82821049282B2DAF8DC130332E5
:10B4E00092108C4605925946059A8A42D4D0049A05
:10B4F00052F82120CCF800200131F5E747F6F07131
:10B5000011423FF479AE282101FB0531C2F30A1242
:10B51000D71CD3F8A4E4D1F854C7BF1000218F4240
:10B520000DD1282101FB0533D3F854171144C3F87A
:10B530005417D3F860170A44C3F860275CE6DEF8B6
:10B5400000804CF821800131E9E7D3F8A4140F689A
:10B55000C3F8A0790968C3F8A419282101FB0533B1
:10B56000C2F30A12E5E755F8042B9160AA6B013388
:10B57000916059E6012084F8D6034020A4F8D8034E
:10B58000A0F56400374CA0F562401044A04227D8D3
:10B590000E2262F38D23CB604FF400534B61029B6C
:10B5A000DA060BD5304C2E4B04F57570D3F8FC370A
:10B5B0009847D4F8E0334FF480125A61029B9B06FF
:10B5C0000BD5294C264B04F57570D3F800389847F5
:10B5D000D4F8E0334FF400125A610DB0BDE8F08F9B
:10B5E000224CA2F57400A0F51050A04201D80D2203
:10B5F000CFE71F481F4C1044A04201D20C22C8E7DD
:10B600001D4CA2F18C70A0F54340A04201D80B2242
:10B61000BFE71A481A4C1044A04201D20A22B8E7E8
:10B620001848194C1044A042FFF457AE174CA2F131
:10B63000B770A0F55850A04201D20822A9E71448DB
:10B64000144C1044A04201D20722A2E71248104431
:10B65000124A904234BF062205229AE7FC280020B5
:10B66000000000203F420F0028250020DFC8100006
:10B670002013FBFE20D61300FF69180000D3CEFE76
:10B6800040771B00C05BB3FEC091210040AC270097
:10B69000C01D6AFE40E13300803C36FEE09C410064
:10B6A0004A09012301F01F0103FA01F150F8223089
:10B6B0000B4340F8223070474A09012301F01F0173
:10B6C00003FA01F150F82230194214BF0120002082
:10B6D000704780EA0120082341F2210210F4004F54
:10B6E0004FEA400018BF5040013B80B2F6D170478E
:10B6F0004840082310F0800F4FEA400018BF80F048
:10B70000D500013BC0B2F5D1704710B50A440C46D4
:10B71000944200D110BD14F8011BFFF7E9FFF7E7D1
:10B7200038B50A46056804460020AA4203D36B1CBC
:10B730002360287038BD12F8011BFFF7D9FFF4E72A
:10B7400082B08DED010A019802B07047C31783EAF9
:10B75000400070479FED087AC0ED020AC7EE007AFC
:10B760000023036030EEA77AC0ED017AC0EE877A3D
:10B77000C0ED037A704700BF83F9223E80ED010AD5
:10B78000704700BF90ED017AD0ED007AC0ED020A5B
:10B7900030EE877AC0EE876A30EE677AE6EE877A17
:10B7A000B0EE670AC0ED007A704700BF80ED000A76
:10B7B000704700BF9FED047AC7EE007A77EEA07A5B
:10B7C00080EEA70A704700BF4E2DA63D0023036000
:10B7D0004360836080ED030A704700BFF5EEC00A46
:10B7E000F1EE10FA06DCF0EE407A80ED000AB0EEE1
:10B7F000670A704760EE810A90ED007A77EE607A12
:10B80000F4EEC07AF1EE10FA0ADC77EE200AF4EEDC
:10B81000C00AF1EE10FA8CBFF0EE407AF0EE607ADA
:10B82000C0ED007AB0EE670A704700BFB4EEE00AE0
:10B83000F1EE10FA07D4B4EEC10AF1EE10FA88BFA7
:10B84000B0EE410A7047B0EE600A7047874BB3FB19
:10B85000F2F399420DD300234FF07E520260436011
:10B860008360C36003610023836143610362C3613A
:10B87000704707EE902ADFED7E6AB8EE677A07EE32
:10B88000901A27EE267AF8EE677A27EE277AFDEEF1
:10B89000C77A17EE903A2033402B00F2D880DFEDC4
:10B8A000757AB4EEE77AF1EE10FAF0EE477A0CDD35
:10B8B000DFED715A9FED716AF0EE676AF4EEC66AC9
:10B8C000F1EE10FA77EEE57AF6DCDFED6D6AF4EE74
:10B8D000E67AF1EE10FA0CD5DFED675A9FED696A52
:10B8E000F0EE676AF4EEC66AF1EE10FA77EEA57A2A
:10B8F000F6D4DFED656AF4EEE67AF1EE10FA00F3C5
:10B900009C80DFED626AF4EEE67AF1EE10FA03D580
:10B91000DFED5B6A76EEE77A27EEA76ADFED5C5A29
:10B92000DFED5C6A9FED5C5ADFED5C4AE6EE256A6E
:10B93000DFED5B5AA6EE265A27EE864AE6EE055A5A
:10B94000F7EE006AE4EE257AF0EE665AE7EEA45AC6
:10B95000E7EEE46A86EEA54ADFED4B6A77EE267ADB
:10B96000BDEEE76A16EE103A2033402B68D8B4EEED
:10B97000E67AF1EE10FA0CDD9FED3F6ADFED3F6AEB
:10B98000B0EE677AB4EEE67AF1EE10FA77EEC67AA8
:10B99000F6DC9FED3B7AF4EEC77AF1EE10FA0CD5A7
:10B9A0009FED356ADFED376AB0EE677AB4EEE67A7E
:10B9B000F1EE10FA77EE867AF6D49FED337AF4EE54
:10B9C000C77AF1EE10FA47DD9FED2A7A77EE677AB3
:10B9D00067EEA76A9FED2E6A9FED2E7ADFED2E4A65
:10B9E0009FED2F5AA6EE867A27EEA63AE6EE874A14
:10B9F000B7EE006AA6EEA45AB6EE007AE3EE057A38
:10BA0000F8EE003A36EE676A67EEA37A26EE077A1A
:10BA1000B7EE005AC5EE256A80ED044A26EE877A15
:10BA200026EE866A66EEA77A80ED007A80ED016ADE
:10BA300080ED027AC0ED037A15E7DFED0E6A69E763
:10BA4000DFED187AB6EE007AB7EE006AE0E7B7EEFF
:10BA5000004AF0EE445A7FE79FED0C7AF4EEC77A85
:10BA6000F1EE10FAB4D59FED067AAFE720A10700FA
:10BA700027D4D236DB0F4940DB0FC940E4CB164157
:10BA8000DB0F49C0E4CB16C1DB0FC93FDB0FC9BFD9
:10BA90009A7C2E36FAAF4FB93587083CF304353F10
:10BAA000A4AA2ABE00000000FDEEC07A17EE903A6C
:10BAB0002033402B51D8DFED2A7AB4EEE70AF1EEBD
:10BAC00010FA0CDDDFED276A9FED277AF0EE407A61
:10BAD000F4EEC77AF1EE10FA30EE660AF6DCDFED2E
:10BAE000237AB4EEE70AF1EE10FA0CD5DFED1D6A09
:10BAF0009FED1F7AF0EE407AF4EEC77AF1EE10FA7D
:10BB000030EE260AF6D4DFED1B7AB4EEE70AF1EE4A
:10BB100010FA18DDDFED127A37EEC00A60EE007A17
:10BB20009FED157A9FED156ADFED156AA7EE876A1E
:10BB30009FED147AE7EE866A60EE275AA7EEA67AA2
:10BB4000A5EE870A7047DFED107AB4EEE70AF1EE52
:10BB500010FAE3D5DFED057ADEE79FED0C0A7047BA
:10BB6000DB0F4940DB0FC940E4CB1641DB0F49C076
:10BB7000E4CB16C1DB0FC93F9A7C2E36FAAF4FB922
:10BB80003587083CA4AA2ABEDB0FC9BF000000000D
:10BB90009FED2F7A70EE077AFDEEE76A16EE903A87
:10BBA0002033402B51D8B4EEC70AF1EE10FA0CDD69
:10BBB0009FED286ADFED286AB0EE677AB4EEE67A88
:10BBC000F1EE10FA77EEC67AF6DC9FED247AF4EE09
:10BBD000C77AF1EE10FA0CD59FED1E6ADFED206AF0
:10BBE000B0EE677AB4EEE67AF1EE10FA77EE867A86
:10BBF000F6D49FED177AF4EEC77AF1EE10FA1ADD5B
:10BC00009FED187A77EE677A27EEA77ADFED166A4E
:10BC1000DFED165A9FED166AE7EE265ADFED156A3C
:10BC2000A7EE256A27EE875AE7EE066AE5EE267A42
:10BC3000B0EE670A70479FED107AF4EEC77AF1EE26
:10BC400010FAE1D59FED057ADCE79FED0C0A70470D
:10BC5000DB0FC93FDB0FC940E4CB1641DB0F49C006
:10BC6000E4CB16C1DB0F49409A7C2E36FAAF4FB9B0
:10BC70003587083CA4AA2ABEDB0FC9BF000000001C
:10BC8000B5EE400AF1EE10FA25D007EE902AF8EE54
:10BC9000670ADFED117A08B5034660EEA70A084689
:10BCA000F0EE406A4BB9FFF755FDFCEEE66A16EE82
:10BCB000903A99B2BDE80840C8E5022B06D0032BA4
:10BCC000F3D1FFF777FDBDE808407FE5FCF7C4FB43
:10BCD000FCF7CEFBE9E77047BD378635B5EE400A85
:10BCE000F1EE10FA02D1044B0B60704703280CBF31
:10BCF000024B034BF8E700BFED8300087D8400088A
:10BD00000585000830EE604A90ED016A037824EE64
:10BD1000066A002B5AD101F00103D0ED0C7A002BFA
:10BD200060D074EE677AF0EE440A90ED0A7AC0EDC6
:10BD30000C0AB5EEC07AF1EE10FAC7EE816A54DC57
:10BD4000D0ED037A66EEA76A90ED057AD0ED0B5A36
:10BD500020EE077A76EE077A77EEA57A77EEA67A66
:10BD6000F4EEE71AF1EE10FA62DCB4EEE72AF1EE37
:10BD700010FA8CBFB0EE670AB0EE420A70EE677A36
:10BD8000D0ED044A90ED025A80ED107A67EEA47A65
:10BD9000B0EE657AE4EE057A4A0780ED0E6AA1EE10
:10BDA000277AC0ED0D5AC0ED0F6A80ED110A08D553
:10BDB000F0EEC77AF0EEE56AF4EEE67AF1EE10FA0C
:10BDC0004AD580ED0B7A0B0735D4704711F001038B
:10BDD0004FF000020CBFF0EE607AF0EE447A027091
:10BDE000002B9ED177EEE07A9FE7D0ED077A90EDB9
:10BDF000035A80ED081AF5EE407AF1EE10FA04BF0E
:10BE0000DFED175AC5EE877A31EE277A08BFC0ED0D
:10BE1000077AC1EE075AD0ED067AC0ED095A76EEE0
:10BE2000E76AE5EEA67A65EE276AC0ED067A8BE74B
:10BE3000B0EE610AA2E7F4EEC71AF1EE10FA08DCE0
:10BE4000B4EEC72AF1EE10FA8CBFF0EE471AF0EE0E
:10BE5000421AC0ED0B1A7047B0EE657AB3E700BF27
:10BE600083F9223E00230122027083634363C3638C
:10BE7000C36203630364836143647047DFED197A2F
:10BE800080ED010AF4EEE70AF1EE10FAC0ED020AC5
:10BE900080ED031AC0ED051A10DC002383600361F6
:10BEA0000023012280ED0A2A027083634363C36387
:10BEB000C36203630364836143647047B4EEE70ABB
:10BEC000F1EE10FA0CDD81EE007AC0EE207AF0EE91
:10BED000006A77EE877A86EEA77A80ED047ADFE74C
:10BEE0000023DCE7BD378635F0EEC07AB0EEE07AAD
:10BEF000B4EEE77AF1EE10FAB4BFB0EE676AB0EED6
:10BF0000476AB5EE406AF1EE10FA46D0B4EEE77A31
:10BF1000F1EE10FA8CBFF0EE675AF0EE475AC5EE1C
:10BF2000866ADFED1F2ADFED1F3ADFED1F4A9FED26
:10BF30001F5A9FED1F3A9FED1F4ADFED1F5AE6EE95
:10BF4000E23AA6EE834AE6EEA34AB7EE006AA6EE10
:10BF5000A45AA6EE846AE6EE855AC5EE866AB4EE69
:10BF6000E77AF1EE10FA48BFDFED147AF5EEC00A79
:10BF700048BF77EEE66AF1EE10FA48BFDFED107ABF
:10BF8000B5EEC00A48BF77EEE66AF1EE10FA48BF98
:10BF9000F1EE666AB0EE660A7047DFED076ADEE72B
:10BFA00039094E3DE3B59E3E88FA163E45FE7F3F79
:10BFB00099FB243F69A2163EA7DFA834DB0FC93FD7
:10BFC000DB0F4940B7EE007AF0EEC07AF4EEC77AA4
:10BFD000F1EE10FA77EE676A1DD8B1EEE67ADFED82
:10BFE0000F5ADFED0F6A9FED0F6AE7EEA65ADFEDFD
:10BFF0000E6AA7EEA56AE7EE866A67EE266AB5EED8
:10C00000C00AF1EE10FA44BF9FED087A77EE666A37
:10C01000B0EE660A7047DFED066AF0E72716983D36
:10C02000306E99BC843459BEA40DC93FDB0F494022
:10C0300000000000B0FBF1F301FB130308463BB125
:10C040001946B0FBF1F301FB13030846002BF7D1AF
:10C05000704700BF44F25063984203DDA0F50C40E6
:10C06000A0387047034B9842BCBF00F50C40A0308D
:10C07000704700BFB0B9FFFF48F6A043984203DD08
:10C08000A0F50C40A03870470028B8BFC018704712
:10C0900080EAE073A3EBE0738B4203DB002803DD4F
:10C0A000401A704700207047FDD00844704700BF19
:10C0B000884203DB9042A8BF10467047084670478D
:10C0C00000230361704770B50378012B044635D116
:10C0D0000369214D23B9426812B9D5F8402842605E
:10C0E000D4ED067A77EE807A013304F11C062361E1
:10C0F000C4ED067A3046FCF72BFA6268D5F8403872
:10C100009B1AA268934219D9E06A94ED0A0A46F094
:10C11000EBFAD4ED057AB4EEE70AF1EE10FA0EDD93
:10C12000237B4BB9D5F84028236100236260A361CB
:10C130003046BDE87040C3E70323237070BDD4EDE3
:10C14000047AD4ED066AF8EE677A022386EEA77ABF
:10C1500084ED067AF1E700BF301400202DE9F041AC
:10C1600004461C30254604F16402064650ED017A6F
:10C17000B1EC010A77EE807A40ED017AFCF7E8F93C
:10C1800018309042F2D12369294F6268013323614C
:10C19000D7F840389B1AA268934246D904F1300878
:10C1A000E86A95ED0A0A46F09FFAA845D4ED057AAB
:10C1B0001CD0B4EEE70AF1EE10FA05F11805EFDD38
:10C1C000237B83BBD7F8402862600022236130467E
:10C1D000A261FFF775FF04F134002263FFF770FFDF
:10C1E000A26404F14C00BDE8F04169E7B4EEE70A4F
:10C1F000F1EE10FAE4DCD4ED047AD4ED066AF8EE40
:10C20000677A022386EEA77AD4ED0C6A84ED067A6B
:10C2100086EEA77AD4ED126A84ED0C7A86EEA77AC0
:10C2200084ED127A00E003232370BDE8F08100BFA3
:10C230003014002010B4019C401AA4EB030C00FB46
:10C240000CFC511A5DF8044B9CFBF1FC0CEB030059
:10C25000704700BF30EE600A32EE612A71EE600A6C
:10C2600022EE002A82EE200A30EE210A704700BF3B
:10C27000D1ED007ADFEDE16A37EEA67ABDEEC76A4E
:10C2800016EE103A2033402B00F25882F4EEE67A94
:10C29000F1EE10FA0CDDDFEDDB5A9FEDD96AF0EE1E
:10C2A000476AF4EEC66AF1EE10FA37EE657AF6DC0C
:10C2B000DFEDDE6AB4EEE67AF1EE10FA0CD5DFEDD2
:10C2C000D15A9FEDD16AF0EE476AF4EEC66AF1EEFC
:10C2D00010FA37EE257AF6D4DFEDC86AB4EEE67AC6
:10C2E000F1EE10FA40F30282DFEDC96A36EEC77A4A
:10C2F00067EE076A9FEDC76A9FEDC75ADFEDC75A21
:10C30000A6EE865A9FEDC66AE6EE855A27EE264AC5
:10C31000A6EEA56AA4EE067AF0EE474ABDEEE77AED
:10C3200017EE103A2033402B00F205829FEDB87AC9
:10C33000F4EEC77AF1EE10FA0CDD9FEDB26A9FEDD4
:10C34000B07AF0EE676AF4EEC76AF1EE10FA77EEB3
:10C35000C67AF6DC9FEDB57AF4EEC77AF1EE10FA04
:10C360000CD59FEDA86A9FEDA87AF0EE676AF4EE0F
:10C37000C76AF1EE10FA77EE867AF6D49FED9F7ACF
:10C38000F4EEC77AF1EE10FA40F3DB819FEDA07A6C
:10C3900077EE677A27EEA77ADFED9E6ADFED9E5A89
:10C3A0009FED9E6AE7EE265ADFED9D6AA7EE256AAD
:10C3B00027EE874AE7EE066AE4EE267AB0EE675A81
:10C3C00091ED017ADFED8D7A77EE276ABDEEE66AB0
:10C3D00016EE103A2033402B00F2A681B4EEE77A35
:10C3E000F1EE10FA0CDDDFED875ADFED857AB0EE65
:10C3F000666AB4EEE76AF1EE10FA76EEE56AF6DC0C
:10C40000DFED8A7AF4EEE76AF1EE10FA0CD5DFED93
:10C410007D5ADFED7D7AB0EE666AB4EEE76AF1EE42
:10C4200010FA76EEA56AF6D4DFED747AF4EEE76AD8
:10C43000F1EE10FA40F39B81DFED757A77EEE66A54
:10C4400066EEA67ADFED735A9FED734A9FED736A2D
:10C45000A7EEA54ADFED725AA7EE846A66EEA73A08
:10C46000E7EE865AE3EEA56A66EEC52A24EEA63A02
:10C47000B0EE666AFDEEC77A17EE903A2033402B95
:10C4800000F24F81DFED627AB4EEE77AF1EE10FA56
:10C490000CDDDFED5C5ADFED5A7AF0EE476AF4EE20
:10C4A000E76AF1EE10FA37EE657AF6DCDFED5F7AD7
:10C4B000B4EEE77AF1EE10FA0CD5DFED525ADFED6B
:10C4C000527AF0EE476AF4EEE76AF1EE10FA37EED0
:10C4D000257AF6D4DFED497AB4EEE77AF1EE10FA78
:10C4E00040F33A81DFED4A7A37EEC77A67EE077A92
:10C4F000DFED485A9FED484ADFED486AA7EEA54AAE
:10C50000DFED475AE7EE846A67EE273AE7EEA65A70
:10C51000A3EEA57AF0EE476AD1ED027ADFED375A45
:10C5200037EEA57ABDEEC74A14EE103A2033402B01
:10C5300000F2EC80F4EEE57AF1EE10FA0CDDDFEDBE
:10C54000313A9FED2F4AF0EE475AF4EEC45AF1EE1D
:10C5500010FA37EE637AF6DCDFED345AB4EEE57AA2
:10C56000F1EE10FA0CD5DFED273A9FED274AF0EEF9
:10C57000475AF4EEC45AF1EE10FA37EE237AF6D4A5
:10C58000DFED1E5AB4EEE57AF1EE10FA40F3FA80D0
:10C59000DFED1F5A35EEC77A67EE075A9FED1D4A49
:10C5A0009FED1D2ADFED1D3AA5EE842A9FED1C4A62
:10C5B000E5EE823A67EE251AA5EEA34AA1EE847A4B
:10C5C00025EE072A64EE871A26EE821A26EE077AEF
:10C5D00026EEA10AFDEEE75A15EE903A2033402BE5
:10C5E00000F28F80DFED0A5AF4EEE57AF1EE10FAF0
:10C5F00027DDDFED043A9FED024A19E0DB0FC93F6A
:10C60000E4CB1641DB0FC940E4CB16C1DB0FC93FB9
:10C61000DB0F49409A7C2E36FAAF4FB93587083C7C
:10C62000A4AA2ABE00000000DB0FC9BFDB0F49C06F
:10C63000F0EE675AF4EEC45AF1EE10FA77EEE37AB0
:10C64000F6DC5FED065AF4EEE57AF1EE10FA0CD561
:10C650005FED143A1FED144AF0EE675AF4EEC45A37
:10C66000F1EE10FA77EEA37AF6D45FED185AF4EEF5
:10C67000E57AF1EE10FA40F390805FED1B5A75EE0B
:10C68000E77A27EEA74A5FED1D5A5FED1D3A5FED91
:10C690001D0AE4EE253A67EE845AE4EE230A5FEDC4
:10C6A000203AE4EE203AE5EEA37A64EEA74A65EE7E
:10C6B000275AA6EEA42AE6EEE51A67EEC67A31EE10
:10C6C000241A75EEC05A80ED007AC0ED017AC0EDF3
:10C6D000026A80ED031AC0ED041AC0ED052AC0ED10
:10C6E000065A80ED072A80ED083A70475FED326AFE
:10C6F000B4EEE67AF1EE10FA7FF5FAAD5FED356A49
:10C70000F4E55FED385AF0EE657ADAE71FED3B2A83
:10C71000F0EE421AB0EE420AB0EE421AB0EE427AA1
:10C7200058E75FED406AF7E61FED423AF0EE432A24
:10C73000B0EE436A9EE61FED455A41E65FED474A7B
:10C74000ECE51FED477AF4EEC77AF1EE10FA7FF5CB
:10C7500021AE1FED4A7A1BE65FED4D7AB4EEE77A23
:10C76000F1EE10FA7FF5C2AE5FED507ABCE65FEDF8
:10C77000527AF4EEE76AF1EE10FA7FF561AE5FED02
:10C78000557A5BE65FED585AB4EEE57AF1EE10FAB1
:10C790007FF502AF5FED5B5AFCE65FED5D5AF4EEAC
:10C7A000E57AF1EE10FA7FF56CAF5FED605A66E75F
:10C7B00010B50024034684468646002C00F00D8107
:10C7C000DEED006A9CED007AD3ED007AE6EEC77AE2
:10C7D000012CC3ED007A00F00F81DEED016A9CEDC3
:10C7E000047AE6EEC77A032CC3ED007A6CD1DEED55
:10C7F000026A9CED087AE6EEC77AC3ED007AD2EDC4
:10C80000007A90ED085AD0ED0C5AD0ED044A92ED22
:10C81000017AD2ED026A92ED036AA7EEE47AE7EEBE
:10C82000C56AA7EEE56A90ED095AD0ED0D5AE7EE1C
:10C83000456AA5EEC76AD0ED0E5AA5EEE66A81ED0F
:10C84000036A90ED0F5AC1ED026AC6EE055AC1EDBA
:10C85000035A90ED0B6AE5EEC66AC1ED026A90EDEF
:10C860000A5A81ED017A86EE856A81ED026AD0ED81
:10C87000066AA6EE667A81ED017AD0ED076AA5EE2A
:10C88000E67A81ED017A90ED055AC1ED007AC7EEA6
:10C89000056AC1ED016A90ED017AE7EE667AC1EDB5
:10C8A000007A90ED027AE7EE467AC1ED007A90EDDB
:10C8B000037AE7EE657AC1ED007AD0ED006A87EE83
:10C8C000A67A81ED007A10BD9EED007ADCED016A5A
:10C8D000D3ED017AE7EE667A022CB1EE476AC3ED3A
:10C8E000017ADEED016A9CED057AE6EEC77AC3EDCA
:10C8F000017A40F0AC80DEED046A9CED007AD3ED65
:10C90000047AE6EEC77A012CC3ED047A40F2878000
:10C91000DEED056A9CED047AE6EEC77A032CC3EDE2
:10C92000047A7FD19EED066ADCED086A93ED007A09
:10C93000E6EE667AC7EE876AC3ED046A9EED086A82
:10C94000DCED006AD3ED087AE6EE667A012CC3EDE1
:10C95000087A70D99EED096ADCED046AE6EE667A23
:10C96000032CC3ED087A07D19EED0A6ADCED086A54
:10C97000E6EE667AC3ED087A93ED086AD3ED0C7A99
:10C98000C6EE076A032CC3ED086A9CED006ADEED73
:10C990000C6AE6EE667AC3ED0C7A9CED046ADEED75
:10C9A0000D6AE6EE667AC3ED0C7A07D19EED0E6A4B
:10C9B000DCED086AE6EE667AC3ED0C7AD3ED0C6A1C
:10C9C000C6EE877AC3ED0C7A013414330EF1100EE3
:10C9D0000CF1040C002C7FF4F3AED3ED047A93ED4C
:10C9E000007A93ED086AC7EE876AC6EE077AC3ED50
:10C9F000046AC3ED087AE1E7DEED006A9CED016AA6
:10CA000093ED017AD3ED027AA6EEC67A83ED017A30
:10CA10009CED027AE7EE667AC3ED027A6BE793ED5E
:10CA2000007A87E793ED007AC7EE876A022CC3EDA0
:10CA3000046AC9D082E7C7EE876AC3ED086AC3D02B
:10CA40009CED006ADEED0C6AD3ED0C7AB2E79CED4A
:10CA5000027AD3ED027AE6EE077A032CC3ED027A6E
:10CA6000DCED066A9EED017AE6EEC77AC3ED027A46
:10CA70007FF441AFDEED026A9CED0A7AE6EEC77AFA
:10CA8000C3ED027ABBE600BF20EE000AFEEE007A9C
:10CA900060EE277A60EEA00A9FED020AC7EEA00AB8
:10CAA0004AF09ABB54F82D4008B547F0C7FB07EE93
:10CAB000900AF5EEC07AF1EE10FAACBFB1EEE70ADB
:10CAC0009FED010A08BD00BF000000002DE9F74FEF
:10CAD00090469DF83020002A14BF4FF030094FF0E7
:10CAE00020090D9A1C1E05460F46BABF6442012359
:10CAF000002312F8011B01B12CB9A24663B1002436
:10CB00000D9EA41B12E0013CF3E7BD4204D249464E
:10CB100028460193C047019BBAF1010AF5D2EFE71D
:10CB2000BD4203D228460193C047019B06EB040B8C
:10CB300016F8011B0029F3D133B15446002C07DC51
:10CB4000BAF1000FA8BFD344584603B0BDE8F08F38
:10CB5000BD4202D249462846C047013CEEE70FB429
:10CB600037B50C4D06ABD5F8341A53F8042BD5F86D
:10CB7000300A019343F0C6FF0446D5F8700304F071
:10CB8000E6F80028F9D0204603B0BDE8304004B0F4
:10CB9000704700BF282500200EB403B503AB084939
:10CBA00053F8042BCDE9003001A843F0ABFF019B03
:10CBB00000221A7002B05DF804EB03B0704700BFAA
:10CBC000A38500080CB430B52A4CD4F8383AA5B087
:10CBD0001BB9D4F83C3A002B39D094F8403A99422A
:10CBE00006D9012303FA00F0D4F8443A18422ED0B3
:10CBF000214BD3F840184FF47A7304A8B1FBF3F239
:10CC000003FB12131D49FFF7C7FF04AB0344289A27
:10CC10001B490393054629AB03A8029343F072FF17
:10CC2000039B591C03910A211970039B0246591C4E
:10CC3000D4F8380A03910021197068B103681B6A9F
:10CC400003B19847D4F8380A04A904F014F825B0C1
:10CC5000BDE8304002B07047D4F83C3A002BF6D023
:10CC600002212A4400910A44FD2004A91FF00CFF70
:10CC7000EDE700BF28250020301400201E2B0608F9
:10CC80004785000830B54FF4004087B01EF032FFF2
:10CC90000446A0B34FF400411FF08EF802281CD1C7
:10CCA000226848F201039A4229D1234C002584F8D6
:10CCB000DC5C4FF4004043F067FA00B3D4F8483A24
:10CCC00083421ED0D4F8243B83422FD0D4F8003CBA
:10CCD00098422ED0C4F83C5A11E00023022294F965
:10CCE0000400CDE901234FF4612200924FF400418A
:10CCF0001A461FF0B5F8104BC3F8380A28B907B028
:10CD000030BD04F64823C4F83C3A0C4B04930C4B5A
:10CD100003930C4B02930C4B01930C4B00930C4A66
:10CD20000C4B02210020FFF74DFFE8E704F6243307
:10CD3000E9E704F54063E6E7282500202A2B0608EA
:10CD4000332B06083C2B0608482B0608EF2A06085A
:10CD50007E370608F62A0608174A38B5D2F8E04C9E
:10CD6000033004EB9003B3F5007F19D802F6E445D5
:10CD7000C2F8E03C114A02EB810120F00300D1F837
:10CD8000EC23C3F500731044C1F8EC030C4A9B007C
:10CD90000421002005EB8404FFF714FF204638BD72
:10CDA0000021084A0846FFF70DFF074A136943F0C0
:10CDB000007313610024F1E72825002020360020AD
:10CDC0004E2B0608712B0608D0DB00202DE9F84F0A
:10CDD0000268DFF8A4800646002358F833108A4220
:10CDE0000BD1DDB20D2D0CD9204A00210520FFF713
:10CDF000E9FE00242046BDE8F88F01330E2BECD16C
:10CE0000F2E71B4F07EB850A4FEA8509DAF89CB376
:10CE1000BBF1000F1AD10A216420FFF79DFF0446E1
:10CE2000CAF89C0328B90146124A0520FFF7CAFE3A
:10CE3000E0E7642259464DF00EFADAF89C3308EB2D
:10CE4000C505C3E90053DB615B63DB644F44717963
:10CE5000D7F89C43182000FB014300221C46C3E97D
:10CE600003229E601A750434C4E700BF7F2B0608B6
:10CE700028250020A42B0608F4A4050803685A1CE2
:10CE8000026019700368090A5A1C02601970704721
:10CE900003685A1C0260197003685A1C02600A0A6F
:10CEA0001A7003685A1C02600A0C1A700368090E93
:10CEB0005A1C02601970704703685A1C02600A0A03
:10CEC0001A7003685A1C02601970704738B504461E
:10CED000006815464CF086FF23682B44236038BD5C
:10CEE00003685A1C02601878704703685A1C026075
:10CEF0001A4612F8021B0260587841EA0020704777
:10CF000010B502681146531C036011F8024B016012
:10CF1000D31C5178036093781B0443EA0123111D4D
:10CF20000160D078234343EA006010BDD1E90032AC
:10CF30009A4206D05A1C0A6008B11B78037001207F
:10CF4000704700207047D1E900239B1A012B10B5D0
:10CF50000446084604DDFFF7C8FF2080012010BD0D
:10CF60000020FCE730B50A440446914201D100207C
:10CF700011E014F8013BA3F14100192811F8010B4D
:10CF8000A0F1410598BF2033192D98BF20301B1AFE
:10CF900002D10028E9D130BD1846FCE76FF000420D
:10CFA000E0E710B50288C378A2F5FA62910840F272
:10CFB000B554013B04FB013381780C24013902F0A4
:10CFC000030204FB02120D49847901EB420218218D
:10CFD000B2F8D4211344027901FB0322437900897A
:10CFE0003C2101FB0233064A224401FB03224FF499
:10CFF0007A730021C2FB030110BD00BF90A3050896
:10D0000080436D382DE9F04190461F4605464FF4A8
:10D010007A7200234046394647F06EFA284B3C218D
:10D02000034493FBF1F201FB1233AB7192FBF1F37A
:10D0300001FB13226A7140F2B551182293FBF2F4FE
:10D0400002FB143394FBF1F201FB1244B4F5896F37
:10D050002B714FEA82032EDA40F2DA2294422CDC62
:10D06000B4F5B77FB4BF00210121164A182000FB98
:10D0700001220B2632F81600A04201DD013EF9D153
:10D0800003F5FA630B442B80731CAB700C2303FB7A
:10D0900001660D4B03EB46060134B6F8D431E41AB1
:10D0A000EC704FF47A7200234046394647F024FA78
:10D0B0002A81BDE8F0810321D7E70221D5E700BF2F
:10D0C00080BC92C764A5050890A30508F0B5274D5C
:10D0D00006460F460FCD8DB06C460FC40FCD0FC462
:10D0E00095E80F0084E80F0016F003033AD164219D
:10D0F00096FBF1F201FB126242B94FF4C87296FB43
:10D10000F2F302FB1363003B18BF0123721EC3F14D
:10D110001D03002A019340F26D13104606FB03F332
:10D12000B8BFB01C03EBA0006FF0630392FBF3F3F6
:10D1300018444FF4C87392FBF3F21044063069466A
:10D1400000240725013F51F8042BA74202EB0003FE
:10D1500093FBF5F0C0EBC000A3EB000004D1101A64
:10D160000DB0F0BD0123D1E70134ECE7C4A50508FB
:10D17000094BD3F88014D3F8842451EA020309D070
:10D18000064BD3F840385B1842F10002C0E9003288
:10D190000120704700207047203600203014002006
:10D1A00037B505466846FFF7E3FF044638B1DDE9C9
:10D1B00000232846FFF726FF204603B030BD40F28B
:10D1C000011328806B80A880A8712881F4E700BF34
:10D1D0008842F0B54FF0010461D301FB04F4B0FBC9
:10D1E000F4FC8C45F9D284B3002A45D0002511E027
:10D1F000BCF1090F2646CCBF372230229444B142FD
:10D2000083F800C0744603F1010305F101051CD841
:10D21000B0FBFEFCB4FBF1FE04FB1C00002DE7D1CB
:10D22000BCF1000FE4DCA1420BD8B0FBFEFCBCF16A
:10D23000000F74460EFB1C00BEFBF1FED8DCA142C1
:10D24000F3D90CF1300C03F801CB00221A70F0BDB9
:10D25000BCF1090F2646CCBF4FF0570E4FF0300EF1
:10D26000F444B14283F800C02C4603F1010302F1FB
:10D270000102EAD8B0FBF5FCB4FBF1F504FB1C009D
:10D28000002AE5D1BCF1000FE2DCA142D9D8B0FB05
:10D29000F5FC2C4605FB1C00B5FBF1F5F2E78446D6
:10D2A000002AA3D1E8E700BF0028BCBF2D234042DD
:10D2B00070B5B8BF01F8013B092804464FF00103DF
:10D2C00007DD03EB83035B00B0FBF3F2092AF8D818
:10D2D0003BB3164D4FF0000C0AE0092A8CBF5721D2
:10D2E00030210A44092B0EF8012B16D9714603464A
:10D2F000A5FB0320B4FBF3F25CEA02068E464FEA7C
:10D30000D00003FB12440CF1010CE6D1092B01D92A
:10D31000B446EBE730320EF8012B00238EF80030D4
:10D3200070BD8E4600238EF8003070BDCDCCCCCCC5
:10D3300090422DE9F0410B46044615460AD2B0FB57
:10D34000F5F6134A05FB16441846135D00F8013B39
:10D35000BDE8F081B0FBF2F69642B6FBF2F706D2DA
:10D360000B4A05FB1767D15D03F8011BEAE7BA42D8
:10D37000B7FBF2F807D9064A05FB187812F808102F
:10D3800003F8011BEDE74046FFF7D2FF0346F2E743
:10D39000242C0608B5EEC00ADFED307AF1EE10FA63
:10D3A000CCBF30EE270A30EE670ADFED2D7A20EE93
:10D3B000270A70B5FDEEC07A86B017EE904A054692
:10D3C00084EAE470002303A9A0EBE470CDE9003304
:10D3D000029343F00DFD002CACBF20232D2303A8A6
:10D3E0008DF8003046F096FA01286E4626D00228C5
:10D3F0002DD003281CD003A930464CF034FF304612
:10D4000046F088FA0338C4B22246314628464CF02A
:10D41000E9FC00232B55284646F07CFA2E232B549A
:10D420000130311928444CF03AFF284606B070BD4F
:10D43000302303A930468DF80130DEE743F2300295
:10D44000302303A9ADF801208DF80330D4E743F26F
:10D45000300303A93046ADF80130CEE76F12033A2E
:10D4600000007A440378202B024600F10100F9D035
:10D47000092BF7D02D2B25D02B2B00F0A280B7EE57
:10D48000000AA3F13001C8B209289FED587A10D8DC
:10D49000F2EE046A07EE901AF8EEE77A12F8013F0E
:10D4A000E7EE267AA3F13001C8B20928B0EE677A18
:10D4B000F0D92E2B62D003F0DF03452B07D020EEEE
:10D4C000070A70475378BFEE000A0246D9E710B446
:10D4D00051782D297AD02B290BBF9178A1F13003F7
:10D4E000A1F13003013208BF0232092B64D80024B5
:10D4F000002303EB830301EB430312F8011FA1F1A7
:10D5000030000928A3F13003F3D9B3F59A7F1A4606
:10D5100028BF4FF49A72072B64D9DFED356A1346A2
:10D52000F7EE007A083B072B67EEA67AFAD802F0EE
:10D530000702DAB1F2EE046A012A67EEA67A15D084
:10D54000022A67EEA67A11D0032A67EEA67A0DD0DA
:10D55000042A67EEA67A09D0053A67EEA67A05D0C6
:10D5600067EEA67A012A18BF67EEA67A34B387EE73
:10D57000277A5DF8044B20EE070A70475378A3F131
:10D580003001C8B2092802F1010294D8F2EE046A0F
:10D59000F0EE665A07EE901AF8EEE77A12F8013FBD
:10D5A00087EEA66AA3F13001C8B2092866EEA56A23
:10D5B00037EE067AEED97EE7F7EE007A27EE277A85
:10D5C000D7E75378B7EE000A02465AE79178A1F1FF
:10D5D0003003092B02F1020288BFF7EE007AC6D8A9
:10D5E000012485E7F7EE007AA3E700BF0000000002
:10D5F00020BCBE4C0378202B024600F10100F9D07C
:10D60000092BF7D0303BDBB2092B4FF000000AD8D2
:10D6100012F8011F00EB8000303903EB4000CBB261
:10D62000092BF5D97047704730B5014610F8013B1A
:10D63000202BFAD0092BF8D02D2B0ABF014601254B
:10D640004FF0FF350139002009E0052C1BD8A2F16D
:10D6500037030A2B17D100EB800003EB400011F8D1
:10D66000012FA2F130035FFA83FCBCF1090FA2F194
:10D67000610EA2F14104EED9BEF1050FE5D8A2F189
:10D6800057030A2BE7D005FB00F030BD10B500238F
:10D69000802804D893420AD2C854581C10BD934223
:10D6A00005D060F07F04CC54C0090133F0E74FF09F
:10D6B000FF30F3E738B50C468D18AC4200D138BDC9
:10D6C00014F8011BFEF705F8F7E770B51249134C83
:10D6D000134E01220020FFF7EDFF228862B1A31D47
:10D6E000B34217D2A518B54214D2052A12D9214641
:10D6F000FFF7E0FF2C46F0E721460222FFF7DAFFB2
:10D7000063880849084AC31A641A5842A2F8884430
:10D71000584170BD0020FCE70040000801400008AF
:10D7200000800008FC3F00082036002003682DE937
:10D73000F04104464068134483421AD80D468E18BF
:10D7400004F10C074FF00008B54202D16069BDE852
:10D75000F08123695A1C2261234415F8011B1973B7
:10D76000042AF1D139462046FBF741FFC4E9048081
:10D77000EAE74FF0FF30EAE7034AD2F88C3423EAB5
:10D780000000C2F88C04704720360020034606498A
:10D790000648884201D3002070470288C2F30B027A
:10D7A0009342F9D01430F4E73C890608B4840608A3
:10D7B00013B542880B460446C2F30B0200211846FB
:10D7C00001924CF048FD216903460A48814209D381
:10D7D0000948019A814205D2184602B0BDE81040BE
:10D7E0004CF000BB21B1184602B0BDE8104008471C
:10D7F00002B010BD3C890608588D060810B4B0F977
:10D8000002404288002C0B4641685DF8044BBEBFC5
:10D81000C2F30B02DBB203FB0211C9E730B5094BBF
:10D82000094CA34200D330BDB3F902205988002A25
:10D8300006DA5A68DD68C1F30B0100FB01222A6099
:10D840001433EEE7B48406083C89060830B5024676
:10D850000144002012F8015B082480EA050313F05C
:10D86000010F4FEA50001CBF80F08C03D8B2631E3A
:10D8700013F0FF044FEA5505EFD18A42EAD130BDDB
:10D8800007B501228DF8041001A9FBF7BBFD03B019
:10D890005DF804FB70B50E4C002306460D46D4F827
:10D8A000780384F87433AA2103F0E2F9D4F87803FA
:10D8B000012103F0DDF9D4F87803314603F0D8F9FB
:10D8C000D4F878032946BDE8704003F0D1B900BF11
:10D8D0002825002084B070B590B014AC84E80F0007
:10D8E0004E4C9DF8686000254FF08070C4F8785366
:10D8F0001EF000F928B9002010B0BDE8704004B057
