:020000040800F2
:10000000F0FF0120559506081D220608B53F02089D
:10001000CD950608CD950608CD9506080000000090
:10002000000000000000000000000000212206087F
:1000300025220608000000002922060839200208AF
:10004000CD950608CD950608CD950608CD950608F0
:10005000CD950608CD950608410A0208490A02080E
:10006000510A0208590A0208610A020841D400082C
:1000700051D4000861D4000871D4000885D4000868
:1000800099D40008ADD40008CD9506080000000002
:10009000000000000000000000000000690A0208E3
:1000A000653B0208FD3A0208753B0208ED3A02087A
:1000B000253B0208353B0208453B0208E5C5000820
:1000C000C9CA0008EDC50008CDCA0008CD950608CC
:1000D000CD950608B11F0208BD1F020800000000F0
:1000E000710A0208CD950608D52806080000000010
:1000F000000000000000000000000000C1D4000863
:1001000000000000E9F90008553B0208CD950608FB
:1001100000000000000000000000000000000000DF
:10012000D5D40008E9D40008FDD4000811D5000892
:1001300025D50008000000000000000000000000BD
:100140000000000000000000000000002D22060852
:1001500039D500084DD5000861D50008C91F02082F
:10016000F5C50008D1CA000800000000000000002A
:10017000000000000000000000000000000000007F
:1001800000000000CD9506080000000000000000FF
:08019000CD950608CD95060887
:08019800E890060001000000E0
:1001A0000A90010024000000002E0020004B0020D7
:1001B00000000000C56D0408FC4A00201402010084
:1001C000050000008C430020284B002000000000A8
:1001D0007CBF0708244B002006100100240000000B
:1001E00048240020344B002000000000F165010885
:1001F000304B0020FA01010003000000C05E002027
:10020000205E002000000000D96501081C5E00206F
:10021000FF2101000500000018570020285E002083
:100220000000000009670108245E0020053001007D
:100230000800000040590020345E0020000000004B
:1002400084BF0708305E0020130201000400000094
:100250003C590020405E0020000000008CBF0708D1
:100260003C5E00201E02010006000000FC5500203C
:100270004C5E00200000000090BF0708485E002090
:100280000D120100140000001C580020585E0020D0
:100290000000000098BF0708545E00200311010011
:1002A0000A00000054550020705E0020000000008D
:1002B000C9BE05086C5E00200B2201003D00000055
:1002C000EC4D0020805E002000000000ACBF07085D
:1002D0007C5E00201500100070000000009E0020D1
:1002E00008A70020000000000000000004A7002074
:1002F0002A00080060000000A09D00207CA70020CC
:100300000000000095C4030878A700202102010026
:10031000F0000000B09C0020E0A7002000000000DA
:1003200069FE0408DCA700202C0004001000000077
:10033000A09C0020D4A800200000000029C70308CA
:10034000D0A8002025201E002C010000F49A0020D7
:10035000E8A800200000000000000000E4A8002041
:100360002B00120024000000609A002018AA002030
:100370000000000039C7030814AA00202920140037
:1003800078000000248E002040AA00200000000019
:10039000000000003CAA00202830010016000000E8
:1003A000B88D0020BCAA0020000000004985040888
:1003B000B8AA00200B3001001A0000009C8D00201C
:1003C000D8AA002000000000ECBF0708D4AA002033
:1003D0001E1001000B0000008C8D0020F8AA0020E8
:1003E0000000000006C00708F4AA00200D1001005C
:1003F0004C0000003C8D002008AB002000000000F5
:100400006F4B020804AB00200C4004009800000071
:100410008C86002058AB0020000000001D17030848
:1004200054AB0020012001000C00000024870020B4
:10043000F4AB00200000000012C00708F0AB002061
:1004400027000100040000009887002004AC002071
:10045000000000001EC0070800AC0020232001009F
:1004600010000000888700200CAC00200000000075
:10047000B16D040808AC00200E40040048020000E2
:100480004084002020AC002000000000E9C30308E5
:100490001CAC0020220201001C0100008C900020F6
:1004A0006CAE002000000000657B010868AE0020F3
:1004B000160215003F000000CCAF00208CAF0020DA
:1004C000000000003D67010888AF00201F020800FF
:1004D0001000000020B0002010B00020000000003C
:1004E000196701080CB000201B0201001000000079
:1004F00044B0002034B0002000000000D1660108A4
:1005000030B0002028020400040000005CB000208D
:1005100058B0002000000000C566010854B000205B
:10052000270204000400000068B0002064B000202E
:1005300000000000B966010860B000201C02020043
:100540001C000000D08D002070B0002000000000D2
:10055000316E01086CB00020010201000B000000A8
:100560009CB0002090B0002000000000C965010888
:100570008CB00020000201000B000000A8910020B8
:10058000ACB0002000000000C1650108A8B0002048
:100590001A0201003C000000F8B00020BCB00020AE
:1005A00000000000C16E0108B8B00020040008007F
:1005B00080000000209C002038B1002000000000D6
:1005C0000000000034B100201902010010000000FA
:1005D000B08E0020BCB1002000000000F9660108C8
:1005E000B8B10020081203000F000000DCA10020B9
:1005F000D0B100200000000065650108CCB10020EA
:100600000A020100140000003CA20020E4B1002016
:10061000000000006D170308E0B100203840010021
:10062000060000009CA20020FCB100200000000099
:1006300022C00708F8B10020031201003D000000AD
:10064000709E002008B200200000000028C00708AB
:1006500004B200200C02010004000000ECA1002004
:100660004CB2002000000000E165010848B2002003
:100670001310010004000000988D002054B20020E7
:100680000000000068C0070850B20020020201000C
:1006900003000000FCA600205CB200200000000067
:1006A0000000000058B20020F59101006C0000002D
:1006B0002090002064B2002000000000A95405082A
:1006C00060B20020F62101000C000000C88E00205E
:1006D000D4B20020000000006CC00708D0B2002097
:1006E000121201000400000004DD0020E4B200202A
:1006F0000000000078C00708E0B2002011020100ED
:100700000800000008DD0020ECB20020000000001E
:100710007CC00708E8B2002034000100100000008F
:1007200010DD0020F8B200200000000079C40308AA
:10073000F4B20020F8310100060000002C8D0020EA
:100740000CB300200000000084C0070808B300209C
:10075000020001000C00000068A2002018B3002075
:10076000000000000000000014B30020FE010100A2
:10077000140000009C8E002028B300200000000020
:100780004D65010824B3002006120300120000008A
:1007900028A2002040B3002000000000B96D01082D
:1007A0003CB30020F701010006000000C08E0020CD
:1007B00058B30020000000008AC0070854B300208E
:1007C000FC0101000900000020DD002064B30020CE
:1007D00000000000E566010860B30020FB01010095
:1007E000010000002CDD002074B300200000000098
:1007F000F166010870B300201A0001000E0000002D
:10080000CCA100207CB300200000000090C00708AD
:1008100078B300201400010005000000348D002092
:1008200090B30020000000009EC007088CB3002099
:10083000FD010100240000008AA100209CB30020DB
:1008400000000000CBE3010898B300201D02020065
:100850000600000084A10020C4B3002000000000B6
:1008600000000000C0B30020183001003800000074
:10087000EC8D0020D0B30020000000002D6F010897
:10088000CCB30020F90101000400000030DD00209D
:100890000CB400200000000085E3010808B400202B
:1008A00012300100100000005C83002014B400200E
:1008B00000000000A4C0070810B400200E020100D0
:1008C0000200000024DF002038E1002000000000CA
:1008D000B4C0070834E100202F10010022000000FE
:1008E00040E1002028DF002000000000B6C007081B
:1008F0003CE100201F50010024000000BCE5002066
:1009000080F1002000000000D8C007087CF1002022
:100910001B2001000C00000064ED0020A8F1002065
:100920000000000019F30408A4F1002016200100C3
:100930000600000074ED0020B8F100200000000067
:10094000FCC00708B4F100201010010002000000F4
:1009500094EB0020C4F100200000000002C1070851
:10096000C0F1002019000100050000002CF100205A
:10097000CCF100200000000004C10708C8F10020ED
:100980002D02010001000000A0F50020ACF50020C0
:100990000000000000000000A8F50020290201006E
:1009A00040000000ECF20020B4F500200000000040
:1009B0000AC10708B0F50020FD0701007E00000015
:1009C000E8F40020F8F5002000000000494D05087B
:1009D000F4F500200101010004000000E4F400200F
:1009E0007CF60020000000000000000078F60020E7
:1009F0000001010004000000E0F4002084F6002063
:100A0000000000004AC1070880F600200201010032
:100A100003000000DCF400208CF600200000000041
:100A20000D17030888F6002026300100080000009A
:100A30009CF4002094F6002000000000614F05089F
:100A400090F60020205201000800000094F40020DD
:100A5000A0F600200000000061C403089CF60020FE
:100A60002A120100080000008CF40020ACF60020DF
:100A7000000000004EC10708A8F600203730010032
:100A80002600000060F40020B8F6002000000000FE
:100A900056C10708B4F60020030001000100000061
:100AA000680B0120740D0120000000000000000010
:100AB000700D0120050201000400000014F8002060
:100AC0007C0D0120000000007CC10708780D01208A
:100AD0002C02010004000000E0F70020A40D01201A
:100AE0000000000080C10708A00D01202332010092
:100AF00014000000F00F0120A014012000000000ED
:100B000084C107089C1401201002010001000000AC
:100B1000DCA00120D8A001200000000098C1070837
:100B2000D4A0012009020100010000005CA0012006
:100B3000E4A00120000000009AC10708E0A0012005
:100B400001010000A40000000000000000000000FF
:100B5000000004010000020001000002100000007B
:100B60000700FF000060024010600240000000002B
:100B70000000000000000000000B0000000000006A
:100B800000000000000000000060024028600240F9
:100B9000010000000000000000000000060C000042
:100BA00000000000000000000000000000600240A3
:100BB0004060024002000000000000000000000051
:100BC000100D000000000000000000000000000008
:100BD0000060024058600240030000000000000076
:100BE00000000000160E00000000000000000000E1
:100BF000000000000060024070600240040000003D
:100C00000000000000000000200F000000000000B5
:100C10000000000000000000006002408860024008
:100C20000500000000000000000000002610000089
:100C30000000000000000000000000000060024012
:100C4000A06002400600000000000000000000005C
:100C50003011000000000000000000000000000053
:100C600000600240B8600240070000000000000081
:100C700000000000362F000000000000000000000F
:100C80000000000000640240106402400000000008
:100C9000000000000000000000380000000000001C
:100CA00000000000000000000064024028640240D0
:100CB00001000000000000000000000006390000F4
:100CC000000000000000000000000000006402407E
:100CD000406402400200000000000000000000002C
:100CE000103A0000000000000000000000000000BA
:100CF000006402405864024003000000000000004D
:100D000000000000163B0000000000000000000092
:100D10000000000000640240706402400400000013
:100D20000000000000000000203C00000000000067
:100D300000000000000000000064024088640240DF
:100D40000500000000000000000000002644000034
:100D500000000000000000000000000000640240ED
:100D6000A064024006000000000000000000000037
:100D700030450000000000000000000000000000FE
:100D800000640240B8640240070000000000000058
:100D900000000000364600000000000000000000D7
:100DA00000000000FF00E001FF080000F401000067
:100DB0000000000000000000000000000100000032
:100DC0000000000000000000000000000000000023
:100DD0000100000000000000010B010012010002F0
:100DE00000000040830420570002010203010000BC
:100DF000040309041A0300000000000000000000C2
:100E000000000000000000000000000000000000E2
:100E1000D8000000000000000500000006000000EF
:100E200002000000000000004C060020445E00208C
:100E300002000000010000007D07010848060020B4
:100E40000000000001000000010000005D07010833
:100E500078040020000000000000000000000000F6
:100E60000000000000000000000000000000000082
:100E70000100000000000000000000000000000071
:100E80000000000001000000000000000000000061
:100E90000000000000000000010000000000000051
:100EA0000100000050C3000003000000000000002B
:100EB0000500010105000000FFFFFFFF2A010000FF
:100EC00090B5060825000000FFFFFFFF89450108D7
:100ED0001146010855460108550A010895460108C2
:100EE000E1460108590A010824060020514501087D
:100EF0003D090108610901088509010889090108FE
:100F0000E5090108510A010800060020AD0A0108A0
:100F1000D90A0108F10A0108F50A01082D4701085C
:100F2000F90A0108FD0A010838B806081DED050890
:100F300089C30508A5EB05080000000000000000BB
:100F4000D9DF050819E005080000000000000000D6
:100F500000000000C9C3050899080108A508010898
:100F6000FD440108D5440108B108010819450108EC
:100F7000354501081F0000001C0000001F00000094
:100F80001E0000001F0000001E0000001F000000E7
:100F90001F0000001E0000001F0000001E000000D7
:100FA0001F0000000068214C008002021F000000AA
:100FB00053544D202020202050726F6475742020DF
:100FC0002020202020202020302E303100800202DE
:100FD0001F00000053544D202020202050726F64C9
:100FE000757420202020202020202020302E303119
:100FF0000600000005000000F9C50508FDC505084C
:1010000001C605080DC6050811C6050805C6050870
:1010100009C60508FFFF0000FFFFFFFF01000000F9
:101020000001010100000000FFFFFFFF91F0050833
:10103000D9F1050815F00508F508060809F10508B5
:101040001DF30508D5C305083DC4050851C40508AE
:101050000101FF0080D00608B4D00608E8D00608D9
:10106000FFFFFFFFAC3D0708000008020503030077
:1010700000000000A03D070801000802050403006D
:1010800000000000889B0708000008020503030019
:1010900000000000909B07080100080205040300FF
:1010A00000000000BCA307080200FE0101100300BD
:1010B00000000000DC3207080300140200030000F7
:1010C00000000000989B070804001F0202000800AF
:1010D00000000000A09B070805001F020201080095
:1010E000000000007D00000002010000A00F0000D1
:1010F000B80B000002FFFF01903D070818410708E8
:101100000000000019AE0208A086010004000000E3
:10111000903D0708009C0708000000004D180208D9
:10112000E803000004000000A433070800000000EA
:1011300000000000BD2503087D000000FF00000046
:10114000D037070800000000000000001545030824
:101150007D000000FF000000B4AA070800000000A6
:1011600000000000190004087D000000FF000000DE
:10117000AC4107080000000000000000F9EE010883
:10118000E803000003000000B43907080000000075
:101190000000000009EA0308102700000300000017
:1011A000949B070800000000C9C80308A186020834
:1011B0005F7600000500000098430708000000006B
:1011C0000000000069410208102700000200000032
:1011D000089C07080000000000000000A5E50108C9
:1011E000E803000005000000149C07080000000050
:1011F0000000000065200308204E000003000000EE
:10120000249C070800000000000000004937030884
:10121000204E000003000000349C0708000000007E
:101220000000000069EB0108400D0300030000000E
:10123000843E07080000000000000000318402081E
:1012400010270000020000004041070800000000D5
:1012500000000000F11205088D20000003000000CE
:10126000449C070800000000000000003D4E0208FA
:10127000A086010002000000783807080000000086
:1012800000000000B54B0208A86100000200000049
:101290002836070800000000014B0208B150020880
:1012A0008D20000002000000A0430708000000009D
:1012B00000000000ED530208A00F00000200000033
:1012C0004C9C07080000000000000000CD45050808
:1012D00010270000020000008C3E070800000000FC
:1012E000774D050829990508854501000200000091
:1012F000E835070800000000000000007D520508E6
:1013000010270000020000002C4107080000000028
:101310000000000029C8040850C3000002000000BB
:10132000589C0708000000000000000029CA0508BA
:10133000400D030001000000609C07080000000051
:1013400000000000294B0208400D030002000000CD
:10135000689C0708000000000000000065390508CF
:1013600050C3000003000000749C07080000000048
:10137000000000008D34030840420F00010000000F
:10138000809C07080000000000000000697A020845
:1013900050C30000010000008C9C07080000000002
:1013A0000000000045810508102700000200000031
:1013B00059EB050835C305083DEA050800000000A3
:1013C00065C305088DEB05089DD8050879D8050883
:1013D000000000000000000059C30508C9C5050849
:1013E000EDC50508590806083D08060875080608F1
:1013F00091080608AD080608ADEA050811C30508FE
:101400002DE8050800000000E1C20508CDD605085A
:101410006DD7050855D80508000000000000000041
:1014200005C305080000803F000000000000000028
:10143000000000000000803F0000000000000000ED
:10144000000000000000803F0000000000000000DD
:1014500000000000FFFFFFFFFFFFFFFF997B020876
:1014600000000000000000000000000001AC0208C5
:10147000000000000000000000000000010100006A
:1014800000000000900D0120080000000000000096
:10149000800D012008000000FFFFFFFF01F11F3F4A
:1014A000801401208E1401207EFF0000FD830208BD
:1014B0000000000000000000000000000000FA43EF
:1014C0000000FA430000803F000000000000000020
:1014D000000000000000000000000000000000000C
:1014E0000000000000000000000000000000803F3D
:1014F000B8140120C42B0120182C0120D6010000B3
:10150000FF1FFF1FFF0000000000000000000000A0
:1015100000000000F40D07080000000000000000BB
:1015200000000000AC0E07080000000000000000F2
:1015300000000000580E0708000000000000000036
:10154000E18D0408163101204D93040800000000CD
:10155000000000005C22070801000000FA00000003
:101560000100000001000000F62D012000FF010035
:10157000F52D012000FF0100F42D012000FF0100E6
:10158000F32D012000FF0100F22D012000FF0100DA
:10159000F12D012000FF0100F02D012000FF0100CE
:1015A000D57004081171040800000000F40E07084B
:1015B000102E0120043201000E2E0120E803D00776
:1015C000010000000C2E0120E803D00701000000FC
:1015D0000A2E0120E803D00701000000082E012098
:1015E000030F0100062E01201900F4010100000084
:1015F000042E01200500F40101000000022E01204C
:10160000003C0100002E01200000B80B010000008A
:10161000FE2D012002FF0100FC2D01203200C40933
:1016200001000000FB2D012000640100FA2D0120C3
:1016300002000000F8C90608F82D01201400E80394
:10164000010000004E2E012000C801004D2E012097
:10165000005001004C2E0120005A01004A2E0120AA
:10166000020000009CC506082CA6070834A607083F
:101670005C3101200100C409000000005A31012042
:101680000100C40900000000583101200100C40914
:1016900000000000563101200100C40900000000D4
:1016A000523101200100C409000000005431012022
:1016B0000100C40900000000503101200100C409EC
:1016C000000000004E3101200100C40900000000AC
:1016D000192F012000C80100182F012000C80100A7
:1016E000162F01200000FFFF0A000000142F012028
:1016F0000100C80001000000122F012032003075E7
:1017000032000000102F01207EFF140005000000B1
:101710000E2F012005002C01050000000C2F0120D8
:10172000055A05001F2F012000FF01001D2F012079
:1017300002000000C00C00201B2F0120030000004D
:10174000800F07081E2F012000FF01001C2F012021
:1017500002000000C00C00201A2F0120030000002E
:10176000800F07082A340120FF7F01002C3401205C
:1017700000000000FFFFFFFF0100000030340120E7
:1017800000000000FFFFFFFF0100000034340120D3
:1017900000000000FFFFFFFF010000004D71040882
:1017A000BD71040800000000900F0708EA2D012019
:1017B000EE02CA0801000000E92D012000C8010066
:1017C00064000000E82D012002C801006400000050
:1017D000E72D012002000000F4C60608383401207D
:1017E0000000803E050000003A34012080C1803EA8
:1017F000050000003C3401200083007D050000004E
:101800003E34012080C1803E0500000040340120AC
:1018100000FF0100423401206400F40101000000D7
:10182000443401206400F40101000000463401202A
:101830006400F401010000004834012004000000AD
:10184000B4C906084934012002000000A8C90608EE
:10185000872E01200D00000050C50608842E0120AF
:1018600000640100822E0120320010270A000000CF
:10187000812E01200D00000050C50608802E012099
:101880000D00000050C506087F2E01200200000058
:1018900088C50608000000000000000000000000ED
:1018A0009C100708E62D01204C00000038C70608F0
:1018B000E42D012003000000D4100708E52D0120CD
:1018C00004000000C8C906087D2E012003000000A6
:1018D000E41007087C2E012003000000E410070834
:1018E000702E0120000A01006E2E01200000E80386
:1018F000010000006C2E01200000E8030100000040
:101900006A2E0120000A0100682E01200000E80371
:1019100001000000662E01200000E8030100000025
:101920005E2E0120C800E80301000000642E0120A3
:101930001400FA0001000000622E01200100E803FB
:1019400001000000602E0120000501005C2E012036
:10195000020000005CC606085A2E01200000F401B7
:1019600001000000582E01200000F40101000000D9
:10197000562E01200000F40101000000542E012029
:101980000000F40101000000522E01200000E803D5
:1019900001000000502E01200000E80301000000BB
:1019A000482E0120006401000A000000472E01209B
:1019B000006401000A000000352E012019640100B6
:1019C000342E01200200000050C60608322E0120ED
:1019D000E803D0070A000000302E01200064010057
:1019E0000A000000252E012000640100242E0120A1
:1019F000006401002C2E0120006401000A00000098
:101A00002B2E0120006401000A0000002A2E012074
:101A1000006401000A0000002F2E012000FF0100D9
:101A20000A0000002E2E012000FF01000A00000025
:101A30002D2E012000FF01000A000000292E0120A8
:101A400001FF01000A000000282E012001FF010013
:101A50000A000000272E012001FF01000A000000FB
:101A60007A2E01200000F40101000000782E0120F0
:101A70000000E80301000000762E01200000E803CA
:101A800001000000742E01200000E80301000000A6
:101A9000722E01200000E803010000001531012032
:101AA000009601000C31012000C801000B3101201B
:101AB000006401000A3101200064010009310120A5
:101AC0000064010008310120006401000731012099
:101AD000FF080100063101200164010011730408B0
:101AE0005573040800000000F41007080F310120AE
:101AF000013201000E3101200100000028C6060855
:101B00000D3101200400000030C606080531012017
:101B1000009601000431012000640100023101201F
:101B20000000FA000A000000013101200A5A0100F9
:101B30000031012000C80100FF30012000C8010071
:101B4000FE30012000C801001231012000320100E6
:101B5000143101200014010013310120004B010059
:101B600011310120040000001CC5060810310120BD
:101B7000006401000A000000202E01200AC80500B0
:101B80000A0000001F2E01200100000074CA060890
:101B9000222E01200AC805000A000000212E012083
:101BA0000100000074CA0608172E012000C80500B5
:101BB0000A0000001E2E012000C805000A000000D7
:101BC000182E012000C805000A000000192E01206F
:101BD00000C805000A0000001C2E012000C80500F6
:101BE0000A0000001D2E012000C805000A000000A8
:101BF0001B2E012000C805000A0000001A2E01203B
:101C000000C805000A000000162E01200200000096
:101C1000ECC40608FC3001200000D00701000000E1
:101C2000F730012000C80100F630012000C8010093
:101C3000F530012000C80100FA3001200000D00773
:101C400001000000F430012000C80100F330012041
:101C500000C80100F230012000C80100F830012066
:101C60000000D00701000000F130012000C8010091
:101C7000F030012000C80100EF30012000C8010051
:101C800090B20708000000000000103401209CB250
:101C90000708070800000000D0120020A4B20708BF
:101CA000070800000000C8120020ACB207080708AF
:101CB00000000000C0120020B4B2070808080000AD
:101CC0000000B4120020BCB20708070800000000A2
:101CD000AC120020C4B20708070800000000A412DC
:101CE0000020CCB207080708000000009C1200206A
:101CF000D4B2070808080000000090120020DCB2EF
:101D0000070807100000000088120020E4B207084E
:101D100007100000000080120020ECB20708071036
:101D20000000000078120020F4B20708081000003C
:101D300000006C1200206CA50708010000000000E4
:101D40000000000000000000100000000000000083
:101D50000000000041760408517604089D940408B0
:101D6000641107088D2E0120005A01008C2E0120DD
:101D700000C801008A2E0120E803D00701000000FE
:101D80000000000000000000159804080012070879
:101D9000242F012003000000DCC40608232F0120AB
:101DA00000030100222F012000030100E576040852
:101DB0003177040800000000541207087D770408FA
:101DC000BD77040800000000F0120708CD76040873
:101DD000C19404080000000070130708202F0120A0
:101DE000010301007DD50408B1D5040800000000FE
:101DF000E41607080D7004083570040800000000A0
:101E0000641707083DD30408BDD304080000000090
:101E1000D4170708F1750408C192040800000000F7
:101E20008C180708418F0408D16F040800000000D7
:101E30003419070851750408000000000000000074
:101E4000D0190708117404087D740408000000000C
:101E5000341A070899730408D573040800000000B9
:101E6000EC1A07083DD10408DD72040800000000E8
:101E7000781B0708152E012001040100E1740408F5
:101E80001D75040800000000901C070881D104089B
:101E9000E191040800000000001D070855720408C5
:101EA000BD900408000000007C1E0708E1D0040873
:101EB0007D90040800000000D8120020132E01209D
:101EC000010401006D7604089D76040800000000FE
:101ED000881F0708B58D04080000000000000000FE
:101EE000EC1F07080578040809FA04080000000040
:101EF000882007080000000000000000000000002B
:101F0000242107082D7204084590040800000000F1
:101F1000A421070800FF00000000000000000000EE
:101F2000E1D404080000000000000000E4230708DA
:101F30000101000000000100213005080000000040
:101F4000000000006029070875C9050800000000AE
:101F500000000000D42807087B2B050800000000C3
:101F6000000000008C2807082D202D2D202D2D2D60
:101F70002D202D2D2D00000000000000000000008D
:101F8000000000000000000101FF0000FFFFFFFF54
:101F90000000803FFF0000004E34012088136F17BF
:101FA000010000005034012088136F17000000006A
:101FB0005234012088136F170100000054340120AF
:101FC00088136F170000000099D404080000000077
:101FD00000000000F42507085A3601200100000027
:101FE000482607085734012001000000542607083E
:101FF000FC340120020000005C260708BDD4040860
:102000000000000000000000682607080000000033
:102010000000000000000000BC26070800000000CF
:1020200000000000000000002C2707084C340120AD
:102030000200000074270708DC3A0120E0150C17A5
:1020400000000000C0120000963B012000000000CC
:1020500000000000943B0120000000000000000090
:10206000923B01200000000000000000903B012096
:1020700000000000000000008E3B01200000000076
:10208000000000008C3B0120000000000000000068
:102090009C160020000000000000000056340120C3
:1020A0000300000064270708000000000000000093
:1020B00000000000802707089A3B0120E0150C175C
:1020C000000000009C3B012002000000742707086C
:1020D0002D202D2D202D2D2D2D202D2D2D2D0000B1
:1020E00000000000000000000000000000000000F0
:1020F000000000000000000000000000B8270708F2
:102100009E3B01209CFF2C0100000000B63A0120FC
:10211000E0150C17000000001E3A0120020000002C
:10212000742707082D202D2D202D2D2D2D202D2D10
:102130002D2D000000000000000000000000000045
:10214000000000000000000000000000000000008F
:10215000F027070801010100905201200000000053
:10216000885201200000000001010000AA5507016B
:1021700000001401FF00000009024300020100C03A
:1021800032090400000102020100052400100105CB
:10219000240100010424020205240600010705822F
:1021A000030800FF09040100020A000000070501FE
:1021B000024000000705810240000000090264009F
:1021C000030100C0320904000001030000000921DE
:1021D000110100012236000705830309000A080BDC
:1021E00001020202010009040100010202010005CE
:1021F0002400100105240100020424020205240623
:102200000102070582030800FF09040200020A0018
:1022100000000705010240000007058102400000A0
:1022200009022000010104C032090400000208066E
:10223000500507058102400000070501024000002B
:1022400012010002EF020140830456320002010233
:102250000301000012010002020200408304405703
:102260000002010203010000040309040101AA5550
:10227000050100000800000005010905A101A100F9
:1022800005010930093109320933093509340936A4
:1022900009371581257F75089508810205091901FF
:1022A000290815002501950875018102C0C00000AC
:1022B00009022200010100E03209040000010301CB
:1022C00002000921110100012236000705830309DC
:1022D000000A0000000000000000000001000000F3
:1022E00000000000000000009A64012000000000CF
:1022F00001000000000000000000000000000000DD
:1023000000000000000000000000000000000000CD
:1023100000000000000000000000000001000000BC
:1023200000000000AA550902000000AA5503009F02
:1023300001000000AA550B010000AA55050100008C
:10234000FF0000000000000001020304010203047A
:102350000607080941E60508E1E605081DE105084C
:10236000B1C205085DEA050895C205087DC20508E9
:10237000C1C20508D1C2050800000000000000002D
:1023800000000000510D0608E10C06082DF90508B3
:10239000ED0B0608D909060899C50508ADC505085D
:1023A000C1C5050800000000000000000102030490
:1023B00006070809C700000005000000060000002D
:1023C0001C1A0020000000000000000000000000B7
:1023D00000000000000000000000000000000000FD
:1023E00000000000000000000000000000000000ED
:1023F00000000000000000000000000000000000DD
:1024000000000000000000000000000000000000CC
:1024100000000000000000000000000000000000BC
:0424200000000000B8
:08280000082800080040000850
:1080000082B01E4B002201920193019B1C4A043353
:108010000193019B1968936803F00C03042B06D0AD
:10802000082B08D0174B184A1A6002B07047154B3E
:10803000196002B070475368506813F4800F00F065
:108040003F00536812D1C3F388130F49B1FBF0F11D
:1080500001FB03F30A4A0B495268C2F301420132A1
:108060005200B3FBF2F30B6002B07047C3F3881306
:10807000B1FBF0F101FB03F3ECE700BF5028004037
:1080800000380240801A00200024F400074BD0F88A
:10809000E4105B68D0F8F0205B1A9A42B8BFC0F8D1
:1080A000F030012380F81C3100207047001000E000
:1080B00090F8DB30052B03D890F81E31032B01D04C
:1080C0000020704790F8233103F0FB03022B0CBF14
:1080D00000200720704700BFB84B00EB800103EB86
:1080E000C10170B54A685268B2F814E01EF0010F81
:1080F0004FEA800C6ED15FFA8EF4A60742D5BFF32B
:108100005F8F91F82040012CE5B200F0D180118BF7
:10811000BFF35F8F0CEB000103EBC10191F820402E
:10812000022C00F0E7800CEB000103EBC10191F899
:108130002040032C07D191F8221021B193F87D1033
:10814000002940F0E780918889B241F480619180F4
:1081500093F97C100CEB000E03EBCE0E9EF820E0A2
:108160000EF1010E8E450CD1002183F87D1093F89D
:108170007E10002940F0B780604403EBC00300226A
:108180005A7770BD65075DD414F0400400F0CB80D1
:10819000148A93F97C508E6AE4B274555FFA85FEB6
:1081A0000EF1010464B291F8206083F87C40E51C74
:1081B000AE42214600F025810CEB000503EBC5051E
:1081C00095F82050AC42C5D10EF1020149B283F8B6
:1081D0007C10BFE7B2F800E02EF4006E4FEA0E4EBE
:1081E0004FEA1E4EA2F800E01488A4B244F4806462
:1081F000148091F82240002583F87C50002C48D050
:1082000093F87D40002C41D0012183F87D100CEBC8
:10821000000103EBC10191F82010022904D111885B
:1082200089B241F4006111800CEB000103EBC10144
:10823000897F41F001011182604403EBC00393F890
:10824000203070BD91F82240012583F87E50002C2B
:1082500070D093F87D40002C71D10CEB000103EB42
:10826000C10191F82110002900F0AA80118889B27B
:1082700041F40071118093F87C1001314CB283F805
:108280007C401188CE05FCD4214663E7C97FFF29D5
:10829000BAD00CEB000103EBC1018C7F04F0FE04AB
:1082A0001482CA7FFF2AC7D0FF2283F87C20C3E74D
:1082B00091F8221000293FF42AAF93F87D1000298D
:1082C0003FF425AF118821F480610904090C118065
:1082D000BFF35F8F118B118883F87E5089B241F410
:1082E000007111802FE7918821F440710904090C75
:1082F000918041E791F8221000293FF414AF93F8E0
:108300007D1000293FF40FAF118821F4806109042A
:10831000090C1180918821F480610904090C918075
:1083200093F97C1016E71FFA8EF52D062DD493F9DC
:108330007C100FE793F87D1000298ED096E791F816
:108340002040022C148846D924F480642404240C90
:108350001480158A8E6A93F97C40EDB235558E6A89
:10836000118889B241F400711180E4B2158A611C50
:1083700049B2EDB275549188023489B264B241F4C5
:10838000806183F87C4091807BE793F97C506E1C80
:108390003ED04C6A665D16826C1C91F8205064B227
:1083A000A54283F87C4021467FF4D4AE948824F41F
:1083B00080642404240C9480CCE600BF801A002042
:1083C000118893F97C4089B241F4807111800121B8
:1083D00083F87D1055E7A4B244F400741480158A24
:1083E0008E6A93F97C40EDB23555E4B28E6A158AF7
:1083F000611C49B20334EDB264B2755483F87C4019
:108400003FE7958825F480652D042D0C9580D3E6F3
:1084100083F87C40CC7F148291F8224024B991F8F3
:10842000201000297FF408AF918821F480610904AD
:10843000090C918000E700BF30B5EAB18E464FEAE3
:10844000014C034600F1C005002419689A6841EA0E
:108450000C0142EA0E029A60C3E900140C33AB42ED
:10846000F3D1D0F8C030C0F8C44043EA0E03C0F8DE
:10847000C030C0F8C84030BD4FEA014E8C46E0E73E
:10848000836930B41C6999682268096822F0010286
:1084900022608A899C8992B222EA04028A81027D42
:1084A00000681F2A06D94468203A082191402142D9
:1084B00017D0FEE70468082191402142F9D120211C
:1084C00001FA02F28260234A92F87F203AB11A7EC2
:1084D000012A0BD1D3F8F8200132C3F8F82030BCC0
:1084E0007047202101FA02F2C260ECE7D3F8F420D1
:1084F0000132C3F8F420EFF31181502282F3128885
:1085000058685C6C026822EA04029C6C2243C9B27F
:10851000026081F31188D3E90C401A6999681D6CD7
:10852000096814605061D3E90E40546090600024E3
:10853000B3F8A800D5604C62C862106801242043DB
:1085400010601C768A899B8913439BB230BC8B8157
:10855000704700BF801A0020704700BF024B03EB3A
:10856000401090F89D007047801A00204368B0F8D2
:10857000502010B41A83EFF31182502383F3128832
:108580004168446C0B6823EA0403C46C2343D2B2F1
:108590000B6082F31188D0E9074182680369126891
:1085A0001C605961D0E909415C60C46A9960B0F807
:1085B0006010DC600023D1625DF8044B03767047E5
:1085C000084B10B5D3F8803118440C46007E19F0E2
:1085D0008DF818B1036882880CB11A8310BD5A83D4
:1085E000FCE700BF801A0020037D1F2B30B54FF041
:1085F0002002046816D9A3F120056168AA400A4246
:108600000FD00C4A002182F8841141680A681F2BA0
:1086100022F001020A604FF0200206D9203B9A4066
:10862000E26030BD21689A40E9E702FA03F3A360F3
:10863000F7E700BF801A0020F0B4037D85691F2B87
:1086400063D90168A3F120024E6820249440264299
:1086500049D010239340CC60CB604B68D340DE07F9
:1086600067D4EFF31183502282F312882A6C1168C9
:10867000C9072FD4516889B271B9D5E90964A642F6
:1086800025D0AF692744D76058D9341BA4B25460B1
:10869000AE62002185F86410116841F00101DBB27F
:1086A000116083F31188037D1F2B19D802681946C6
:1086B000106808238B40184200D093601068042390
:1086C00003FA01F1014200D09160F0BC7047012231
:1086D00085F86420DBB283F31188037D1F2BE5D975
:1086E0000168A3F120024C6808209040044200D0A9
:1086F000C8604C68042000FA02F22242E5D0203B18
:1087000000FA03F3F0BCCB607047026820241668BF
:108710009C4026421946CBD010219940946091602C
:108720001168D940CC079CD5012101FA03F393606D
:1087300097E7012303FA02F2CA6092E72E69341B1D
:10874000A4B25460A962A4E74FF400638381704728
:10875000074BD0F8E4105B68D0F8F0205B1A934226
:10876000C8BFC0F8F030012380F81C3100207047EA
:10877000001000E04FF40063838170474FF4006302
:10878000838170474FF4006383817047012380F831
:108790001031704707B500238DF807300DF107023F
:1087A00001230F2117F01CFB28B19DF807306C2B1B
:1087B00014BF0020102003B05DF804FB4FF40063E9
:1087C000838170474FF40063838170474FF40063E7
:1087D00083817047704701207047012070472DE961
:1087E000F047DFF88081D8F88851B8F88C21B8F8C4
:1087F0009291C2EB25135200C2EBE502B8F98E51FB
:108800006A4303FB03F5B8F990312D135D43AD13B3
:1088100005EBE225B8F99631C8F8A4510E46A5F546
:10882000FA31074681FB010C4FEAE37E03FB0CF2B1
:1088300000FB0E22A3FB003E9644B8F9942182FB74
:1088400001421B0A120343EA0E6342EA1452240354
:108850001B1942EB2E2202F50042A3FB093E09FB45
:1088600002EE4FEAEE734FEA6E0253EA6E0E4FF0DD
:1088700000046BD0B8F99C914FEAE97E09FB0CFC2F
:1088800000FB0ECCA9FB00908444B8F99A0180FB50
:1088900001E148044FEA4E4111EB0909D8F8A8114B
:1088A00040EADE304CEB0000C1F5801C0CF0004AC1
:1088B000B8F9981114EB09044AEA5C0A4FEACC7C37
:1088C00000EBC10140F63549BCEB04006AEB010A3C
:1088D000A0FB090109FB0A1160F06EFCB8F9A24186
:1088E0004FEA613E430B43EAC14304FB0EF24FEAF9
:1088F000E47C03FB0C2CA4FB0342624404FB0EFE4D
:1089000003FB02EEA4FB0343B8F9A0219E44640ECE
:1089100044EACE1414EB000C02FB01F34FEAE274BC
:10892000814641EB6E6EA2FB092904FB00314944EC
:10893000D40C44EA41341CEB0404B8F99E314EEBEC
:10894000E141240A44EA016404EB03140FB1240A50
:108950003C6026B105EB850580352D123560BDE8FC
:10896000F08700BF801A002000B583B04FF0000CE4
:1089700001230DF10702112198388DF807C017F077
:108980002FFA03B05DF804FB704700BF0120704769
:108990000120704708B500685DF080FCE0B90F4B1E
:1089A00093F8AD2193F8AC11120142EA013293F829
:1089B000AE1142EA1112C3F8A82193F8B02193F83E
:1089C000AF11120142EA013293F8B11142EA1112D9
:1089D000C3F88821012008BD0020FCE7801A002090
:1089E00003681A78012A1CD0144B00B593F8BA1109
:1089F00093F8B9C193F8B80193F8BD2193F8BCE19D
:108A0000090441EA0C210143120493F8BB01C3F8A5
:108A1000B41142EA0E220243C3F8C02101205DF8DE
:108A200004FB93F90420054B02EB820203EBC20224
:108A3000527F002AD9D00020704700BF801A002042
:108A40002DE9F04FC84C83B0B4F8C431D4F8C0213C
:108A500094F9C851CDE90001B4F8C611A2EB032284
:108A6000A1FB02139E04A2FB0223EF1705FB03F3F5
:108A700002FB073346EA9136A5FB025289046D18C2
:108A80001A4442EB0603002B02DA013D43F10003D6
:108A9000009ADF17C4E97837002A00F0148103FB3D
:108AA00007F1A3FB032E0EEB410E4FEA921C4CEA9A
:108AB0008E6C0CFB07FB4FEAAE1103FB01BBACFB5A
:108AC00003C81BEB080BD4F8B45100F1488194F9AA
:108AD000CE114FEA1C2C4CEA0B6C4FEA2B2B4FEAC1
:108AE000E17801FB0BFA0CFB08AAA1FB0C181AEBAE
:108AF000080800F13081B4F9C961B4F9CB91490992
:108B000041EAC8610846A6F5804694F9CD11B6033E
:108B100006EB681ACE1701FB0EF802FB0688A1FBD4
:108B200002164644B60046EA91768900A9F58049C6
:108B300041184AEB060609FB07F84FEAE97A03FBFE
:108B40000A88A9FB039AD0444FEA485848EAD92832
:108B50004FEA495911EB090146EB0806002EC0F215
:108B6000F38094F9D49109FB0BFB4FEAE9780CFBF5
:108B700008BBA9FB0C98090E1BEB080841EA06216B
:108B80004FEA266600F1DB804FEA591C94F9D39135
:108B9000B4F8D1A109FB0EFE4FEAE97B02FB0BEE14
:108BA000A9FB0229CE444FEA0E1E4CEAC86C4EEADD
:108BB000127E12011CEB020CB4F8CF214FEAC23234
:108BC00002EB6818AAFB03920AFB072A4FEA8A5AAB
:108BD0004AEA992A4FEA895948EB0E081CEB090921
:108BE00048EB0A08B8F1000FC0F2A48094F9D7E16D
:108BF000B4F9D5B14FEA9909A1FB051249EA887980
:108C000019EB010905FB06264FEAEE710EFB07F290
:108C10004FEA0B4C03FB0122AEFB03E146EBA80637
:108C20000A441EEB0C0E42EBEB7BAEFB05CE05FBC4
:108C30000BEEBEF1000F76DB4FEA5C3C4CEACE4C0B
:108C4000ACFB05C14FEA6E3E05FB0E1EBEF1000FE8
:108C500062DB4FEA5C2C94F9D8214CEACE5C19EB2C
:108C60000C0146EB6E264FEAE27CA5FB054E04FBA9
:108C70000CFC02FB0ECCA4FB02421CEB020C45D404
:108C8000220C42EA0C42A2FB05244FEA2C4C05FBC5
:108C90000C4CBCF1000F35DBD20942EA4C62521891
:108CA00046EBEC16941846EB060CA41846EB0C0C9D
:108CB0004FEACC0C4CEA547CE400A41846EB0C06BA
:108CC000009A360C1660019A9AB1DA1847EB070140
:108CD000D21847EB0101C90041EA5271D200D31802
:108CE00047EB0107002F07DB019A9B0B43EA874301
:108CF000136003B0BDE8F08F43F6FF729B1847F195
:108D00000007F1E77F324CF1000CC5E74FF6FF7228
:108D1000A4184CF1000CB3E740F2FF111CEB010C5E
:108D20004EF1000E95E741F6FF721CEB020C4EF17E
:108D3000000E81E719F1030948F1000856E719F11F
:108D40001F0948F100081FE76FF07F4911EB090187
:108D500046F1000605E71F3148F10008CBE61CF19B
:108D6000FF0C4BF1000BB2E6801A00203A4B9FED4E
:108D70003B4A93F8E92193F8E80193F8EA1193F854
:108D8000EBC1120202EB00421144120248BF01F192
:108D90007F4107EE901AB3F9041293F8EC0193F8AF
:108DA000ED2106EE101AB3F90012B8EEE77A06EEDE
:108DB000901AB3F90212D3ED7E7A27EE047AB8EE58
:108DC000C66A05EE101AF8EEE66AB3F9FE11000263
:108DD00000EB0C400244E7EE066A000248BF02F1D5
:108DE0007F4205EE901AB8EEE76AB8EEC55A07EE74
:108DF000902AF8EEE55AB3F9FC21E7EE055A012076
:108E0000A6EE876A04EE902AD3ED7D6AB3F9F221CB
:108E1000F8EEE77A05EE102A67EE847AF8EEE44A77
:108E2000B3F9F021F8EEE66AA5EEA76AE7EEA46AC8
:108E300005EE902AB8EEC55AF8EEE55A67EE857A47
:108E4000B6EE005AE7EE066AE5EE857AC3ED826A71
:108E5000C3ED837A704700BF801A00200821843652
:108E600030B10A4BD3ED827AFDEEE77AC0ED007A9D
:108E700051B1064B9FED067AD3ED837A67EE877A80
:108E8000FDEEE77AC1ED007A704700BF801A00203E
:108E90000000C842704700BF0120704701207047A2
:108EA000704770470120704730B585B000238DF8BA
:108EB00007300DF107020123E721054616F0B8FF40
:108EC0009DF80730134C13F0030320D0052302AAAA
:108ED000E821284616F0ACFF9DF80A209DF80910FD
:108EE000130443EA01239DF8081012F0800F43EAAF
:108EF000010314BF4FF07F4200221343C4F8103225
:108F0000BDF80B30A4F81432012005B030BDC4F810
:108F10001032F7E7801A00200B4A10B5D2F8104241
:108F20006423634348BF03F6FF731B130360B2F867
:108F300014320A2253433022B3FBF2F303F5845375
:108F40001A330B6010BD00BF801A002008B50068FE
:108F50005DF0A4F970B9084A92F81D3292F81C121B
:108F60001B0243EA014392F81E120B43C2F8183267
:108F7000012008BD0020FCE7801A002010B504463F
:108F800000685DF08BF938B92046044A0623F721C2
:108F90005FF052FB012010BD0020FCE72C1C0020DC
:108FA00008B503681A78012A06D0094A0623042165
:108FB0005FF042FB012008BD93F90430054A03EB42
:108FC000830302EBC3035B7F002BEED0002008BDC0
:108FD000381C0020801A002008B503681A78012A7E
:108FE00006D0094A062300215FF026FB012008BDB8
:108FF00093F90430054A03EB830302EBC3035B7F61
:10900000002BEED0002008BD681C0020801A002034
:1090100008B500685DF042F970B9084A92F81D324F
:1090200092F81C121B0243EA014392F81E120B43F2
:10903000C2F82032012008BD0020FCE7801A002081
:109040002DE9F74F564AB2F82E32B2F82A62B2F83A
:109050003072CDE90001D2F818121B02C91AB2F819
:109060002C326EEB0E0EA3FB010403FB0E44B2F890
:109070002832C00940EA44601B04C018A6FB013531
:1090800006FB0E55B2F826624FEA132343EA056346
:109090004FEAC6364FEAE41444F100049B19A7FBDB
:1090A000012607FB0E664FEAD25242EA46224FEAF9
:1090B000252545F10005F61512F5FA6C46F1000B71
:1090C000BCF5FA6F7BF100074CDAA2FB02784FF097
:1090D000050A02FB06F908EB4909A7FB0A780AFB17
:1090E00009884FEA570949EAC879BF08B0EB090077
:1090F00047EA887764EB6804DB1B2A4F65EBA80519
:10910000BC454FF0FF377BEB070720DA40F6AC5742
:10911000D21946F100065643A2FB027202EB460644
:109120004FEAC608FA00BA1A48EA577866EB080808
:10913000101844EB08044FF00B08A7FB087208FB5B
:1091400006267F0847EAC677DB1B65EB660501FB51
:109150000EFEA1FB011202EB4E0EC90F41EA4E01B9
:10916000BCEB010C009A9AB10D4AD2F82012A1FB77
:10917000032301FB0535520D42EAC522121A4FEABC
:109180006555009B65EB0404D20B42EA44421A6029
:10919000019B0BB1C3F800C003B0BDE8F08F00BF66
:1091A000801A002024FAFFFF704701207047012039
:1091B000704710B5044600685DF070F838B9204675
:1091C000044A0623F7215FF037FA012010BD002082
:1091D000FCE700BFB41C002008B500685DF05EF835
:1091E000D0B90E4B93F8352293F83412120242EAAA
:1091F000014293F836120A43C3F83C2293F838220E
:1092000093F83712120242EA014293F839120A43E4
:10921000C3F84022012008BD0020FCE7801A00208E
:109220002A4BD3F8402293ED936AD3ED926AD3EDA3
:10923000917AD3ED965AD3ED954A93ED9A4A93EDF0
:10924000985AA2F5000207EE102AB8EEC77AD3F8B2
:109250003C22E7EE066AA2F5000293ED976AE7EE7C
:10926000267A93ED947AE5EEA74A06EE902AA7EEC9
:10927000A47AF8EEE66AD3ED995AD3ED9C4AA4EEAF
:10928000275AE6EEA45A93ED9B4AA5EE276AE4EE30
:10929000275AA5EEA66AA6EE867AB5EE407AF1EEDA
:1092A00010FA18BFBDEEC77AF5EE407A18BF80ED10
:1092B000007AF1EE10FA08D0FDEEE77A17EE903A58
:1092C000002BB8BFFF331B120B607047801A0020C1
:1092D00010B5074C94F874320BB9002010BD19F08A
:1092E00051F8D4F87832C01AD0F5FA50F6D5F4E730
:1092F000801A002070B505460C46FFF7E9FF2B6881
:109300005D6808B119F076F8064B002283F87422E4
:109310002846224693F87532BDE87040492116F080
:1093200087BD00BF801A0020B0F90000084B414300
:10933000994208DBB1F5000F07DA0029B8BFFF3109
:10934000081200B270470348FBE747F6FF70F8E7E2
:1093500001FF7FFF0080FFFF704710B50D4C2378A1
:1093600043B10C300C4A062303215FF065F900205D
:10937000207010BD094BB3F87C2252BA0A80B3F8B2
:109380007E2252BA8A80B3F880325BBA4B800120C9
:10939000EEE700BF98010020FC1C0020801A00208E
:1093A00010B5124C637843B10C30114A06232821C2
:1093B0005FF042F90020607010BD0E4AB2F98232AF
:1093C000002BB8BF03339B100B80B2F98432002B03
:1093D000B8BF03339B104B80B2F98632002BB8BF65
:1093E00003339B108B800120E5E700BF980100202C
:1093F000021D0020801A002010B5174C94F8883206
:10940000012B00F10C000CD0022B17D0012304F229
:10941000892206215FF010F9012384F888320020A8
:1094200010BD94F8893213F00403F6D0062304F239
:109430008A2200215FF000F90223EEE7B4F88A32B5
:109440000B80B4F88C324B80B4F88E328B800023C2
:1094500084F888320120E3E7801A002038B58022A2
:109460006B21054616F00EFC642019F0ABF9F521CE
:10947000284616F031FDAC2818D005D8122817D090
:10948000982817D000240FE0AF28FBD10924102220
:109490006A21284616F0F6FB28460322682116F0BA
:1094A000F1FB642019F08EF9204638BD0724EEE761
:1094B0000824ECE70B24EAE738B500224E210546E4
:1094C00016F0E0FB1524962019F07CF9F5212846CA
:1094D00016F002FD422807D0472807D0013C14F0BF
:1094E000FF04F0D1204638BD0C24FBE70D24F9E73A
:1094F00038B580226B21044616F0C4FB642019F0B5
:1095000061F9F521204616F0E7FC0546012018F028
:1095100071FF682D1BD18C21204616F0DDFC182828
:109520000DD8142834BF00250325204607226821C2
:1095300016F0A8FB642019F045F9284638BDA0F1C3
:109540005403DBB2072B34BF03250025EDE70025CC
:10955000F3E708B5F52116F0BFFC702818D008D83D
:10956000422817D0472817D0122814BF00200820FF
:1095700008BDAC2812D006D800F0FD00712814BF39
:1095800000200620F4E7AF2814BF00200920EFE7F1
:109590000520EDE70C20EBE70D20E9E70720E7E7E2
:1095A000164BD0F8E0105A6810B50446D0F8D80031
:1095B00071B1131A99420BDC94F8D030C4F8D8205A
:1095C000012B10D0D4F8D4300133C4F8D43010BDFE
:1095D000D4F8E430C4F8D8200344C4F8DC3094F85C
:1095E000D030012BEED104F1E801201D16F0DEFA97
:1095F000D4F8D4300133C4F8D43010BD001000E0EA
:1096000010B504460E49D0F8D83094F8D020D0F8E0
:10961000E40049680344012AC4E9361305D0D4F8AC
:10962000D4300133C4F8D43010BD04F1E801201D5A
:1096300016F0BCFAD4F8D4300133C4F8D43010BDDD
:10964000001000E070B5866996F8DC30012B8AB016
:10965000054623D0023B012B2BD8D6F89C30164C64
:109660008C221A700FCCEC46ACE80F00D6F89C3078
:109670000093D6F8A03001930FCCACE80F0094E82B
:109680000300AB698CE8030003F11000694616F093
:109690008DFAAB691A69136A002BFCD1D6F8A03099
:1096A000B3F90220EA81B3F904202A82B3F9063023
:1096B0006B8201200AB070BD24AE0608F0B5836944
:1096C00093F8DC20012A8BB0054627D0023A012A04
:1096D0002FD893F84C21D3F89C10174C62F07F03DD
:1096E0000B708669D6F8A0305F1C0FCCEC46ACE856
:1096F0000F00D6F89C30CDE900370FCCACE80F0056
:1097000094E803008CE80300694606F1100016F0A7
:109710004DFAAB6919690A6A002AFCD1D3F8A03066
:109720005A8852BAEA819A8852BA2A82DB885BBA8E
:109730006B8201200BB0F0BD4CAE0608F0B590F87E
:10974000DC30D0F8A060012B8BB004464BD015D88C
:10975000D0F89C304FF0FF321A605A609A60DA609D
:10976000D0F8E0300522B3F57A7FC0F8F02054D865
:10977000032380F8DC3001200BB0F0BD023B012B4D
:10978000F9D890F84D31D0F89C203A4D63F07F0322
:109790001370D0F8A0305F1C0FCDEC46ACE80F0082
:1097A000D4F89C30CDE900370FCDACE80F0095E838
:1097B00003008CE80300694604F1100016F0F6F986
:1097C0002269136A002BFCD173885BBAA4F8D030ED
:1097D000B3885BBAA4F8D230F38801205BBAA4F84E
:1097E000D4300BB0F0BD90F84C2190F84D319B1A5D
:1097F0005B100133DBB206EB430236F813305BBA81
:10980000A0F8D03053885BBAA0F8D23093885BBA06
:10981000A0F8D43001200BB0F0BD03691A7B2AB345
:109820005B691BB390F8983003B390F84C31D0F8D3
:109830009C20C4F8A40063F07F03137090F84C11CF
:1098400090F84D31D0F8A0200B48C4F804015B1A01
:1098500007330121C4F8FC30D4F89C3084F800119F
:109860000A44C4E93D3284F8DC1084E7022384F81A
:10987000DC3080E74CAE06088D800008F0B590F82B
:109880001E31032B8DB0054658D090F8DC30D0F84F
:10989000A060012B00F08E8015D8D0F89C300022FB
:1098A0001A605A609A609A81D0F8E0300522B3F5C8
:1098B0007A7FC0F8F02036D80323012480F8DC300A
:1098C00020460DB0F0BD023B012B33D8D0F89C30C0
:1098D000554F92221A700FCF02AC0FC40FCF0FC496
:1098E00097E80300D5F89C3084E80300029302A9AE
:1098F000D5F8A030039305F1100016F057F92A6946
:10990000136A002BFCD1B6F90230A5F8D030B6F9B5
:109910000430A5F8D230B6F90630A5F8D4300124C9
:1099200020460DB0F0BD03691A7B002A5AD10223EC
:1099300085F8DC30012420460DB0F0BD3B49029192
:109940003B4903910A21002301221030049102A90E
:109950008DF814208DF828200190CDE90633CDE94B
:1099600008330B9316F022F92A690198136A002B29
:10997000FCD13049B1F89222052A19DDB1F994429F
:10998000D1F89462B1F99672B1F9981214F5004FBA
:1099900020D0C5F8D060A5F8D4100124063A002ADA
:1099A000C9D0B0227E2116F06DF920460DB0F0BD71
:1099B0001C46F4E7B6F90820A0F8D020B6F90A2032
:1099C000A0F8D220B6F90C20A0F8D4201C462046DE
:1099D0000DB0F0BD17F5004FDBD111F5004FD8D118
:1099E0001C46DBE75B69002BA1D090F89840002C67
:1099F0009DD0D0F89C30C5F8A4008C221A70D0F805
:109A0000A020C0F8F8200E2201230B49C0F8FC204A
:109A1000D0F89C20C0F80411C0F8F42080F8003180
:109A200080F8DC3087E700BF24AE06089C010020E8
:109A3000101D0020801A0020518700082DE9F047F2
:109A4000044690F8210144F23B3382B0A4F84C3133
:109A500010B902B0BDE8F0870509013D042D00F002
:109A60000F0071D83A4F07EB4503B3F8503043FA73
:109A700000F2D20768D5012606FA00F00138184036
:109A80003D445FF0E9FBDFF8D89095F85C80314BFE
:109A9000804409F5277A0AEBC8052622EA80E360AC
:109AA000AB88B3FA83F3202BC3F11F02D1D0174444
:109AB00009EB82020C34C2F81C45284697F8644032
:109AC00016F0ACFF0021284616F0E0FF5AF83800E7
:109AD000A98800F13F40B1FA81F100F57E00C1F1A3
:109AE0001F01C0F38720C9B256F074FCAA888DF814
:109AF0000660B2FA82F24FF00043A144D3406846B8
:109B00004FF400620093ADF804205CF0C5F999F8B9
:109B10005C35F02B0ED8AB884FF00042B3FA83F3DC
:109B200032FA03F395D00C490A6813430B6002B074
:109B3000BDE8F087094AF023105D89F85C35002202
:109B400003215CF027FBE6E7024BE36081E700BFFF
:109B500024AE0608A1950008003C0140682F0708C4
:109B6000801A002038B500F110040546194815F098
:109B7000A5FFA8822846FFF761FF01226B2120463E
:109B800016F080F8782018F035FC204618221B21AA
:109B900016F078F8204618221C2116F073F8284693
:109BA000FEF786FA1A210246204616F06BF895F861
:109BB00020212046192116F065F820461022372171
:109BC00016F060F820460122BDE83840382116F032
:109BD00059B800BF00127A0037B5054600F11004ED
:109BE000354815F06BFFA8822846FFF727FF42F2A1
:109BF0001F53A5F84C310F224E21204616F042F893
:109C00000F2018F0DFFD95F8DB30002B4ED095F8D3
:109C100020210132D3B20822B2FBF3F2082AD3B2D8
:109C200040D0042A40D0022B02D0012B3ED1032386
:109C3000224A02EB430393F8752002F00F024F21F2
:109C40002046019216F01EF80F2018F0BBFD019A75
:109C50005021204616F016F80F2018F0B3FD2046CC
:109C6000EE22522116F00EF820460322142116F09F
:109C700009F820460022632116F004F80822204645
:109C8000652115F0FFFFE421204616F025F900F0CC
:109C9000EF0040F060026421204603B0BDE8304090
:109CA00015F0F0BF0023C3E70123C1E7002385F8C7
:109CB000DB300622C1E700BF00366E0124AE060885
:109CC0002DE9F04F2DED028BB24C87B094F87F3028
:109CD000019303BBD4F8EC39002B16DD0026AE4807
:109CE00031460769D0F8A0303D6825F0010503F141
:109CF000C0023D6059600C339A42FBD1D4F8EC3974
:109D00000136B34200F58070EBDC012007B0BDECFA
:109D1000028BBDE8F08FD4F8643508EE103A18F0E5
:109D200031FBD4F86835D4F86C251433801AB0EBC5
:109D3000430FC0F262810025CDE9025504F5AE67FC
:109D4000DFF85CB204F1800604F5056AB846D4F881
:109D5000C439AB4240F3BB809AF80C3013F0FE0FCD
:109D600040F00A8194F8B83903EB430304EBC303D2
:109D70002B4493F865390D2B0CBF072300238DF876
:109D80001730B36970681A6952681FFA82FCD3F8F9
:109D9000EC20D3F8E830A2EB0C0C800000F1085066
:109DA0000CF1806700EB4310393F00EB8717024648
:109DB000974240F28280116802F58073002900F01A
:109DC000DD80116C002900F0DC80D2F880100029C1
:109DD00000F0DA80D2F8C0101A460029E8D19F427C
:109DE0006BD9191AACEBA11145294FF0000728BF18
:109DF000452103EB81119E4638464FF00109BC46D0
:109E00000CE01A6C002A75D1D3F88020002A40F0AB
:109E10009980D3F8C02003F580732AB9994205D9F7
:109E20001A68002AEDD04033994266D86746112F50
:109E300043D9CCF11503002B3FDB08D000FA03F324
:109E4000CCF11407012000FA07F747EA0300C0F33A
:109E5000C4330BEB8303D96F00F01F030BEB8303B9
:109E6000DA6F42EA0132C0F34411C0F384230BEBF2
:109E700081010BEB8303C86FDB6F42EA001040EAFD
:109E8000032080EA102383EA131303F00F030F2B40
:109E900003D1B0F5803FC0F08580D4F85838013345
:109EA000C4F85838D4F854380133C4F85438002171
:109EB00018EE102A404615F049FB0135082D08F12F
:109EC0005C0806F120060AF1140A7FF440AF029BF9
:109ED000002B3FF4FFAEDDE90223C821B3FBF2F310
:109EE0009BB294F8EA2901FB03F3B3FBF2F3C4F845
:109EF0005439EFE68033994298D9A3EB0E029211C0
:109F0000571C264A82FB07E2A2EBE772012AB8BF80
:109F1000012290409444013A09FA02F210431F468C
:109F20003A688AB13A6C92B3D7F88020002A62D09E
:109F3000D7F8C02007F580773AB1B942F0D89E46ED
:109F40003B466BE7C0336FE74037B942F7D9FB1A9E
:109F50009B115A1C114B83FB02E3A3EBE273012B11
:109F6000B8BF012398409C44013B09FA03F318430E
:109F70003B469E463B4651E7082300E702F140037B
:109F80002DE702F180032AE702F1C00327E78037BB
:109F9000DBE700BF801A002070240020565555557D
:109FA00024AE060800090DF1170115F009FB4FF664
:109FB000FE739842074680D0D4F858380133C4F86D
:109FC00058384FF6FF7398423FF46CAF9DF8171066
:109FD00029B9039B03440393029B01330293BAB252
:109FE000E8B215F077F9032D03DC94F8B9392D2B7D
:109FF00009D001995CE7C037A7E7002007B0BDECA6
:10A00000028BBDE8F08F024B019923F815704FE7E2
:10A010003C2400202DE9F0412F4F07EB401898F821
:10A020009C300BB9BDE8F0818C2303FB00730E4616
:10A0300093F8F22D88F88220002183F8F21D04465F
:10A04000450115F0E3FCC0BB3D442448A5F8806001
:10A0500000EB441015F01EF997F87F30D5F89820E2
:10A06000A3B1D5F88410D2F8A03001248C4003F1BC
:10A07000C001420010F4004F90B202D15A6822434E
:10A080005A600C339942F4D1BDE8F081D5F8844090
:10A09000D2F8A03004F110020124944003F1C00171
:10A0A000420010F4004F90B202D15A6822435A6025
:10A0B0000C339942F4D1BDE8F08197F8B83903EB3D
:10A0C000430307EBC303234493F86569002EBBD019
:10A0D000012388F88230B7E7801A0020001B002097
:10A0E00010B5044660F0DEF881B22046BDE81040AD
:10A0F00090E700BF10B57D4B7D4C93F8B83994F8CC
:10A1000058219A4240F0988194F85921002A00F091
:10A11000EC8094F85A31002B40F0EC80D4F85C11BC
:10A12000088820F080000004000C0880B4F860016A
:10A13000C862088880B240F0800008804B62B1F8A5
:10A140000CC0B4F8700140EA0C0080B2012A88818A
:10A15000A4F8703100F0C980D4F87411088820F098
:10A1600080000004000C0880B4F87801C8620888F8
:10A1700080B240F0800008804B62B1F80CC0B4F8A7
:10A18000880140EA0C0080B2022A8881A4F8883154
:10A1900000F0AB80D4F88C11088820F08000000417
:10A1A000000C0880B4F89001C862088880B240F0C2
:10A1B000800008804B62B1F80CC0B4F8A00140EAFE
:10A1C0000C0080B2032A8881A4F8A03100F08D80B1
:10A1D000D4F8A411088820F080000004000C088046
:10A1E000B4F8A801C862088880B240F080000880F6
:10A1F0004B62B1F80CC0B4F8B80140EA0C0080B270
:10A20000042A8881A4F8B8316FD0D4F8BC1108882A
:10A2100020F080000004000C0880B4F8C001C8627F
:10A22000088880B240F0800008804B62B1F80CC012
:10A23000B4F8D00140EA0C0080B2052A8881A4F865
:10A24000D03152D0D4F8D411088820F08000000416
:10A25000000C0880B4F8D801C862088880B240F0C9
:10A26000800008804B62B1F80CC0B4F8E80140EA05
:10A270000C0080B2062A8881A4F8E83135D0D4F8E1
:10A28000EC11088820F080000004000C0880B4F86D
:10A29000F001C862088880B240F0800008804B62FC
:10A2A000B1F80CC0B4F8000240EA0C0080B2072AF2
:10A2B0008881A4F8003218D0D4F80422B4F8080237
:10A2C000118821F080010904090C1180D0621088E6
:10A2D000B4F8181280B240F0800010805362908968
:10A2E000014389B29181A4F8183210BD801A002070
:10A2F000782B0020D4F86431B4F8681159601968DB
:10A30000D4F85C0141F00101196040F20D33A0F86E
:10A310004830818989B241F48071012A8181E4D079
:10A32000D4F87C11B4F880014860086840F001005E
:10A330000860D4F87401A0F84830818989B241F4EA
:10A340008071022A8181D0D0D4F89411B4F8980198
:10A350004860086840F001000860D4F88C01A0F85B
:10A360004830818989B241F48071032A8181BCD04F
:10A37000D4F8AC11B4F8B0014860086840F00100AE
:10A380000860D4F8A401A0F84830818989B241F46A
:10A390008071042A8181A8D0D4F8C411B4F8C8010E
:10A3A0004860086840F001000860D4F8BC01A0F8DB
:10A3B0004830818989B241F48071052A818194D025
:10A3C000D4F8DC11B4F8E0014860086840F00100FE
:10A3D0000860D4F8D401A0F84830818989B241F4EA
:10A3E0008071062A818180D0D4F8F411B4F8F80184
:10A3F0004860086840F001000860D4F8EC01A0F85B
:10A400004830818989B241F48071072A81813FF403
:10A410006CAFD4F80C12B4F810224A600868D4F873
:10A42000042240F001000860A2F8483093899BB2F2
:10A4300043F48073938110BD5BF078F900287FF4BA
:10A4400063AE10BD2DE9F843264F274E97F85821EB
:10A4500096F8B8399A423ED1D6F8EC59002D14DD61
:10A46000002496F87F802148A1460134B8F1000FFE
:10A4700002D0037E012B29D002691368A54243F064
:10A48000010300F580701360EFD1194B5B68C3F3D3
:10A490000803C3B9EFF31183ABB917F04FFFD7F837
:10A4A0001C42C6F86C05002C0BDD124A02EBC404FA
:10A4B000116893888889083203439BB294428B8148
:10A4C000F6D1BDE8F88317F0D7FDE8E780F8F09003
:10A4D000FEF74CF8D0E75BF029F90028BCD1BDE8C5
:10A4E000F88300BF782B0020801A00207024002001
:10A4F00000ED00E0982D00202DE9F047836882B040
:10A50000804613B11A689B8853835F4B5B68C3F323
:10A510000803002B40F0B380EFF31183002B40F0D1
:10A52000AE8017F00BFF0546574F584E584C05E0CC
:10A5300017F004FF431BB3F57A7F30D27B68C3F377
:10A5400008031BB9EFF31183002BF1D0EFF3118255
:10A55000102383F312884FF0E0210120D1F818C0B6
:10A560000B69DB0303D5C6F84002D1F818C0D4F854
:10A5700064E5D6F84002D2B282F31188D6F84412CC
:10A580004FF47A7202FB01F37044A3EB0C03B3FBAC
:10A59000F1F302FB0030431BB3F57A7FCED3D8F83A
:10A5A000083013B11A689B881383374C384EDFF894
:10A5B000DCA00A2710256368C3F30803002B4BD1E6
:10A5C000EFF31183002B47D117F0B8FE814606E068
:10A5D00017F0B4FEA0EB0903B3F57A7F30D26368BD
:10A5E000C3F308031BB9EFF31183002BF0D0EFF393
:10A5F000118285F312884FF0E0210120D1F818C0B4
:10A600000B69DB0344BFCAF84002D1F818C0D6F882
:10A6100064E5DAF84002D2B282F31188DAF8441223
:10A620004FF47A7202FB01F37044A3EB0C03B3FB0B
:10A63000F1F302FB0030A0EB0903B3F57A7FCED330
:10A64000013FB8D1D8F80030ADF804701B6A3BB1B7
:10A65000384602B0BDE8F08717F00EFD8146BEE730
:10A660004046022301AA802115F094FB9DF8053095
:10A67000242B14BF00200F2002B0BDE8F08717F094
:10A68000FBFC054650E700BF00ED00E0782B002002
:10A69000801A002070B5104ED6F8C439002B19DD91
:10A6A00006F18004002505E0D6F8C439AB4204F178
:10A6B00020040FDD237F0135002BF5D0E068002852
:10A6C000F2D0217D16F082FBD6F8C439AB4204F1FA
:10A6D0002004EFDC012070BD801A0020F0B5D0F816
:10A6E000805087682B6858493E6823F001032B602F
:10A6F00000232B608D426B60AB60EB602B614FF0F1
:10A70000210383B0044600F160026B6100F0978082
:10A710004E4B9D425ED02846019255F04DFD019A68
:10A72000002384F8543079790C290ED8DFE801F041
:10A73000650D0D0D5E0D0D0D570D0D0D0700B38B45
:10A7400023F400631B041B0CB383304619F08AFA10
:10A750007B790C2B10D8DFE803F0690F0F0F600F27
:10A760000F0F570F0F0F0700B38B23F400631B0469
:10A770001B0C43F40063B38340222968A369E06A99
:10A780006262334A03430A40216B13430B43D4E90B
:10A790000D120B431343D4E90F120B431343D4E9B7
:10A7A00013120B43134343F040032B60D4E91131E0
:10A7B0006A690B4322F007021343A16A6B61D4E973
:10A7C00007236960AA60EB602B6843F010032B60DD
:10A7D00003B0F0BD4FF4746143F8201CA0E7B38BC5
:10A7E00023F008031B041B0CB383AEE7338B23F465
:10A7F00000631B041B0C3383A7E7338B23F0080390
:10A800001B041B0C3383A0E7B38B23F008031B044A
:10A810001B0C43F00803B383AEE7338B23F40063D0
:10A820001B041B0C43F400633383A5E7338B23F035
:10A8300008031B041B0C43F0080333839CE7054B00
:10A840003D2199606CE700BF106002402860024023
:10A850003F801CF0006002402DE9F04F2DED028B8F
:10A86000804E87B096F87F3001933BB90123019366
:10A87000019807B0BDEC028BBDE8F08FD6F86435C7
:10A88000794F08EE103A17F07DFD97F8743200907A
:10A89000002B00F0E4810025029506F55F6406F5C3
:10A8A000056B03950CE02046FFF718FF97F874320C
:10A8B00001359D420BF1140B04F18C0480F2DC8015
:10A8C000D7F87C32009AD31A03D4A26D9342C0F217
:10A8D000B6818C2303FB056393F8443E03F0FF0A23
:10A8E000002BE0D0A368A1891A68D4F880305B6897
:10A8F0001FFA83FE9389CEF1160E9BB223EA010361
:10A90000BEF1070F9381CED9D6F858380133C6F877
:10A9100058389BF80C3013F0FE0F40F0A08096F8EA
:10A92000B83903EB430306EBC3032B4493F86539B3
:10A930000D2B0CBF07230023D4F888808DF8173027
:10A9400058F804CB00220121914660461DE0D8F85A
:10A9500000C0B9F1140FACEB00031FDC13F10800C9
:10A9600048BF03F11700031109EB2019604603F1FA
:10A97000FF3C013102FA03F3012202FA0CF28E4588
:10A9800042EA030208F1040808D38E45DFD8C9F172
:10A990001503D8F800004FF01509E8E7B9F1150FD5
:10A9A00026D13249C2F3842301EB8303D3F8FC00A0
:10A9B000C2F3441301EB83030002D3F8FC3040EAF6
:10A9C000031002F01F0301EB8303C2F3C432D3F878
:10A9D000FC3001EB82021843D2F8FC3040EA03302D
:10A9E00080EA102383EA131303F00F030F2B13D015
:10A9F000D6F854380133C6F85438002D00F02781BA
:10AA00004FF0000A1A4B5C2018EE102A514600FB4A
:10AA1000053014F09BFD46E700090DF1170114F015
:10AA2000CFFD4FF6FF7382B29A428046E0D09DF888
:10AA3000171031B9039B13FA80F30393029B013380
:10AA400002935FFA88F014F045FC032DDADC96F8E7
:10AA5000B9392D2BD6D1074B23F81580D2E708231F
:10AA60006AE700BF801A0020782B002024AE060879
:10AA7000F01F00203C240020029A002A40F0D080E1
:10AA80000022C7F87C22002B3FF4F2AE96F8002E8D
:10AA900012F0020FD6F8F82D10685479018C0CBF13
:10AAA00001220422A24092B289B221EA0201018469
:10AAB000018C89B20A43012B02843FF4D9AE96F887
:10AAC0008C2E12F0020FD6F8842E10685479018C67
:10AAD0000CBF01220422A24092B289B221EA0201F3
:10AAE0000184018C89B20A43022B02843FF4C0AE78
:10AAF00096F8182F12F0020FD6F8102F106854791C
:10AB0000018C0CBF01220422A24092B289B221EA38
:10AB100002010184018C89B20A43032B02843FF4B1
:10AB2000A7AE96F8A42F12F0020FD6F89C2F10684B
:10AB30005479018C0CBF01220422A24092B289B246
:10AB400021EA02010184018C89B20A43042B0284A8
:10AB50003FF48EAE434A92F8301011F0020F916A22
:10AB60000C684D79208C0CBF01210421A94089B2C9
:10AB700080B220EA01002084208C80B20143052BA2
:10AB800021843FF475AE92F8BC1011F0020FD2F898
:10AB9000B4100C684D79208C0CBF01210421A94010
:10ABA00089B280B220EA01002084208C80B2014367
:10ABB000062B21843FF45CAE92F8481111F0020F8D
:10ABC000D2F840110C684D79208C0CBF0121042172
:10ABD000A94089B280B220EA01002084208C80B292
:10ABE0000143082B21847FF443AE92F8D431D2F88C
:10ABF000CC210198116852799B074CBF0423012393
:10AC000093400A8C9BB292B222EA03020A840A8C15
:10AC100092B213430B8407B0BDEC028BBDE8F08FFA
:10AC20001146039AB2FBF1F2C82192B201FB02F283
:10AC300096F8EA19B2FBF1F2C6F8542920E700238E
:10AC40000193019807B0BDEC028BBDE8F08FD6F8F8
:10AC5000781E0548582260F02FF8AA46D2E6C7F8B9
:10AC60007C3205E6802A00207C2300202DE9F84371
:10AC7000037D01681F2B044608D94868A3F120050D
:10AC80002022AA40024206D1BDE8F88308682022AB
:10AC90009A400242F8D0714A714E5268C6F880223A
:10ACA00096F85A21A569DFF8D09112BB8C2202FBDD
:10ACB0000592D2F8F80DD2F8707ED0F8008038688E
:10ACC000B2F8FCCD20F001003860B8F80C2092B248
:10ACD00022EA0C02A8F80C2099F87F200ABB1F2B4F
:10ACE00040F2A880A3F1200220239340CB60BDE86E
:10ACF000F8838C2202FB0592D2F8F82D5069D2F825
:10AD00000080026822F001020260B8F80C2022F4F0
:10AD100080721204120CA8F80C2099F87F20002AE7
:10AD2000DDD08C2303FB05934E4AD3F8707E3B683D
:10AD300023F001033B6000233B6097427B60BB60D4
:10AD4000FB603B614FF021037B617ED0464B9F420D
:10AD50007FD0384655F030FA8C2303FB0593D6F8A4
:10AD60007C22012183F8441E002A69D0B8F8003003
:10AD70003E499BB243F08003A8F800308C2303FBCC
:10AD800005F54FF0FF332944C8F82C30404655F004
:10AD900069FC09EB05030022D3F81C0EC3F8142E3E
:10ADA000D3F8082E39680243D3F8200E0243D3F8B3
:10ADB000240E0243D3F8280E0243D3F82C0E02438C
:10ADC000D3F8300E0243D3F83C0E0243D3F8400EC2
:10ADD00002432748084002433A607969D3F8342E89
:10ADE000D3F8380E21F0070102430A437A61D3F801
:10ADF000182E7A60D3F80C2EBA60D3F8102EFA60B1
:10AE0000D3F8702E16215160116841F001011160D4
:10AE1000D3F8F82DB3F8FC3D126891890B439BB22F
:10AE20000E4993814B68C6F88432237D21681F2B1D
:10AE30003FF658AF202202FA03F38B60BDE8F88397
:10AE400017F0A0FAC6F87C0290E70A4B3D229A6000
:10AE500082E74FF4746243F8202C7DE7001000E095
:10AE6000782B00201060024028600240E428002077
:10AE70003F801CF000600240801A0020F8B50546B3
:10AE800000F11004FEF7DAFD95F8D830072B5BD1FE
:10AE900095F81D310226002B58D1374680226B21B0
:10AEA000204614F019FF642017F08CFC072268215B
:10AEB000204614F011FF642017F084FC00226B215F
:10AEC000204614F009FF642017F07CFC01226B215E
:10AED000204614F001FF0F2017F074FCFA001B212C
:10AEE000204614F0F9FE0F2017F06CFCF2001C2134
:10AEF000204614F0F1FE0F2017F064FC2846FDF701
:10AF0000D7F81A210246204614F0E6FE0F2017F06B
:10AF100059FC95F820211921204614F0DDFE64200B
:10AF200017F050FC10223721204614F0D5FE0F20D8
:10AF300017F048FC20460122382114F0CDFEBDE870
:10AF4000F8400F2017F03EBC0326A6E70327A5E72D
:10AF500010B50446FFF792FF1022A0186A2114F0E2
:10AF600091FE642017F02EFC044814F0A7FDA08287
:10AF7000BDE81040012017F03DBA00BF002D31019F
:10AF80002DE9F341144698460DF1070201230646C8
:10AF90000F4614F025FF88B1022017F02BFA9DF818
:10AFA000075025EA040444EA0802394630468DF881
:10AFB000072014F091FE089817F004FC02B0BDE8D9
:10AFC000F08173B5642300F11004009301231A4645
:10AFD000054612212046FFF7D3FF02220D2120460D
:10AFE00014F07AFE012017F0EDFB02220E2120461C
:10AFF00014F072FE012017F0E5FB742210212046A8
:10B0000014F06AFE012017F0DDFBAC22112120466E
:10B0100014F062FE0126012017F0D4FB44237C22A9
:10B02000122120460096FFF7ABFF06231A46132194
:10B0300020460096FFF7A4FF002317221521204683
:10B040000096FFF79DFF0223204600961A4618211E
:10B05000FFF796FF95F8210188B116F047FB0446EB
:10B0600008B12623C3802946084B41F80C3F002332
:10B0700020461A465BF0B4F8204615F0BFFC0448A1
:10B0800014F01CFDA88202B070BD00BF8D870008BF
:10B09000809698007B22F42114F01EBE37B500F193
:10B0A0000C040546C0685CF0C7FF00220A21204658
:10B0B00014F012FE142017F085FB0F220A212046FF
:10B0C00014F00AFE0A2017F07DFB01AA03231021C9
:10B0D000204614F085FE0A2017F074FB9DF804301A
:10B0E0008033A5F8F6309DF805308033A5F8F830A8
:10B0F0009DF806308033A5F8FA3000220A21204658
:10B1000014F0EAFD0A2017F05DFB0DF103020123A4
:10B110000221204614F064FE01230DF103020921EF
:10B12000204614F05DFE11220A21204614F0D4FDC1
:10B13000012003B030BD37B500F10C050446702284
:10B140000021284614F0C8FD20220121284614F0D1
:10B15000C3FD00220221284614F0BEFD642017F032
:10B1600031FB94F8F40098B116F0C0FA08B1282326
:10B17000C3802146084B41F8083F00231A4601903E
:10B180005BF02EF8019815F039FC019815F036FCAB
:10B19000012003B030BD00BF5993000810B500F185
:10B1A0000C04C0685CF048FF00222121204614F006
:10B1B00093FDFC222021204614F08EFD4022242104
:10B1C000204614F089FD0C222321204614F084FD32
:10B1D00000222221204614F07FFD642017F0F2FAAD
:10B1E000012010BD10B500F10C04C0685CF024FF14
:10B1F00001220B21204614F06FFD20B11D220921F0
:10B20000204614F069FD00F0010010BD2DE9F04F5B
:10B210002DED028B034683B000F1100693F81E312A
:10B220000090B6227E213046019314F02BFDBB4CDA
:10B23000BB4DBC4F08EE106A4FF064094FF0100888
:10B240007B68C3F30803002B40F06385EFF31183A1
:10B25000002B40F05E8517F071F882464FF0E02B2E
:10B2600006E017F06BF8A0EB0A00B0F57A7F30D259
:10B270007B68C3F308031BB9EFF31183002BF0D0F5
:10B28000EFF3118388F31288DBF81800DBF8102045
:10B2900012F4803F4FF001021CBFC4F84022DBF8DB
:10B2A0001800D5F86425D4F840C2DBB283F31188C6
:10B2B000D4F844624FF47A7101FB06F36244181A21
:10B2C000B0FBF6F001FB0200A0EB0A00B0F57A7FBC
:10B2D000CED3B9F10109B3D1009B9B6918EE106A76
:10B2E00013B11A689B8853838E4B5B68C3F30803C2
:10B2F000002B40F04C85EFF31183002B40F0478585
:10B3000017F01CF88046DFF81CA210274FF0E02948
:10B3100006E017F013F8A0EB0800B0F57A7F32D200
:10B32000DAF80430C3F308031BB9EFF31183002BE1
:10B33000EFD0EFF3118387F31288D9F818E0D9F82A
:10B340001020D2034FF0010103D5C4F84012D9F800
:10B3500018E0D5F864B5D4F84022DBB283F3118845
:10B36000D4F844C24FF47A7101FB0CF002EB0B03EA
:10B37000A0EB0E00B0FBFCF001FB0300A0EB08000B
:10B38000B0F57A7FCCD3009B9B6913B11A689B8878
:10B390001383644F08EE106A4FF00A094FF010084B
:10B3A0007B68C3F30803002B40F0B884EFF31183EC
:10B3B000002B40F0B38416F0C1FF82464FF0E02B23
:10B3C00006E016F0BBFFA0EB0A00B0F57A7F30D2A2
:10B3D0007B68C3F308031BB9EFF31183002BF0D094
:10B3E000EFF3118388F31288DBF81800DBF81020E4
:10B3F00012F4803F4FF001021CBFC4F84022DBF87A
:10B400001800D5F86425D4F840C2DBB283F3118864
:10B41000D4F844624FF47A7101FB06F36244181ABF
:10B42000B0FBF6F001FB0200A0EB0A00B0F57A7F5A
:10B43000CED3B9F10109B3D118EE100A4A467C21E6
:10B4400014F020FC374B5B68C3F3080318EE106A56
:10B45000002B40F09784EFF31183002B40F092848F
:10B4600016F06CFF8046DFF8BCA010274FF0E029F3
:10B4700006E016F063FFA0EB0800B0F57A7F32D249
:10B48000DAF80430C3F308031BB9EFF31183002B80
:10B49000EFD0EFF3118387F31288D9F818E0D9F8C9
:10B4A0001020D0034FF0010103D5C4F84012D9F8A1
:10B4B00018E0D5F864B5D4F84022DBB283F31188E4
:10B4C000D4F844C24FF47A7101FB0CF002EB0B0389
:10B4D000A0EB0E00B0FBFCF001FB0300A0EB0800AA
:10B4E000B0F57A7FCCD300225921304614F0CAFB44
:10B4F0000C4B5B68C3F30803002B40F03E84EFF372
:10B500001183002B40F0398416F018FF8046DFF8D5
:10B5100014A010274FF0E0290DE000BF782B002089
:10B52000801A002000ED00E016F008FFA0EB0800F4
:10B53000B0F57A7F32D2DAF80430C3F308031BB9CE
:10B54000EFF31183002BEFD0EFF3118387F3128811
:10B55000D9F818E0D9F81020D2034FF0010103D533
:10B56000C4F84012D9F818E0D5F864B5D4F84022F0
:10B57000DBB283F31188D4F844C24FF47A7101FB33
:10B580000CF002EB0B03A0EB0E00B0FBFCF001FB98
:10B590000300A0EB0800B0F57A7FCCD3C24AC34FBA
:10B5A0004FF4A4735E21304614F070FC08EE106A6C
:10B5B0004FF00A094FF010087B68C3F30803002B13
:10B5C00040F0B183EFF31183002B40F0AC8316F011
:10B5D000B5FE82464FF0E02B06E016F0AFFEA0EB82
:10B5E0000A00B0F57A7F30D27B68C3F308031BB939
:10B5F000EFF31183002BF0D0EFF3118388F312885F
:10B60000DBF81800DBF8102012F4803F4FF0010245
:10B610001CBFC4F84022DBF81800D5F86425D4F824
:10B6200040C2DBB283F31188D4F844624FF47A71DC
:10B6300001FB06F36244181AB0FBF6F001FB0200AE
:10B64000A0EB0A00B0F57A7FCED3B9F10109B3D1EE
:10B6500018EE100A0122592114F014FB934B5B6879
:10B66000C3F3080318EE106A002B40F08283EFF357
:10B670001183002B40F07D8316F060FE8046DFF8DA
:10B680002CA210274FF0E02906E016F057FEA0EBA1
:10B690000800B0F57A7F32D2DAF80430C3F3080339
