:020000040800F2
:10000000F0FF012011870508F528050839D90108F6
:100010008987050889870508898705080000000089
:10002000000000000000000000000000F9280508A2
:10003000FD2805080000000001290508015D0108F0
:10004000898705088987050889870508898705083C
:100050008987050889870508014B0108094B0108B4
:10006000114B0108194B0108214B0108E9C7000891
:10007000F9C7000809C8000819C800082DC80008F9
:1000800041C8000855C8000889870508000000001D
:10009000000000000000000000000000294B0108E3
:1000A000E9D4010881D40108F9D4010871D4010808
:1000B000A9D40108B9D40108C9D4010811BD0008A8
:1000C000E9C1000819BD0008EDC1000889870508CD
:1000D000898705081D5C0108295C010800000000F3
:1000E000314B0108898705084D7E05080000000096
:1000F00000000000000000000000000069C80008C7
:100100000000000089870508D9D4010889870508FF
:1001100000000000000000000000000000000000DF
:100120007DC8000891C80008A5C80008B9C8000823
:10013000CDC8000800000000000000000000000022
:100140000000000000000000000000000529050874
:10015000E1C80008F5C8000809C900088987050832
:1001600021BD0008F1C100080000000000000000EF
:10017000000000000000000000000000000000007F
:100180000000000089870508000000000000000052
:0801900089870508898705082D
:08019800A48205000100000033
:1001A0002B0012002400000058540020805400202E
:1001B00000000000C51803087C5400200530010031
:1001C00008000000C4470020A854002000000000E0
:1001D000F8940608A4540020031101000A0000004E
:1001E000F44A0020B454002000000000E199040803
:1001F000B054002029201400780000009C48002002
:10020000C45400200000000000000000C054002082
:100210002830010016000000304800204055002022
:100220000000000039D403083C5500200B300100C9
:100230001A000000144800205C5500200000000057
:1002400000950608585500201E1001000B00000004
:10025000004800207C550020000000001A95060888
:10026000785500200D10010028000000CC47002028
:100270008C55002000000000B19E01088855002028
:100280000C400400980000001C410020B8550020DC
:1002900000000000E5730208B455002001200100B1
:1002A0000C000000B4410020545600200000000063
:1002B0002695060850560020270001000400000083
:1002C00028420020645600200000000032950608F5
:1002D000605600202320010010000000184200207A
:1002E0006C56002000000000D9BD030868560020AD
:1002F0000E40040048020000C03E0020805600204E
:1003000000000000211503087C5600202202010095
:100310001C010000004B0020CC5800200000000011
:100320006DE70008C8580020160215003F000000C5
:100330002C5A0020EC59002000000000599C0008B5
:10034000E85900201F02080010000000805A002019
:10035000705A002000000000898A00086C5A0020B2
:100360001B02010010000000A45A0020945A002033
:1003700000000000E5890008905A002028020400CF
:1003800004000000BC5A0020B85A00200000000001
:10039000D9890008B45A0020270204000400000094
:1003A000C85A0020C45A002000000000CD8900086F
:1003B000C05A00201C0202001C0000004848002017
:1003C000D05A00200000000015910008CC5A0020EF
:1003D000000201000B0000001C4C0020F05A00201D
:1003E00000000000B1880008EC5A00201A02010049
:1003F0003C0000003C5B0020005B0020000000008F
:1004000091BA0008FC5A0020040008008000000097
:10041000EC4D00207C5B002000000000000000008C
:10042000785B0020081203000F0000007C4E0020C3
:10043000005C00200000000091880008FC5B0020A8
:100440000A02010014000000044F0020145C002088
:100450000000000035740208105C002038400100E4
:1004600006000000644F00202C5C0020000000000B
:1004700036950608285C0020031201003D000000AC
:10048000944F0020385C0020000000003C950608D6
:10049000345C002013100100040000000C48002010
:1004A0007C5C0020000000007C950608785C002041
:1004B00002020100030000009C690020845C00200F
:1004C0000000000000000000805C0020F5910100A9
:1004D0006C000000884A00208C5C002000000000B6
:1004E000854A0408885C0020F62101000C00000009
:1004F00030490020FC5C00200000000080950608C8
:10050000F85C00201212010004000000B83E002038
:100510000C5D0020000000008C950608085D00209E
:100520001102010008000000A0690020145D0020F5
:100530000000000090950608105D002034000100C6
:1005400010000000A8690020205D002000000000CD
:10055000B11503081C5D0020F83101000600000001
:10056000BC470020345D002000000000989506087C
:10057000305D0020020001000C000000304F002020
:10058000405D002000000000000000003C5D0020F5
:10059000FE0101001400000014490020505D0020FD
:1005A000000000006D8800084C5D0020061203006A
:1005B00012000000F04E0020685D002000000000E6
:1005C000D5900008645D0020F701010006000000DE
:1005D00028490020805D0020000000009E9506084C
:1005E0007C5D0020FC01010009000000B8690020CA
:1005F0008C5D002000000000F9890008885D002063
:10060000FB01010001000000C46900209C5D002086
:1006100000000000598A0008985D00201A000100BF
:100620000E0000006C4E0020A45D002000000000C1
:10063000A4950608A05D002014000100050000003C
:10064000F4470020B85D002000000000B2950608C5
:10065000B45D0020FD0101001E0000008A4D002055
:10066000C45D0020000000008D100108C05D002066
:100670001D02020006000000844D0020E85D0020FD
:100680000000000000000000E45D002018300100C0
:100690003800000064480020F45D002000000000E5
:1006A0000DBB0008F05D0020F9010100040000000E
:1006B000C8690020305E00200000000049100108D9
:1006C0002C5E0020123001000F00000008410020C5
:1006D000385E002000000000B8950608345E002057
:1006E0000A90010024000000C02900204C6900206D
:1006F00000000000EDBD030848690020061001005D
:1007000024000000F81F0020746900200000000091
:10071000B9880008706900202F1001002200000035
:100720000C7B0020E877002000000000C895060838
:10073000087B002015001000700000006877002082
:100740006C7800200000000000000000307B0020DA
:100750002A00080060000000F86A00200C780020E1
:100760000000000021160308347B00202102010054
:10077000F0000000586B0020DC7800200000000032
:1007800069470408387B00202C000400100000009A
:10079000D8770020F87A002000000000B518030880
:1007A0003C7B002025201E002C010000CC6900208D
:1007B000CC7900200000000000000000407B0020F9
:1007C0001302010004000000D08C002010930020D0
:1007D00000000000EC9506080C9300201F5001005B
:1007E00024000000607E002018930020000000001C
:1007F000F0950608149300201B2001000C00000057
:10080000F88E00204093002000000000953C040872
:100810003C9300201620010006000000088F0020F5
:100820005093002000000000149606084C9300200E
:100830001010010002000000288D00205C930020B1
:10084000000000001A9606085893002019000100C5
:1008500005000000C092002064930020000000000A
:100860001C960608609300202D0201000100000084
:100870003C97002048970020000000000000000086
:100880004497002029020100400000000495002048
:100890005097002000000000229606084C97002088
:1008A000FD0701007E000000849600209497002040
:1008B00000000000A14304089097002001010100FE
:1008C000040000008096002018980020000000001E
:1008D0000000000014980020000101000400000046
:1008E0007C960020209800200000000062960608F8
:1008F0001C980020020101000300000078960020EF
:100900002898002000000000D573020824980020D9
:1009100026300100080000003496002030980020A6
:1009200000000000599504082C9800202052010076
:10093000080000002C9600203C98002000000000D9
:1009400099150308389800202A12010008000000B9
:1009500024960020489800200000000066960608B3
:10096000449800203730010026000000F895002050
:1009700054980020000000006E9606085098002051
:10098000030001000100000038A8002044AA002054
:10099000000000000000000040AA00200502010045
:1009A00004000000D89900204CAA0020000000009C
:1009B0009496060848AA00202C02010004000000BA
:1009C000A499002074AA0020000000009896060850
:1009D00070AA0020233201001400000060AC002047
:1009E00034B10020000000009C96060830B10020C1
:1009F0000E020100020000007CE900205CEF0020F4
:100A000000000000B096060858EF00201002010018
:100A100001000000740301207003012000000000A9
:080A2000B29606086C030120E8
:100A2800A4000000000000000000FF000060024079
:100A380010600240000000000000000000000000FC
:100A4800000B000000000000000000000000000093
:100A58000060024028600240010000000000000021
:100A680000000000060C000000000000000000006C
:100A780000000000006002404060024002000000E8
:100A88000000000000000000100D00000000000041
:100A980000000000000000000060024058600240B2
:100AA800030000000000000000000000160E000017
:100AB800000000000000000000000000006002408C
:100AC8007060024004000000000000000000000008
:100AD800200F0000000000000000000000000000DF
:100AE800006002408860024005000000000000002D
:100AF80000000000261000000000000000000000B8
:100B08000000000000600240A060024006000000F3
:100B1800000000000000000030110000000000008C
:100B2800000000000000000000600240B8600240C1
:100B3800070000000000000000000000362F000041
:100B480000000000000000000000000000640240F7
:100B580010640240000000000000000000000000D7
:100B68000038000000000000000000000000000045
:100B780000640240286402400100000000000000F8
:100B8800000000000639000000000000000000001E
:100B980000000000006402404064024002000000BF
:100BA8000000000000000000103A000000000000F3
:100BB8000000000000000000006402405864024089
:100BC800030000000000000000000000163B0000C9
:100BD8000000000000000000000000000064024067
:100BE80070640240040000000000000000000000E3
:100BF800203C000000000000000000000000000091
:100C08000064024088640240050000000000000003
:100C18000000000026440000000000000000000062
:100C28000000000000640240A064024006000000CA
:100C38000000000000000000304500000000000037
:100C4800000000000000000000640240B864024098
:100C58000700000000000000000000003646000009
:100C6800000000000000000000000000FFFFFFFF80
:100C78000101FF0088BA0508BCBA0508F0BA0508E2
:100C8800FFFFFFFFFFFF0000FFFFFFFF0001010163
:100C9800000000007D0000004C6906080000080202
:100CA8000503030000000000586906080100080257
:100CB800050403000000000064690608000008023B
:100CC80005030300000000006C6906080100080223
:100CD80005040300000000002C7906080200FE014C
:100CE80001100300000000002C1506080300140280
:100CF80000030000000000007469060804001F02D9
:100D080002000800000000007C69060805001F02B8
:100D1800020108000000000002010000A00F00000E
:100D2800B80B00000102FFFF01000000086A060876
:100D3800786D0608000000000D0F0208A08601006B
:100D480004000000086A0608947106080000000004
:100D5800859D0108E803000004000000F011060862
:100D68000000000000000000757E02087D00000001
:100D7800FF000000E8150608000000000000000061
:100D8800F99A02087D000000FF0000009081060823
:100D98000000000000000000E95203087D00000088
:100DA800FF000000F86D06080000000000000000C9
:100DB800399F0108E803000003000000CC1706086B
:100DC8000000000000000000D93C030810270000C4
:100DD800030000007069060800000000391A0308C3
:100DE8003DE801085F76000005000000E46F060892
:100DF8000000000000000000E99E01081027000024
:100E0800020000009C7106080000000000000000BD
:100E1800599D0108E803000005000000A8710608B4
:100E28000000000000000000457C0208204E000081
:100E380003000000B8710608000000000000000070
:100E4800F98F0208204E000003000000C871060850
:100E580000000000000000004DE10108400D030003
:100E680003000000E46A060800000000000000001B
:100E7800C9E501081027000002000000A06D06085F
:100E88000000000000000000215A04088D20000026
:100E980003000000D87106080000000000000000F0
:100EA80011A10108A08601000200000090160608A2
:100EB800000000000000000081A30108A8610000F4
:100EC800020000003814060800000000899D01088F
:100ED80009A601088D20000002000000EC6F06083A
:100EE80000000000000000003DA90108A00F00005C
:100EF80002000000E0710608000000000000000089
:100F0800D18604081027000002000000EC6A0608D9
:100F180000000000CF430408D9DF0408854501001C
:100F280002000000F813060800000000000000009E
:100F3800B597040810270000020000008C6D060811
:100F48000000000000000000E913040850C300007E
:100F580002000000EC71060800000000000000001C
:100F680055B90408400D030001000000F47106089B
:100F78000000000000000000B19D0108400D0300C2
:100F880002000000FC7106080000000000000000DC
:100F9800697A040850C300000300000008720608BC
:100FA80000000000000000003D8D020840420F00D4
:100FB8000100000014720608000000000000000094
:100FC80045CE010850C30000010000002072060849
:100FD800000000000000000025C3040810270000DE
:100FE80002000000C96E05082D0605089D190508B0
:100FF800000000005D0605089D6F0508F1700508F2
:10100800C97005080000000000000000510605082E
:10101800216E0508F5050508911705080000000070
:1010280095050508F96E0508B16F0508A170050852
:101038000000000000000000B90505080000803F1E
:101048000000000000000000000000000000803FD9
:101058000000000000000000000000000000803FC9
:10106800000000000000000000000000B1060508B4
:10107800B5060508B9060508C5060508C906050820
:10108800BD060508C106050881060508A506050868
:10109800CD080508B9080508E1080508F508050898
:1010A80009090508FFFFFFFFFFFFFFFFB5CF010894
:1010B8000000000000000000000000008DCF0108C3
:1010C8000000000000000000000000000101000016
:1010D8000000000060AA00200800000000000000D6
:1010E80050AA002008000000FFFFFFFF01F11F3F8A
:1010F80014B1002022B100207EFF000069E501083C
:101108000000000000000000000000000000FA439A
:101118000000FA430000803F0000000000000000CB
:1011280000000000000000000000000000000000B7
:101138000000000000000000000000000000803FE8
:101148004CB1002054C80020A8C80020D6010000D7
:10115800FF1FFF1F00FF000000000000000000004C
:10116800F5C8030800000000000000003AF0050878
:1011780001FF000000000000000000000000000067
:10118800A8F40508000000000000000000000000AE
:1011980060F50508000000000000000000000000E5
:1011A8000CF505085DE103080000000000000000E0
:1011B8009C080608000000000000000045DE030847
:1011C80070CE0020BDE6030800000000000000000B
:1011D8000CF4050891150508000000000000000047
:1011E80080F3050815E30308000000000000000074
:1011F80038F305080101000001000000FA000000B2
:1012080001000000010000002D202D2D202D2D2D86
:101218002D202D2D2D0000000000000000000000F2
:101228000000000000000000C2CB002088136F17E8
:1012380001000000C4CB002088136F1700000000D5
:10124800C6CB002088136F1701000000C8CB002010
:1012580088136F1700000000A5C8030800000000ED
:1012680000000000A0F00508E2CE00200100000008
:10127800F4F00508CBCB00200100000000F10508C0
:1012880070CC00200200000008F10508CDC8030852
:10129800000000000000000014F105080000000034
:1012A800000000000000000068F1050800000000D0
:1012B8000000000000000000D8F10508C0CB0020A5
:1012C8000200000020F20508E6CE0020E0150C1709
:1012D80000000000C01200007AD2002000000000C8
:1012E8000000000078D2002000000000000000008C
:1012F80076D20020000000000000000074D2002018
:10130800000000000000000072D200200000000071
:101318000000000070D20020000000000000000063
:101328004C0A00200000000000000000CACB00208A
:101338000300000010F20508000000000000000093
:10134800000000002CF205087ED20020E0150C17E2
:101358000000000080D200200200000020F20508F2
:101368002D202D2D202D2D2D2D202D2D2D2D000026
:101378000000000000000000000000000000000065
:1013880000000000000000000000000064F20508F2
:1013980082D200209CFF2C0100000000E4CE002037
:1013A800E0150C1700000000E3CE0020020000004A
:1013B80020F205082D202D2D202D2D2D2D202D2D11
:1013C8002D2D0000000000000000000000000000BB
:1013D8000000000000000000000000000000000005
:1013E8009CF2050882CA002000FF010081CA002083
:1013F80000FF010080CA002000FF01007FCA002012
:1014080000FF01007ECA002000FF01007DCA002005
:1014180000FF01007CCA002000FF01002DC0030866
:1014280069C0030800000000A8F505089CCA002050
:10143800043201009ACA0020E803D0070100000026
:1014480098CA0020E803D0070100000096CA0020CF
:10145800E803D0070100000094CA0020030F010030
:1014680092CA00201900F4010100000090CA00206F
:101478000500F401010000008ECA0020003C0100B4
:101488008CCA00200000B80B010000008ACA0020A6
:1014980002FF010088CA00203200C40901000000D0
:1014A80087CA00200064010086CA002002000000EC
:1014B80000B4050884CA00201400E80301000000F5
:1014C800DACA002000C80100D9CA00200050010073
:1014D800D8CA0020005A0100D6CA00200200000025
:1014E8001CB00508247D06082C7D0608B6CE002011
:1014F8000100C40900000000B4CE00200100C409A6
:1015080000000000B2CE00200100C4090000000065
:10151800B0CE00200100C40900000000ACCE0020BD
:101528000100C40900000000AECE00200100C4097B
:1015380000000000AACE00200100C409000000003D
:10154800A8CE00200100C40900000000A5CB00209F
:1015580000C80100A4CB002000C80100A2CB0020D5
:101568000000FFFF0A000000A0CB00200100C80017
:10157800010000009ECB00203200307532000000D0
:101588009CCB00207EFF1400050000009ACB0020B1
:1015980005002C010500000098CB0020055A050025
:1015A800ABCB002000FF0100A9CB00200200000007
:1015B8005C0C0020A7CB00200300000034F60508CF
:1015C800AACB002000FF0100A8CB002002000000E9
:1015D8005C0C0020A6CB00200300000034F60508B0
:1015E80080CC0020FF7F01007CCC002000000000A0
:1015F800FFFFFFFF0100000078CC00200000000082
:10160800FFFFFFFF0100000074CC00200000000075
:10161800FFFFFFFF01000000A5C0030815C1030874
:101628000000000044F6050876CA0020EE02CA0849
:101638000100000075CA002000C801006400000015
:1016480074CA002002C801006400000073CA0020A8
:10165800020000004CB10508BECB00200000803E0F
:1016680005000000BCCB002080C1803E05000000C2
:10167800BACB00200083007D05000000B8CB002015
:1016880080C1803E05000000B6CB002000FF0100AD
:10169800B4CB00206400F40101000000B2CB0020AC
:1016A8006400F40101000000B0CB00206400F401E4
:1016B80001000000AECB002004000000BCB3050808
:1016C800ADCB002002000000B0B3050813CB00200A
:1016D8000D000000D0AF050810CB00200064010009
:1016E8000ECB0020320010270A0000000DCB00208E
:1016F8000D000000D0AF05080CCB00200D00000045
:10170800D0AF05080BCB00200200000008B0050888
:1017180072CA00204C00000090B1050870CA002071
:101728000300000050F7050871CA002004000000FB
:10173800D0B3050809CB00200300000060F70508B6
:1017480008CB00200300000060F70508FCCA002051
:10175800000A0100FACA00200000E80301000000A6
:10176800F8CA00200000E80301000000F6CA0020C3
:10177800000A0100F4CA00200000E803010000008C
:10178800F2CA00200000E80301000000EACA0020B5
:10179800C800E80301000000F0CA00201400FA00A5
:1017A80001000000EECA00200100E803010000006B
:1017B800ECCA002000050100E8CA00200200000071
:1017C800D0B00508E6CA00200000F40101000000BE
:1017D800E4CA00200000F40101000000E2CA002071
:1017E8000000F40101000000E0CA00200000F4013C
:1017F80001000000DECA00200000E803010000002C
:10180800DCCA00200000E80301000000D4CA002060
:10181800006401000A000000D3CA0020006401002F
:101828000A000000C1CA002019640100C0CA0020D3
:1018380002000000C4B00508BECA0020E803D007B3
:101848000A000000BCCA0020006401000A00000071
:10185800B1CA002000640100B0CA00200064010081
:10186800B8CA0020006401000A000000B7CA0020BE
:10187800006401000A000000B6CA002000640100EC
:101888000A000000BBCA002000FF01000A00000097
:10189800BACA002000FF01000A000000B9CA0020EF
:1018A80000FF01000A000000B5CA002001FF010086
:1018B8000A000000B4CA002001FF01000A0000006D
:1018C800B3CA002001FF01000A00000006CB002077
:1018D8000000F4010100000004CB00200000E80330
:1018E8000100000002CB00200000E8030100000016
:1018F80000CB00200000E80301000000FECA002021
:101908000000E803010000006FCE002000960100EF
:1019180066CE002000C8010065CE002000640100EA
:1019280064CE00200064010063CE00200064010042
:1019380062CE00200064010061CE0020FF08010093
:1019480060CE00200164010069C20308ADC203082B
:101958000000000070F7050869CE00200132010080
:1019680068CE0020010000009CB0050867CE00206A
:1019780004000000A4B005085FCE00200096010016
:101988005ECE0020006401005CCE00200000FA005A
:101998000A0000005BCE00200A5A01005ACE00203F
:1019A80000C8010059CE002000C8010058CE002010
:1019B80000C801006CCE0020003201006ECE00206D
:1019C800001401006DCE0020004B01006BCE0020FA
:1019D800040000009CAF05086ACE002000640100E6
:1019E8000A000000ACCA00200AC805000A0000006E
:1019F800ABCA0020010000007CB40508AECA002074
:101A08000AC805000A000000ADCA00200100000055
:101A18007CB40508A3CA002000C805000A0000001D
:101A2800AACA002000C805000A000000A4CA0020B5
:101A380000C805000A000000A5CA002000C805006B
:101A48000A000000A8CA002000C805000A0000001B
:101A5800A9CA002000C805000A000000A7CA002083
:101A680000C805000A000000A6CA002000C805003A
:101A78000A000000A2CA00200200000058AF0508B2
:101A880056CE00200000D0070100000051CE0020F3
:101A980000C8010050CE002000C801004FCE002031
:101AA80000C8010054CE00200000D007010000004B
:101AB8004ECE002000C801004DCE002000C8010015
:101AC8004CCE002000C8010052CE00200000D007F4
:101AD800010000004BCE002000C801004ACE0020C3
:101AE80000C8010049CE002000C80100608906082E
:101AF80000000000000054D200206C890608070886
:101B0800000000005C120020748906080708000025
:101B18000000541200207C89060807080000000015
:101B28004C120020848906080808000000004012B2
:101B380000208C89060807080000000038120020E1
:101B480094890608070800000000301200209C89CC
:101B5800060807080000000028120020A4890608CB
:101B68000808000000001C120020AC8906080710B5
:101B78000000000014120020B489060807100000B5
:101B880000000C120020BC890608071000000000A5
:101B980004120020C4890608081000000000F8118B
:101BA8000020EC7A06080100000000000000000098
:101BB800000000001000000000000000000000000D
:101BC80099C50308A9C50308ADE20308E0F70508AD
:101BD80019CB0020005A010018CB002000C80100D2
:101BE80016CB0020E803D007010000000000000029
:101BF800000000009DEA03087CF80508F4CD0020E9
:101C08000300000048AF05083DC6030889C603085D
:101C180000000000D0F80508D5C6030815C703085A
:101C2800000000006CF9050825C60308D1E2030886
:101C380000000000ECF90508ACCB0020010301000E
:101C4800ADC90308D5C903080000000060FD0508F8
:101C580065BF03088DBF030800000000E0FD05080C
:101C680075C70308D5C703080000000050FE050823
:101C780049C50308A12004080000000008FF050862
:101C880095DD030829BF030800000000B0FF050820
:101C9800A9C4030800000000000000003C0006087A
:101CA80069C30308D5C3030800000000A0000608A4
:101CB800F1C203082DC303080000000058010608FC
:101CC800E521040835C2030800000000E401060805
:101CD800A1CA00200104010039C4030875C403081F
:101CE80000000000FC020608292204087DE0030821
:101CF800000000006C030608ADC1030859DF0308A3
:101D080000000000E80406088921040819DF030818
:101D180000000000641200209FCA00200104010096
:101D2800C5C50308F5C5030800000000F40506084A
:101D380069DD0308000000000000000058060608DE
:101D48005DC70308EDE2030800000000F40606087A
:101D58000000000000000000000000006407060802
:101D680085C10308E1DE030800000000E407060857
:101D780000000101FF000000FFFFFFFF0000803F9F
:101D8800FF0000000101000030EF0020000000000B
:101D980028EF0020000000000101AA5509020000F8
:101DA80000AA5503009FAA550B010000140100006A
:101DB800FF00000009024300020100C032090400CC
:101DC80000010202010005240010010524010001A0
:101DD800042402020524060001070582030800FF07
:101DE80009040100020A0000000705010240000082
:101DF800070581024000000009026400030100C0D9
:101E0800320904000001030000000921110100014A
:101E18002236000705830309000A080B01020202A3
:101E2800010009040100010202010005240010015B
:101E38000524010002042402020524060102070504
:101E480082030800FF09040200020A0000000705D7
:101E58000102400000070581024000001201000253
:101E6800EF02014083045632000201020301000020
:101E780012010002020200408304405700020102DE
:101E88000301000004030904AA5507010000AA552C
:101E980005010000AA550501000001010800000025
:101EA80005010905A101A10005010930093109321F
:101EB800093309350934093609371581257F75082D
:101EC80095088102050919012908150025019508B9
:101ED80075018102C0C0000009022200010100E072
:101EE8003209040000010301020009211101000167
:101EF8002236000705830309000A000000000000DD
:101F0800010203040102030406070809291F050842
:101F180045160508051A050865050508990B0508FD
:101F280049050508310505087505050885050508ED
:101F38000000000000000000010000000000040193
:101F48000000020001000002100000000700FF006E
:101F58000000000000000000010203040607080951
:101F6800DC16002000000000000000000000000057
:101F78000000000000000000000000000000000059
:101F88000000000000000000000000000000000049
:101F98000000000000000000000000000000000039
:101FA8000000000000000000000000000000000029
:101FB8000000000000000000000000000000000019
:041FC8000000000015
:082800000000000000000000D0
:1080000082B01E4B002201920193019B1C4A043353
:108010000193019B1968936803F00C03042B06D0AD
:10802000082B08D0174B184A1A6002B07047154B3E
:10803000196002B070475368506813F4800F00F065
:108040003F00536812D1C3F388130F49B1FBF0F11D
:1080500001FB03F30A4A0B495268C2F301420132A1
:108060005200B3FBF2F30B6002B07047C3F3881306
:10807000B1FBF0F101FB03F3ECE700BF5028004037
:1080800000380240401700200024F400074BD0F8CD
:10809000E4105B68D0F8F0205B1A9A42B8BFC0F8D1
:1080A000F030012380F81C3100207047001000E000
:1080B000B84B00EB800103EBC10170B54A68526810
:1080C000B2F814E01EF0010F4FEA800C6ED15FFA97
:1080D0008EF4A60742D5BFF35F8F91F82040012CA4
:1080E000E5B200F0D180118BBFF35F8F0CEB000184
:1080F00003EBC10191F82040022C00F0E7800CEB6B
:10810000000103EBC10191F82040032C07D191F845
:10811000221021B193F87D10002940F0E78091886A
:1081200089B241F48061918093F97C100CEB000ED0
:1081300003EBCE0E9EF820E00EF1010E8E450CD121
:10814000002183F87D1093F87E10002940F0B7805D
:10815000604403EBC00300225A7770BD65075DD40D
:1081600014F0400400F0CB80148A93F97C508E6A9E
:10817000E4B274555FFA85FE0EF1010464B291F821
:10818000206083F87C40E51CAE42214600F025814A
:108190000CEB000503EBC50595F82050AC42C5D1AA
:1081A0000EF1020149B283F87C10BFE7B2F800E09B
:1081B0002EF4006E4FEA0E4E4FEA1E4EA2F800E07B
:1081C0001488A4B244F48064148091F822400025FD
:1081D00083F87C50002C48D093F87D40002C41D08F
:1081E000012183F87D100CEB000103EBC10191F834
:1081F0002010022904D1118889B241F40061118054
:108200000CEB000103EBC101897F41F001011182F8
:10821000604403EBC00393F8203070BD91F8224016
:10822000012583F87E50002C70D093F87D40002CFF
:1082300071D10CEB000103EBC10191F82110002971
:1082400000F0AA80118889B241F40071118093F87E
:108250007C1001314CB283F87C401188CE05FCD4EF
:10826000214663E7C97FFF29BAD00CEB000103EB7D
:10827000C1018C7F04F0FE041482CA7FFF2AC7D09C
:10828000FF2283F87C20C3E791F8221000293FF4F5
:108290002AAF93F87D1000293FF425AF118821F40F
:1082A00080610904090C1180BFF35F8F118B118865
:1082B00083F87E5089B241F4007111802FE79188D4
:1082C00021F440710904090C918041E791F82210D2
:1082D00000293FF414AF93F87D1000293FF40FAF4D
:1082E000118821F480610904090C1180918821F41E
:1082F00080610904090C918093F97C1016E71FFA3C
:108300008EF52D062DD493F97C100FE793F87D1090
:1083100000298ED096E791F82040022C148846D987
:1083200024F480642404240C1480158A8E6A93F942
:108330007C40EDB235558E6A118889B241F40071E6
:108340001180E4B2158A611C49B2EDB2755491886E
:10835000023489B264B241F4806183F87C40918038
:108360007BE793F97C506E1C3ED04C6A665D1682AA
:108370006C1C91F8205064B2A54283F87C402146E1
:108380007FF4D4AE948824F480642404240C948074
:10839000CCE600BF40170020118893F97C4089B2D9
:1083A00041F480711180012183F87D1055E7A4B25A
:1083B00044F400741480158A8E6A93F97C40EDB2FF
:1083C0003555E4B28E6A158A611C49B20334EDB2A8
:1083D00064B2755483F87C403FE7958825F4806546
:1083E0002D042D0C9580D3E683F87C40CC7F14823D
:1083F00091F8224024B991F8201000297FF408AFA9
:10840000918821F480610904090C918000E700BF84
:1084100030B5EAB18E464FEA014C034600F1C00583
:10842000002419689A6841EA0C0142EA0E029A6037
:10843000C3E900140C33AB42F3D1D0F8C030C0F81C
:10844000C44043EA0E03C0F8C030C0F8C84030BD95
:108450004FEA014E8C46E0E7836930B41C699968A5
:108460002268096822F0010222608A899C8992B2FE
:1084700022EA04028A81027D00681F2A06D9446824
:10848000203A08219140214217D0FEE704680821D4
:1084900091402142F9D1202101FA02F28260234A5F
:1084A00092F87F203AB11A7E012A0BD1D3F8F82036
:1084B0000132C3F8F82030BC7047202101FA02F2E3
:1084C000C260ECE7D3F8F4200132C3F8F420EFF3F4
:1084D0001181502282F3128858685C6C026822EA8B
:1084E00004029C6C2243C9B2026081F31188D3E973
:1084F0000C401A6999681D6C096814605061D3E9D1
:108500000E40546090600024B3F8A800D5604C621F
:10851000C86210680124204310601C768A899B89F8
:1085200013439BB230BC8B81704700BF40170020C3
:10853000704700BF024B03EB401090F89D0070475E
:10854000401700204368B0F8502010B41A83EFF3AE
:108550001182502383F312884168446C0B6823EA2C
:108560000403C46C2343D2B20B6082F31188D0E9B8
:1085700007418268036912681C605961D0E90941AA
:108580005C60C46A9960B0F86010DC600023D1625E
:108590005DF8044B03767047037D1F2B30B54FF019
:1085A0002002046816D9A3F120056168AA400A4296
:1085B0000FD00C4A002182F8801141680A681F2BF5
:1085C00022F001020A604FF0200206D9203B9A40B7
:1085D000E26030BD21689A40E9E702FA03F3A36044
:1085E000F7E700BF40170020F0B4037D85691F2B1B
:1085F00063D90168A3F120024E68202494402642EA
:1086000049D010239340CC60CB604B68D340DE0749
:1086100067D4EFF31183502282F312882A6C116819
:10862000C9072FD4516889B271B9D5E90964A64246
:1086300025D0AF692744D76058D9341BA4B2546001
:10864000AE62002185F86410116841F00101DBB2CF
:10865000116083F31188037D1F2B19D80268194616
:10866000106808238B40184200D0936010680423E0
:1086700003FA01F1014200D09160F0BC7047012281
:1086800085F86420DBB283F31188037D1F2BE5D9C5
:108690000168A3F120024C6808209040044200D0F9
:1086A000C8604C68042000FA02F22242E5D0203B68
:1086B00000FA03F3F0BCCB60704702682024166810
:1086C0009C4026421946CBD010219940946091607D
:1086D0001168D940CC079CD5012101FA03F39360BE
:1086E00097E7012303FA02F2CA6092E72E69341B6E
:1086F000A4B25460A962A4E73A4B9FED3B4A93F8B9
:10870000852193F8840193F8861193F887C11202AA
:1087100002EB00421144120248BF01F17F4107EE13
:10872000901AB3F9A01193F8880193F8892106EE05
:10873000101AB3F99C11B8EEE77A06EE901AB3F965
:108740009E11D3ED657A27EE047AB8EEC66A05EE7F
:10875000101AF8EEE66AB3F99A11000200EB0C4029
:108760000244E7EE066A000248BF02F17F4205EECE
:10877000901AB8EEE76AB8EEC55A07EE902AF8EEFE
:10878000E55AB3F99821E7EE055A0120A6EE876A6B
:1087900004EE902AD3ED646AB3F98E21F8EEE77AFD
:1087A00005EE102A67EE847AF8EEE44AB3F98C21DC
:1087B000F8EEE66AA5EEA76AE7EEA46A05EE902A4F
:1087C000B8EEC55AF8EEE55A67EE857AB6EE005A6D
:1087D000E7EE066AE5EE857AC3ED696AC3ED6A7A6B
:1087E000704700BF401700200821843630B10A4B83
:1087F000D3ED697AFDEEE77AC0ED007A51B1064B10
:108800009FED067AD3ED6A7A67EE877AFDEEE77A16
:10881000C1ED007A704700BF401700200000C84239
:10882000704700BF012070470120704770474FF428
:108830000063838170474FF400638381704700BFFA
:10884000074BD0F8E4105B68D0F8F0205B1A934235
:10885000C8BFC0F8F030012380F81C3100207047F9
:10886000001000E04FF400638381704742F2011270
:1088700000234FF0010C4FF47F410280FF2280F86B
:1088800008C043818381C38101828274704700BF25
:10889000FF234FF0230C24212522C37003710372A0
:1088A00043724373837380F80AC0C17202737047C6
:1088B000FF234371704700BF70B52F4B93F8AC3165
:1088C000012B4FD040F22E414FF4F07209238183E7
:1088D000028083704FF0000E4FF4FA614FF47A7209
:1088E00040F22623254EC1830284438380F805E0AD
:1088F000C51D4FF0000C224A402163465FFA8EF4FA
:1089000004E00133072B0FD012F8201C11F0040FE4
:1089100002F12002F5D0A44520D001330CF1010C66
:10892000072B5FFA8CFCEFD100230EF1010EBEF194
:10893000080F05F8013BDCD10E2202234FF48074AE
:1089400040F2023180F82220038240F2045240F2C9
:10895000067344828182C282038370BD06EB431397
:108960001B79E2E74FF47A744FF47A51042284833E
:10897000018082700371ADE740170020A89D0508B3
:10898000CE9D05088388C3F30B039342A8BF13460B
:1089900070B51A461D460C460646806851F04EF9E1
:1089A00062199442B569074B08D0074814F8011BB7
:1089B00000FB03F3A24283EA0103F7D12B600120FD
:1089C00070BD00BFC59D1C81930100010023037091
:1089D00043708370C37070470023037043708370CB
:1089E000C3707047002306214FF47A72C0E9012357
:1089F00001700373704700BF30B54FF0000C144D89
:108A000080F808C0441E0020124A402103465FFA45
:108A10008CFE04E00133072B0DD012F8201C11F05E
:108A2000020F02F12002F5D070450DD00133013064
:108A3000072BC0B2F1D100230CF1010CBCF1080FDF
:108A400004F8013FDFD130BD05EB43131B79F3E799
:108A5000A89D0508CE9D050809494023002204E091
:108A60000132072A0AD011F8203C13F0010301F16A
:108A70002001F5D0034B03EB4212137903707047CA
:108A8000CE9D0508A89D05080023411CFF2200F883
:108A9000132001F813200133082BF8D10270427023
:108AA0008270C270704700BF704700BFD0ED007A7F
:108AB000D0ED016A30EE677AE6EE877AB0EE670AAB
:108AC000C0ED007A704700BFD0ED017AD0ED026AA8
:108AD00030EE677A90ED000AE6EE877A37EEC07ADC
:108AE000C0ED017AA6EE870A80ED000A704700BF4C
:108AF00090ED017AD0ED036AD0ED027A30EE470AAC
:108B0000A6EE807A90ED000A80ED017A37EE676A72
:108B1000E6EE867A37EEC07AC0ED027AA6EE870AD4
:108B200080ED000A704700BFD0ED056AD0ED017AF4
:108B300090ED007A90ED066AD0ED025A90ED035A5E
:108B400080ED050A66EEA77AC0ED066AE7EE007AC8
:108B500090ED077AE5EE867A90ED086AD0ED045A3A
:108B600080ED087AE5EE477AE5EEC67AB0EE670A60
:108B7000C0ED077A704700BFD0ED057A90ED006A2E
:108B800090ED067AD0ED035AE6EE007A90ED016A98
:108B9000F0EE406AA6EE267AB0EE670AD0ED047ACF
:108BA00090ED026A67EEC07AA5EEC07AE6EE267A0C
:108BB00080ED057AC0ED067A704700BF2DE9F047D9
:108BC000089F3C460E4614F8011B002B054614BFB7
:108BD0004FF030094FF0200941B3002A2CDD234625
:108BE00000E0B2B113F8010B9046013A0028F8D129
:108BF000A8F102086AB1C24649462846B047534622
:108C0000002B0AF1FF3AF7DC397828EAE8720132E2
:108C100049B1D71B2846B047E01914F8011B0029B9
:108C2000F8D1BDE8F0871046BDE8F087002A02F1D0
:108C3000FF38E0DC0846F4E70022EAE703685A1C44
:108C400002601970704700BF024BD3F8B00103688F
:108C50001B68184740170020884210B54FF00104E8
:108C60003ED301FB04F4B0FBF4FC8C45F9D2CCB14B
:108C700022BB08E0A14203F801EBB4FBF1F211D8EA
:108C8000B0FBF2FC1446BCF1090F0CF1570E0CF1CD
:108C9000300204FB1C00EDDCA14203F8012BB4FB05
:108CA000F1F2EDD900221A7010BDA14203F801EBD8
:108CB000B4FBF1F2F6D8B0FBF2FC1446BCF1090F9C
:108CC0000CF1370E0CF1300204FB1C00EDDCA1426C
:108CD00003F8012BB4FBF1F2EDD900221A7010BD9C
:108CE0008446002AEAD1CEE7002870B503DA2D23A6
:108CF00001F8013B4042092886464FF0010307DD99
:108D000003EB83035B00B0FBF3F2092AF8D8EBB165
:108D1000104CBEFBF3FCA4FB0320C008BCF1090F00
:108D20000CF130060CF15705024607D8092B01F863
:108D3000016B03FB1CEE09D90346EAE7092B01F896
:108D4000015B03FB1CEE01D91346E2E700230B7025
:108D500070BD00BFCDCCCCCC164BD0F8E0105A681B
:108D600010B50446D0F8D80071B1131A99420BDC43
:108D700094F8D030C4F8D820012B10D0D4F8D430D7
:108D80000133C4F8D43010BDD4F8E430C4F8D8208E
:108D90000344C4F8DC3094F8D030012BEED104F158
:108DA000E801201D0BF05EF9D4F8D4300133C4F88B
:108DB000D43010BD001000E010B504460E49D0F8C4
:108DC000D83094F8D020D0F8E40049680344012A50
:108DD000C4E9361305D0D4F8D4300133C4F8D43004
:108DE00010BD04F1E801201D0BF03CF9D4F8D4309B
:108DF0000133C4F8D43010BD001000E070B58669AE
:108E000096F8DC30012B8AB0054623D0023B012BBB
:108E10002BD8D6F89C30164C8C221A700FCCEC460E
:108E2000ACE80F00D6F89C300093D6F8A030019340
:108E30000FCCACE80F0094E80300AB698CE80300AA
:108E400003F1100069460BF00DF9AB691A69136A5A
:108E5000002BFCD1D6F8A030B3F90220EA81B3F997
:108E600004202A82B3F906306B8201200AB070BD5B
:108E7000889E050870B5044690F8210100B970BDC0
:108E80000509013D042D00F00F0032D81D4E06EB00
:108E90004503B3F8082142FA00F3DB0729D5012383
:108EA00003FA00F00138104035444FF0B3FA95F85A
:108EB00014211549131801EBC30551F83330AA8862
:108EC0001B691A42DBD12146104B2622EA80284634
:108ED00041F80C3F4DF0A6FDAB884FF00042B3FACD
:108EE00083F332FA03F3CAD009490A6813430B60CB
:108EF00070BD2146054B41F80C3FBDE87040002095
:108F00004DF090BDA89D0508F4180020598D00086B
:108F1000003C0140F0B5836993F8DC20012A8BB056
:108F2000054627D0023A012A2FD893F84C21D3F8CE
:108F30009C10174C62F07F030B708669D6F8A03046
:108F40005F1C0FCCEC46ACE80F00D6F89C30CDE9A6
:108F500000370FCCACE80F0094E803008CE8030066
:108F6000694606F110000BF07DF8AB6919690A6AD1
:108F7000002AFCD1D3F8A0305A8852BAEA819A88E4
:108F800052BA2A82DB885BBA6B8201200BB0F0BD3B
:108F9000C49E0508F0B590F8DC30D0F8A060012B35
:108FA0008BB004464BD015D8D0F89C304FF0FF3230
:108FB0001A605A609A60DA60D0F8E0300522B3F5A2
:108FC0007A7FC0F8F02054D8032380F8DC300120E9
:108FD0000BB0F0BD023B012BF9D890F84D31D0F821
:108FE0009C203A4D63F07F031370D0F8A0305F1CD3
:108FF0000FCDEC46ACE80F00D4F89C30CDE900373B
:109000000FCDACE80F0095E803008CE8030069463B
:1090100004F110000BF026F82269136A002BFCD132
:1090200073885BBAA4F8D030B3885BBAA4F8D230A6
:10903000F38801205BBAA4F8D4300BB0F0BD90F8EF
:109040004C2190F84D319B1A5B100133DBB206EBDB
:10905000430236F813305BBAA0F8D03053885BBABD
:10906000A0F8D23093885BBAA0F8D43001200BB0BE
:10907000F0BD03691A7B2AB35B691BB390F8983083
:1090800003B390F84C31D0F89C20C4F8A40063F0EE
:109090007F03137090F84C1190F84D31D0F8A02058
:1090A0000B48C4F804015B1A07330121C4F8FC30F3
:1090B000D4F89C3084F800110A44C4E93D3284F8A5
:1090C000DC1084E7022384F8DC3080E7C49E0508C6
:1090D0008D800008002142F628124FF44873C0F832
:1090E000021002808380704701394B0003F00802B0
:1090F000930001F00301A3EB9203C1EB0111C3EB59
:109100000313C1EB011100229B00890002608180E2
:1091100043807047F0B5044689B0002502A80121BC
:109120002570ADF80850ADF80A50ADF80C50FFF7B7
:10913000DBFF03C804AE0490ADF8141096E80300FA
:1091400042F60343ADF81C106380BDF81C30A381C8
:10915000022701214FF49F730690A060A173684617
:10916000E3806770ADF80050ADF80250ADF80450E0
:10917000FFF7BAFF4FF48073A382E773258203C819
:109180000490ADF8141096E80300ADF81C10BDF87B
:109190001C30C4F81600638309B0F0BD30B501205F
:1091A00085B049F085FA7C4A936823F00303936005
:1091B000936813F00C0FFBD113687749002857D13F
:1091C00043F00103136041F288330A68950772D4B3
:1091D000013BFAD1714C724D6F4B724AEA60596F84
:1091E000714AC4F84C14AA60596B704821F0800190
:1091F0005963596F41F080715967196B41F4CE0181
:1092000019635A6B5A631A6C02431A64596C684AA0
:109210000A435A64684649F0D1F8009B6549664A9A
:10922000A1FB03139B0CC4F85034D5F8FC3043F079
:109230008073C5F8FC300021604BC2F8B03F51602C
:10924000136843F00103136023685D4AA2FB032304
:109250009B09013BB3F1807F08D24FF0E022F02060
:109260005361072385F823009161136105B030BD78
:1092700043F4803313600A68940341F2883304D4C2
:10928000013BA7D00A689403FAD5444C4D4A4E4B93
:10929000B0FBF3F3B0FBF2F0B3EB400F18BF18468E
:1092A0004FF48002B3FBF0F3C4F84824C4F834044C
:1092B000C4F8383409E0394C002108220223C4F8EC
:1092C0004814C4F83424C4F83834022049F0F0F9C2
:1092D00002280FD83D4BD4F8381403EBC000858822
:1092E000C2884388C4F84054B3FBF1F3C4F8442463
:1092F000C4F83C34284B36491A6C42F080521A6448
:109300000A6842F440420A609A689A609A689A60D1
:109310009A6842F480529A60D4F83414D4F84824FD
:10932000D4F83C040A4342EA8012D4F8440442EAE6
:109330000062D4F840044008013842EA00425A6012
:109340001A6842F080721A601A689201FCD5214AAC
:1093500040F202701060986820F0030098609868EE
:1093600040F00200A2F580629860936803F00C035D
:10937000082BFAD1D4F838541748D823B3FBF5F3A7
:1093800041EA831141F000510123C2F88410836641
:10939000FEF736FE1FE700BF0038024040170020EE
:1093A00000ED00E00005FA0500000020FFC9FE36D0
:1093B000335F070083DE1B43001000E055CEACC5D1
:1093C000D34D621080841E0040420F00EC9E0508C1
:1093D00000700040003C02400000474270B5104E53
:1093E000D6F85434002B19DD06F18004002505E081
:1093F000D6F85434AB4204F120040FDD237F01354D
:10940000002BF5D0E0680028F2D0217D0BF03EFD66
:10941000D6F85434AB4204F12004EFDC012070BDD7
:10942000401700202DE9F04F2DED028BB44C87B092
:1094300094F87F30019303BBD4F8DC38002B16DDA1
:109440000026B04831460769D0F8A0303D6825F0C5
:10945000010503F1C0023D6059600C339A42FBD113
:10946000D4F8DC380136B34200F58070EBDC012023
:1094700007B0BDEC028BBDE8F08FD4F8583408EE8D
:10948000103A0CF05DFED4F85C34D4F86024143348
:10949000801AB0EB430FC0F266810025CDE902557A
:1094A00004F26447DFF864B204F1800604F2447AFF
:1094B000B846D4F85434AB4240F3BF809AF80C302D
:1094C00013F0FE0F40F00E8194F8AC3803EB430329
:1094D00004EBC3032B4493F859380D2B0CBF07231F
:1094E00000238DF81730B36970681A6952681FFA43
:1094F00082FCD3F8EC20D3F8E830A2EB0C0C80000F
:1095000000F108500CF1806700EB4310393F00EB8D
:1095100087170246974240F28680116802F58073F1
:10952000002900F0E180116C002900F0E080D2F801
:109530008010002900F0DE80D2F8C0101A46002901
:10954000E8D19F426FD9191AACEBA11145294FF010
:10955000000728BF452103EB81119E4638464FF096
:109560000109BC460CE01A6C002A79D1D3F880209E
:10957000002A40F09D80D3F8C02003F580732AB9FB
:10958000994205D91A68002AEDD0403399426AD829
:109590006746112F47D9CCF11503002B43DB08D0C8
:1095A00000FA03F3CCF11407012000FA07F747EAA9
:1095B0000300C0F3C4330BEB8303D3F85C1100F05A
:1095C0001F030BEB8303D3F85C2142EA0132C0F3A3
:1095D0004411C0F384230BEB81010BEB8303D1F81F
:1095E0005C01D3F85C3142EA001040EA032080EAD3
:1095F000102383EA131303F00F030F2B03D1B0F5ED
:10960000803FC0F08580D4F84C370133C4F84C3724
:10961000D4F848370133C4F84837002118EE102A2F
:1096200040460AF0F1F90135082D08F15C0806F111
:1096300020060AF1140A7FF43CAF029B002B3FF492
:10964000FBAEDDE90223C821B3FBF2F39BB294F831
:10965000DA2801FB03F3B3FBF2F3C4F84838EBE676
:109660008033994294D9A3EB0E029211571C264ADB
:1096700082FB07E2A2EBE772012AB8BF0122904009
:109680009444013A09FA02F210431F463A688AB13B
:109690003A6C92B3D7F88020002A62D0D7F8C02065
:1096A00007F580773AB1B942F0D89E463B4667E766
:1096B000C0336BE74037B942F7D9FB1A9B115A1CEC
:1096C000114B83FB02E3A3EBE273012BB8BF012331
:1096D00098409C44013B09FA03F318433B469E46DD
:1096E0003B464DE70823FCE602F1400329E702F17F
:1096F000800326E702F1C00323E78037DBE700BFE2
:10970000401700202020002056555555A89D0508DB
:1097100000090DF117010AF0B1F94FF6FE739842F6
:10972000074680D0D4F84C370133C4F84C374FF695
:10973000FF7398423FF46CAF9DF8171029B9039B53
:1097400003440393029B01330293BAB2E8B20AF0D6
:109750001FF8032D03DC94F8AD382D2B09D00199A7
:109760005CE7C037A7E7002007B0BDEC028BBDE87F
:10977000F08F024B019923F815704FE7F01F00207E
:109780002DE9F0412F4F07EB401898F89C300BB9AA
:10979000BDE8F0818C2303FB00730E4693F8E22CA6
:1097A00088F88220002183F8E21C044645010AF073
:1097B0008BFBC0BB3D442448A5F8806000EB4410FF
:1097C00009F0C6FF97F87F30D5F89820A3B1D5F8F7
:1097D0008410D2F8A03001248C4003F1C001420073
:1097E00010F4004F90B202D15A6822435A600C33F1
:1097F0009942F4D1BDE8F081D5F88440D2F8A03088
:1098000004F110020124944003F1C001420010F45D
:10981000004F90B202D15A6822435A600C339942E9
:10982000F4D1BDE8F08197F8AC3803EB430307EBC4
:10983000C303234493F85968002EBBD0012388F852
:109840008230B7E740170020C017002010B504464B
:109850004FF0EAFC81B22046BDE8104090E700BF1F
:1098600010B57C4B7C4C93F8AC3894F848209A4265
:1098700040F0918194F84920002A00F0E98094F8A2
:109880004A30002B40F0EA80E16C088820F080002C
:109890000004000C0880B4F85000C862088880B248
:1098A00040F0800008804B62B1F80CC0B4F8600052
:1098B00040EA0C0080B2012A8881A4F8603000F0F0
:1098C000C780616E088820F080000004000C0880CA
:1098D000B4F86800C862088880B240F08000088050
:1098E0004B62B1F80CC0B4F8780040EA0C0080B2CA
:1098F000022A8881A4F8783000F0AA80E16F0888F5
:1099000020F080000004000C0880B4F88000C862D9
:10991000088880B240F0800008804B62B1F80CC02B
:10992000B4F8900040EA0C0080B2032A8881A4F8C1
:10993000903000F08D80D4F89410088820F08000DA
:109940000004000C0880B4F89800C862088880B24F
:1099500040F0800008804B62B1F80CC0B4F8A80059
:1099600040EA0C0080B2042A8881A4F8A8306FD0A5
:10997000D4F8AC10088820F080000004000C0880A7
:10998000B4F8B000C862088880B240F08000088057
:109990004B62B1F80CC0B4F8C00040EA0C0080B2D1
:1099A000052A8881A4F8C03052D0D4F8C4100888A1
:1099B00020F080000004000C0880B4F8C800C862E1
:1099C000088880B240F0800008804B62B1F80CC07B
:1099D000B4F8D80040EA0C0080B2062A8881A4F8C6
:1099E000D83035D0D4F8DC10088820F0800000048E
:1099F000000C0880B4F8E000C862088880B240F02B
:109A0000800008804B62B1F80CC0B4F8F00040EA66
:109A10000C0080B2072A8881A4F8F03018D0D4F85E
:109A2000F420B4F8F800118821F080010904090C31
:109A30001180D0621088B4F8081180B240F0800024
:109A4000108053629089014389B29181A4F8083152
:109A500010BD00BF4017002038280020636DB4F807
:109A6000581059601968E06C41F00101196040F22A
:109A70000D33A0F84830818989B241F48071012A00
:109A80008181E5D0E16EB4F870004860086840F06C
:109A900001000860606EA0F84830818989B241F405
:109AA0008071022A8181D3D0D4F88410B4F8880060
:109AB0004860086840F001000860E06FA0F8483096
:109AC000818989B241F48071032A8181C0D0D4F8A0
:109AD0009C10B4F8A0004860086840F001000860DD
:109AE000D4F89400A0F84830818989B241F480719B
:109AF000042A8181ACD0D4F8B410B4F8B80048601E
:109B0000086840F001000860D4F8AC00A0F84830C4
:109B1000818989B241F48071052A818198D0D4F875
:109B2000CC10B4F8D0004860086840F0010008602C
:109B3000D4F8C400A0F84830818989B241F480711A
:109B4000062A818184D0D4F8E410B4F8E800486093
:109B5000086840F001000860D4F8DC00A0F8483044
:109B6000818989B241F48071072A81813FF470AF05
:109B7000D4F8FC10B4F800214A600868D4F8F42046
:109B800040F001000860A2F8483093899BB243F48A
:109B90008073938110BD4BF01FFC00287FF46AAEE8
:109BA00010BD00BF2DE9F843264F274E97F84820F7
:109BB00096F8AC389A423ED1D6F8DC58002D14DD28
:109BC000002496F87F802148A1460134B8F1000FA7
:109BD00002D0037E012B29D002691368A54243F00D
:109BE000010300F580701360EFD1194B5B68C3F37C
:109BF0000803C3B9EFF31183ABB90CF07DFAD7F8C2
:109C00000C41C6F86004002C0BDD124A02EBC404C0
:109C1000116893888889083203439BB294428B81F0
:109C2000F6D1BDE8F8830CF08BF8E8E780F8F09007
:109C3000FEF788FCD0E74BF0CFFB0028BCD1BDE895
:109C4000F88300BF38280020401700202020002083
:109C500000ED00E0482900202DE9F843194D804629
:109C600005F1E0062D21002705F63C14164B1022C5
:109C70004FF0010C03E02033A3421BD01A7991422C
:109C8000F9D12A681868904202D00CF1010CF2E771
:109C900058796A799042F8D107EB470308EB03093A
:109CA00008F80310284689F801C00AF033FB013791
:109CB00089F802002035B54201D02979D6E7BDE800
:109CC000F88300BFA89D0508849F0508F0B5D0F86B
:109CD000805087682B6858493E6823F001032B6049
:109CE00000232B608D426B60AB60EB602B614FF00B
:109CF000210383B0044600F160026B6100F097809D
:109D00004E4B9D425ED02846019248F0D3FB019A0B
:109D1000002384F8543079790C290ED8DFE801F05B
:109D2000650D0D0D5E0D0D0D570D0D0D0700B38B5F
:109D300023F400631B041B0CB383304613F054FC64
:109D40007B790C2B10D8DFE803F0690F0F0F600F41
:109D50000F0F570F0F0F0700B38B23F400631B0483
:109D60001B0C43F40063B38340222968A369E06AB3
:109D70006262334A03430A40216B13430B43D4E925
:109D80000D120B431343D4E90F120B431343D4E9D1
:109D900013120B43134343F040032B60D4E91131FA
:109DA0006A690B4322F007021343A16A6B61D4E98D
:109DB00007236960AA60EB602B6843F010032B60F7
:109DC00003B0F0BD4FF4746143F8201CA0E7B38BDF
:109DD00023F008031B041B0CB383AEE7338B23F47F
:109DE00000631B041B0C3383A7E7338B23F00803AA
:109DF0001B041B0C3383A0E7B38B23F008031B0465
:109E00001B0C43F00803B383AEE7338B23F40063EA
:109E10001B041B0C43F400633383A5E7338B23F04F
:109E200008031B041B0C43F0080333839CE7054B1A
:109E30003D2199606CE700BF10600240286002403D
:109E40003F801CF0006002402DE9F04F2DED028BA9
:109E5000804E87B096F87F3001933BB90123019380
:109E6000019807B0BDEC028BBDE8F08FD6F85834EE
:109E7000794F08EE103A0CF063F997F85C310090D6
:109E8000002B00F0E4810025029506F54E6406F2F1
:109E9000447B03950CE02046FFF718FF97F85C31F0
:109EA00001359D420BF1140B04F18C0480F2DC802F
:109EB000D7F86431009AD31A03D4A26D9342C0F24A
:109EC000B6818C2303FB056393F8343D03F0FF0A4E
:109ED000002BE0D0A368A1891A68D4F880305B68B1
:109EE0001FFA83FE9389CEF1160E9BB223EA01037B
:109EF000BEF1070F9381CED9D6F84C370133C6F89F
:109F00004C379BF80C3013F0FE0F40F0A08096F811
:109F1000AC3803EB430306EBC3032B4493F85938E7
:109F20000D2B0CBF07230023D4F888808DF8173041
:109F300058F804CB00220121914660461DE0D8F874
:109F400000C0B9F1140FACEB00031FDC13F10800E3
:109F500048BF03F11700031109EB2019604603F114
:109F6000FF3C013102FA03F3012202FA0CF28E45A2
:109F700042EA030208F1040808D38E45DFD8C9F18C
:109F80001503D8F800004FF01509E8E7B9F1150FEF
:109F900026D13249C2F3842301EB8303D3F83C0971
:109FA000C2F3441301EB83030002D3F83C3940EAC7
:109FB000031002F01F0301EB8303C2F3C432D3F892
:109FC0003C3901EB82021843D2F83C3940EA0330B5
:109FD00080EA102383EA131303F00F030F2B13D02F
:109FE000D6F848370133C6F84837002D00F02781EE
:109FF0004FF0000A1A4B5C2018EE102A514600FB65
:10A00000053009F001FD46E700090DF1170109F0DF
:10A0100035FD4FF6FF7382B29A428046E0D09DF83C
:10A02000171031B9039B13FA80F30393029B01339A
:10A0300002935FFA88F009F0ABFB032DDADC96F8A7
:10A04000AD382D2BD6D1074B23F81580D2E7082346
:10A050006AE700BF4017002038280020A89D0508A7
:10A06000A41B0020F01F0020029A002A40F0D0809C
:10A070000022C7F86421002B3FF4F2AE96F8F02CD2
:10A0800012F0020FD6F8E82C10685479018C0CBF3E
:10A0900001220422A24092B289B221EA0201018483
:10A0A000018C89B20A43012B02843FF4D9AE96F8A1
:10A0B0007C2D12F0020FD6F8742D10685479018CA3
:10A0C0000CBF01220422A24092B289B221EA02010D
:10A0D0000184018C89B20A43022B02843FF4C0AE92
:10A0E00096F8082E12F0020FD6F8002E1068547958
:10A0F000018C0CBF01220422A24092B289B221EA53
:10A1000002010184018C89B20A43032B02843FF4CB
:10A11000A7AE96F8942E12F0020FD6F88C2E106887
:10A120005479018C0CBF01220422A24092B289B260
:10A1300021EA02010184018C89B20A43042B0284C2
:10A140003FF48EAE96F8202F12F0020FD6F8182F9B
:10A1500010685479018C0CBF01220422A24092B2F3
:10A1600089B221EA02010184018C89B20A43052BDC
:10A1700002843FF475AE96F8AC2F12F0020FD6F8B9
:10A18000A42F10685479018C0CBF01220422A24034
:10A1900092B289B221EA02010184018C89B20A4398
:10A1A000062B02843FF45CAE2A4A92F8381011F074
:10A1B000020F116B0C684D79208C0CBF012104211A
:10A1C000A94089B280B220EA01002084208C80B2AC
:10A1D0000143082B21847FF443AE92F8C430D2F8B7
:10A1E000BC200198116852799B074CBF04230123BE
:10A1F00093400A8C9BB292B222EA03020A840A8C30
:10A2000092B213430B8407B0BDEC028BBDE8F08F14
:10A210001146039AB2FBF1F2C82192B201FB02F29D
:10A2200096F8DA18B2FBF1F2C6F8482820E70023C6
:10A230000193019807B0BDEC028BBDE8F08FD6F812
:10A24000681D054858224FF0F9FCAA46D2E6C7F827
:10A25000643105E640270020301F00202DE9F84337
:10A26000037D01681F2B044608D94868A3F1200527
:10A270002022AA40024206D1BDE8F88308682022C5
:10A280009A400242F8D0714A714E5268C6F868216D
:10A2900096F84A20A569DFF8D09112BB8C2202FB08
:10A2A0000592D2F8E80CD2F8607DD0F800803868CA
:10A2B000B2F8ECCC20F001003860B8F80C2092B273
:10A2C00022EA0C02A8F80C2099F87F200ABB1F2B69
:10A2D00040F2A880A3F1200220239340CB60BDE888
:10A2E000F8838C2202FB0592D2F8E82C5069D2F850
:10A2F0000080026822F001020260B8F80C2022F40B
:10A3000080721204120CA8F80C2099F87F20002A01
:10A31000DDD08C2303FB05934E4AD3F8607D3B6868
:10A3200023F001033B6000233B6097427B60BB60EE
:10A33000FB603B614FF021037B617ED0464B9F4227
:10A340007FD0384648F0B6F88C2303FB0593D6F847
:10A350006421012183F8341D002A69D0B8F8003047
:10A360003E499BB243F08003A8F800308C2303FBE6
:10A3700005F54FF0FF332944C8F82C30404648F02B
:10A38000F5F909EB05030022D3F80C0DC3F8042DF1
:10A39000D3F8F82C39680243D3F8100D0243D3F8F0
:10A3A000140D0243D3F8180D0243D3F81C0D0243D9
:10A3B000D3F8200D0243D3F82C0D0243D3F8300D0F
:10A3C00002432748084002433A607969D3F8242DB4
:10A3D000D3F8280D21F0070102430A437A61D3F82C
:10A3E000082D7A60D3F8FC2CBA60D3F8002DFA60FF
:10A3F000D3F8602D16215160116841F00101116000
:10A40000D3F8E82CB3F8EC3C126891890B439BB26B
:10A410000E4993814B68C6F86C31237D21681F2B50
:10A420003FF658AF202202FA03F38B60BDE8F883B1
:10A430000BF086FEC6F8640190E70A4B3D229A6055
:10A4400082E74FF4746243F8202C7DE7001000E0AF
:10A450003828002010600240286002409424002028
:10A460003F801CF0006002404017002008B50368E0
:10A470001A78012A06D0094A062300214DF02AFB4A
:10A48000012008BD93F90430054A03EB830302EB76
:10A49000C3035B7F002BEED0002008BDC418002052
:10A4A0004017002010B5174C94F87031012B00F1C3
:10A4B0000C000CD0022B17D0012304F271120621DC
:10A4C0004DF008FB012384F87031002010BD94F892
:10A4D000713113F00403F6D0062304F5B97200219C
:10A4E0004DF0F8FA0223EEE7B4F872310B80B4F8BD
:10A4F00074314B80B4F876318B80002384F870314E
:10A500000120E3E738280020F0B590F81E31032B36
:10A510008DB0054658D090F8DC30D0F8A060012B03
:10A5200000F08E8015D8D0F89C3000221A605A6056
:10A530009A609A81D0F8E0300522B3F57A7FC0F8AE
:10A54000F02036D80323012480F8DC3020460DB0FB
:10A55000F0BD023B012B33D8D0F89C30554F9222EE
:10A560001A700FCF02AC0FC40FCF0FC497E80300CF
:10A57000D5F89C3084E80300029302A9D5F8A030F6
:10A58000039305F1100009F06DFD2A69136A002B91
:10A59000FCD1B6F90230A5F8D030B6F90430A5F8F0
:10A5A000D230B6F90630A5F8D430012420460DB0DB
:10A5B000F0BD03691A7B002A5AD1022385F8DC30EA
:10A5C000012420460DB0F0BD3B4902913B49039167
:10A5D0000A21002301221030049102A98DF81420D1
:10A5E0008DF828200190CDE90633CDE908330B938F
:10A5F00009F038FD2A690198136A002BFCD1304913
:10A60000B1F87A21052A19DDB1F97C41D1F87C61D4
:10A61000B1F97E71B1F9801114F5004F20D0C5F861
:10A62000D060A5F8D4100124063A002AC9D0B0227F
:10A630007E2109F049FD20460DB0F0BD1C46F4E72F
:10A64000B6F90820A0F8D020B6F90A20A0F8D22048
:10A65000B6F90C20A0F8D4201C4620460DB0F0BD61
:10A6600017F5004FDBD111F5004FD8D11C46DBE7C1
:10A670005B69002BA1D090F89840002C9DD0D0F8B9
:10A680009C30C5F8A4008C221A70D0F8A020C0F825
:10A69000F8200E2201230B49C0F8FC20D0F89C20A2
:10A6A000C0F80411C0F8F42080F8003180F8DC30E4
:10A6B00087E700BF889E050898010020B029002088
:10A6C00038280020418800082DE9F04F2DED028B3D
:10A6D000034695B000F1100693F81E310090B622A3
:10A6E0007E213046019309F0EFFCBB4DBB4CBC4FC3
:10A6F00008EE106A4FF064094FF010087B68C3F34E
:10A700000803002B40F08185EFF31183002B40F00C
:10A710007C850BF0F1FC82464FF0E02B06E00BF05D
:10A72000EBFCA0EB0A00B0F57A7F30D27B68C3F374
:10A7300008031BB9EFF31183002BF0D0EFF3118363
:10A7400088F31288DBF81800DBF8102012F4803F41
:10A750004FF001021CBFC5F88421DBF81800D4F8C3
:10A760005824D5F884C1DBB283F31188D4F850643F
:10A770004FF47A7101FB06F36244181AB0FBF6F04D
:10A7800001FB0200A0EB0A00B0F57A7FCED3B9F14D
:10A790000109B3D1009B9B6918EE106A13B11A68C6
:10A7A0009B8853838E4B5B68C3F30803002B40F0F8
:10A7B0006A85EFF31183002B40F065850BF09CFC5C
:10A7C0008046DFF81CA210274FF0E02906E00BF0CE
:10A7D00093FCA0EB0800B0F57A7F32D2DAF80430AF
:10A7E000C3F308031BB9EFF31183002BEFD0EFF392
:10A7F000118387F31288D9F818E0D9F81020D20312
:10A800004FF0010103D5C5F88411D9F818E0D4F848
:10A8100058B4D5F88421DBB283F31188D4F850C43E
:10A820004FF47A7101FB0CF002EB0B03A0EB0E006E
:10A83000B0FBFCF001FB0300A0EB0800B0F57A7F51
:10A84000CCD3009B9B6913B11A689B881383644F18
:10A8500008EE106A4FF00A094FF010087B68C3F346
:10A860000803002B40F0D684EFF31183002B40F057
:10A87000D1840BF041FC82464FF0E02B06E00BF058
:10A880003BFCA0EB0A00B0F57A7F30D27B68C3F3C3
:10A8900008031BB9EFF31183002BF0D0EFF3118302
:10A8A00088F31288DBF81800DBF8102012F4803FE0
:10A8B0004FF001021CBFC5F88421DBF81800D4F862
:10A8C0005824D5F884C1DBB283F31188D4F85064DE
:10A8D0004FF47A7101FB06F36244181AB0FBF6F0EC
:10A8E00001FB0200A0EB0A00B0F57A7FCED3B9F1EC
:10A8F0000109B3D118EE100A4A467C2109F0E4FBA5
:10A90000374B5B68C3F3080318EE106A002B40F066
:10A91000B584EFF31183002B40F0B0840BF0ECFB17
:10A920008046DFF8BCA010274FF0E02906E00BF0CE
:10A93000E3FBA0EB0800B0F57A7F32D2DAF80430FE
:10A94000C3F308031BB9EFF31183002BEFD0EFF330
:10A95000118387F31288D9F818E0D9F81020D003B2
:10A960004FF0010103D5C5F88411D9F818E0D4F8E7
:10A9700058B4D5F88421DBB283F31188D4F850C4DD
:10A980004FF47A7101FB0CF002EB0B03A0EB0E000D
:10A99000B0FBFCF001FB0300A0EB0800B0F57A7FF0
:10A9A000CCD300225921304609F08EFB0C4B5B685A
:10A9B000C3F30803002B40F05C84EFF31183002BFA
:10A9C00040F057840BF098FB8046DFF814A0102766
:10A9D0004FF0E0290DE000BF38280020401700208C
:10A9E00000ED00E00BF088FBA0EB0800B0F57A7FEB
:10A9F00032D2DAF80430C3F308031BB9EFF3118342
:10AA0000002BEFD0EFF3118387F31288D9F818E009
:10AA1000D9F81020D2034FF0010103D5C5F88411F5
:10AA2000D9F818E0D4F858B4D5F88421DBB283F310
:10AA30001188D4F850C44FF47A7101FB0CF002EB8A
:10AA40000B03A0EB0E00B0FBFCF001FB0300A0EB3E
:10AA50000800B0F57A7FCCD3002305938DF81C3025
:10AA600008930A930D9310931293012306938DF884
:10AA700030308DF84430CB4B09935E238DF80F3086
:10AA80000DF10F0304934FF4A47300220B9304A958
:10AA900000233046CDE90E2309F0E4FA009B1A6941
:10AAA000136A002BFCD1C04F08EE106A4FF00A0960
:10AAB0004FF010087B68C3F30803002B40F0AF830E
:10AAC000EFF31183002B40F0AA830BF015FB8246B5
:10AAD0004FF0E02B06E00BF00FFBA0EB0A00B0F507
:10AAE0007A7F30D27B68C3F308031BB9EFF311837D
:10AAF000002BF0D0EFF3118388F31288DBF81800F5
:10AB0000DBF8102012F4803F4FF001021CBFC5F8A3
:10AB10008421DBF81800D4F85824D5F884C1DBB2BE
:10AB200083F31188D4F850644FF47A7101FB06F373
:10AB30006244181AB0FBF6F001FB0200A0EB0A0019
:10AB4000B0F57A7FCED3B9F10109B3D118EE100A6E
:10AB50000122592109F0B8FA934B5B68C3F308034B
:10AB600018EE106A002B40F08083EFF31183002B66
:10AB700040F07B830BF0C0FA8046DFF82CA2102750
:10AB80004FF0E02906E00BF0B7FAA0EB0800B0F5B3
:10AB90007A7F32D2DAF80430C3F308031BB9EFF33B
:10ABA0001183002BEFD0EFF3118387F31288D9F8CC
:10ABB00018E0D9F81020D0034FF0010103D5C5F8F3
:10ABC0008411D9F818E0D4F858B4D5F88421DBB250
:10ABD00083F31188D4F850C44FF47A7101FB0CF060
:10ABE00002EB0B03A0EB0E00B0FBFCF001FB03003B
:10ABF000A0EB0800B0F57A7FCCD3019B032B00F0CB
:10AC00009783AB224021304609F05EFA664B5B68C1
:10AC1000C3F30803002B40F02483EFF31183002BD0
:10AC200040F01F830BF068FA8046DFF87CA1102704
:10AC30004FF0E02906E00BF05FFAA0EB0800B0F55A
:10AC40007A7F32D2DAF80430C3F308031BB9EFF38A
:10AC50001183002BEFD0EFF3118387F31288D9F81B
:10AC600018E0D9F81020D0034FF0010103D5C5F842
:10AC70008411D9F818E0D4F858B4D5F88421DBB29F
:10AC800083F31188D4F850C44FF47A7101FB0CF0AF
:10AC900002EB0B03A0EB0E00B0FBFCF001FB03008A
:10ACA000A0EB0800B0F57A7FCCD3032241213046D7
:10ACB00009F00AFA3C4B5B68C3F30803002B40F031
:10ACC000CC82EFF31183002B40F0C7820BF014FA13
:10ACD0008046DFF8D4A010274FF0E02906E00BF003
:10ACE0000BFAA0EB0800B0F57A7F32D2DAF8043024
:10ACF000C3F308031BB9EFF31183002BEFD0EFF37D
:10AD0000118387F31288D9F818E0D9F81020D203FC
:10AD10004FF0010103D5C5F88411D9F818E0D4F833
:10AD200058B4D5F88421DBB283F31188D4F850C429
:10AD30004FF47A7101FB0CF002EB0B03A0EB0E0059
:10AD4000B0FBFCF001FB0300A0EB0800B0F57A7F3C
:10AD5000CCD395F88931013BDBB2022B00F2638240
:10AD6000124A134493F8042B120162F03202D2B259
:10AD70004221304609F0A8F90B4B5B68C3F3080386
:10AD8000002B40F06682EFF31183002B40F06182CC
:10AD90000BF0B2F98046DFF810A010274FF0E02941
:10ADA0000DE000BF64A7050800ED00E0A89D0508C0
:10ADB0000BF0A2F9A0EB0800B0F57A7F32D2DAF8F6
:10ADC0000430C3F308031BB9EFF31183002BEFD05A
:10ADD000EFF3118387F31288D9F818E0D9F810201F
:10ADE000D0034FF0010103D5C5F88411D9F818E05C
:10ADF000D4F858B4D5F88421DBB283F31188D4F8A1
:10AE000050C44FF47A7101FB0CF002EB0B03A0EB82
:10AE10000E00B0FBFCF001FB0300A0EB0800B0F556
:10AE20007A7FCCD308224321304609F04DF9B44B48
:10AE30005B68C3F30803002B40F00782EFF3118334
:10AE4000002B40F002820BF057F98046DFF8B0A2E9
:10AE500010274FF0E02906E00BF04EF9A0EB0800B8
:10AE6000B0F57A7F32D2DAF80430C3F308031BB9A5
:10AE7000EFF31183002BEFD0EFF3118387F31288E8
:10AE8000D9F818E0D9F81020D2034FF0010103D50A
:10AE9000C5F88411D9F818E0D4F858B4D5F884214D
:10AEA000DBB283F31188D4F850C44FF47A7101FBFC
:10AEB0000CF002EB0B03A0EB0E00B0FBFCF001FB6F
:10AEC0000300A0EB0800B0F57A7FCCD3019B032BE5
:10AED00000F0DE8104225821304609F0F5F8884B55
:10AEE0005B68C3F30803002B40F09F81EFF31183ED
:10AEF000002B40F09A810BF0FFF88046DFF800A2AB
:10AF000010274FF0E02906E00BF0F6F8A0EB080060
:10AF1000B0F57A7F31D2DAF80430C3F308031BB9F5
:10AF2000EFF31183002BEFD0EFF3118387F3128837
:10AF3000D9F818C0D9F81020D2034FF0010103D579
:10AF4000C5F88411D9F818C0D4F85824D5F884016C
:10AF5000DBB283F31188D4F8501483184FF47A725B
:10AF600002FB01F0A0EB0C00B0FBF1F002FB0300D0
:10AF7000A0EB0800B0F57A7FCDD30A2253213046EA
:10AF800009F0A2F85E4B5B68C3F30803002B40F0A6
:10AF90005881EFF31183002B40F053810BF0ACF894
:10AFA0008046DFF85CA110274FF0E02906E00BF0A7
:10AFB000A3F8A0EB0800B0F57A7F32D2DAF80430BB
:10AFC000C3F308031BB9EFF31183002BEFD0EFF3AA
:10AFD000118387F31288D9F818E0D9F81020D0032C
:10AFE0004FF0010103D5C5F88411D9F818E0D4F861
:10AFF00058B4D5F88421DBB283F31188D4F850C457
:10B000004FF47A7101FB0CF002EB0B03A0EB0E0086
:10B01000B0FBFCF001FB0300A0EB0800B0F57A7F69
:10B02000CCD302227C21304609F04EF8344B5B68C9
:10B03000C3F30803002B40F00081EFF31183002BD2
:10B0400040F0FB800BF058F88046DFF8B4A01027E2
:10B050004FF0E02906E00BF04FF8A0EB0800B0F548
:10B060007A7F32D2DAF80430C3F308031BB9EFF366
:10B070001183002BEFD0EFF3118387F31288D9F8F7
:10B0800018E0D9F81020D2034FF0010103D5C5F81C
:10B090008411D9F818E0D4F858B4D5F88421DBB27B
:10B0A00083F31188D4F850C44FF47A7101FB0CF08B
:10B0B00002EB0B03A0EB0E00B0FBFCF001FB030066
:10B0C000A0EB0800B0F57A7FCCD30E227D2130466C
:10B0D00008F0FAFF0A4B5B68C3F30803002B40F04B
:10B0E000A880EFF31183002B40F0A3800BF004F84D
:10B0F0008046DFF80CA010274FF0E02909E000BFE0
:10B1000000ED00E00AF0F8FFA0EB0800B0F57A7F50
:10B1100032D2DAF80430C3F308031BB9EFF311831A
:10B12000002BEFD0EFF3118387F31288D9F818E0E2
:10B13000D9F81020D0034FF0010103D5C5F88411D0
:10B14000D9F818E0D4F858B4D5F88421DBB283F3E9
:10B150001188D4F850C44FF47A7101FB0CF002EB63
:10B160000B03A0EB0E00B0FBFCF001FB0300A0EB17
:10B170000800B0F57A7FCCD3019B032B00F07C82D2
:10B18000009B93F82101C8B10AF010FB0546002886
:10B1900000F0DB8200992623C380C54B41F80C3FA9
:10B1A0004BF040FCAB884FF00042B3FA83F332FA25
:10B1B00003F303D0BF490A6813430B602268BE4BF8
:10B1C000B3EB920F80F0C882B3EBD20F80F0C6824F
:10B1D000B3EB121F80F0C482B3EB521F80F0C28227
:10B1E000B3EB921F80F0C082B3EBD21F80F0BE821F
:10B1F000B3EB122F34BF4FF480738023009A9382F5
:10B2000015B0BDEC028BBDE8F08F0AF099FD8246C7
:10B21000FFF782BA0AF094FD8246FFF72DBB0AF0D1
:10B220008FFD824654E4CD22A2E50AF089FD8046D6
:10B2300064E60AF085FD80465BE70AF081FD804602
:10B2400003E70AF07DFD8046ABE60AF079FD804613
:10B25000FCE50AF075FD80469DE50AF071FD80462B
:10B2600037E50AF06DFD8046DFE40AF069FD8046AF
:10B2700083E40AF065FD8046FFF7A7BB0AF060FD96
:10B280008046FFF74EBB0AF05BFD8046FFF799BA98
:10B2900002225821304608F017FF884B5B68C3F341
:10B2A0000803002B40F03582EFF31183002B40F0B0
:10B2B00030820AF021FF8046DFF800A210274FF00D
:10B2C000E02907E00AF018FFA0EB0803B3F57A7F46
:10B2D000BFF453AEDAF80430C3F308031BB9EFF33D
:10B2E0001183002BEED0EFF3118287F31288D9F887
:10B2F00018C0D9F81030D8034FF0010103D5C5F8B4
:10B300008411D9F818C0D4F85834D5F88401D2B2D1
:10B3100082F31188D4F850144FF47A72184402FB67
:10B3200001F3A3EB0C03B3FBF1F302FB0030CBE71B
:10B3300000224821304608F0C7FE604B5B68C3F32B
:10B340000803002B40F0ED81EFF31183002B40F058
:10B35000E8810AF0D1FE8046DFF860A110274FF0A7
:10B36000E02906E00AF0C8FEA0EB0803B3F57A7FF7
:10B3700031D2DAF80430C3F308031BB9EFF31183B9
:10B38000002BEFD0EFF3118387F31288D9F818C0A0
:10B39000D9F81020D2034FF0010103D5C5F884116C
:10B3A000D9F818C0D4F85824D5F88401DBB283F357
:10B3B0001188D4F8501410444FF47A7202FB01F350
:10B3C000A3EB0C03B3FBF1F302FB0030A0EB08038B
:10B3D000B3F57A7FCDD380224921304608F074FE40
:10B3E000364B5B68C3F30803002B40F0AA81EFF3F0
:10B3F0001183002B40F0A5810AF07EFE8046DFF825
:10B40000BCA010274FF0E02906E00AF075FEA0EB83
:10B410000803B3F57A7F31D2DAF80430C3F30803B6
:10B420001BB9EFF31183002BEFD0EFF3118387F3F8
:10B430001288D9F818C0D9F81020D0034FF00101B4
:10B4400003D5C5F88411D9F818C0D4F85824D5F814
:10B450008401DBB283F31188D4F8501410444FF404
:10B460007A7202FB01F3A3EB0C03B3FBF1F302FBD3
:10B470000030A0EB0803B3F57A7FCDD3002245213D
:10B48000304608F021FE0D4B5B68C3F30803002B28
:10B4900040F05381EFF31183002B40F04E810AF00E
:10B4A0002BFE8046DFF814A010274FF0E0290EE0B5
:10B4B000B98D0008003C01408096980000ED00E046
:10B4C0000AF01AFEA0EB0803B3F57A7F31D2DAF85E
:10B4D0000430C3F308031BB9EFF31183002BEFD043
:10B4E000EFF3118387F31288D9F818C0D9F8102028
:10B4F000D2034FF0010103D5C5F88411D9F818C063
:10B50000D4F85824D5F88401DBB283F31188D4F839
:10B51000501410444FF47A7202FB01F3A3EB0C03B6
:10B52000B3FBF1F302FB0030A0EB0803B3F57A7F25
:10B53000CDD306224621304608F0C6FD8C4B5B6811
:10B54000C3F30803002B40F0F480EFF31183002BCA
:10B5500040F0EF800AF0D0FD8046DFF814A21027FB
:10B560004FF0E02906E00AF0C7FDA0EB0803B3F5B1
:10B570007A7F31D2DAF80430C3F308031BB9EFF352
:10B580001183002BEFD0EFF3118387F31288D9F8E2
:10B5900018C0D9F81020D0034FF0010103D5C5F829
:10B5A0008411D9F818C0D4F85824D5F88401DBB236
:10B5B00083F31188D4F8501410444FF47A7202FBCC
:10B5C00001F3A3EB0C03B3FBF1F302FB0030A0EBA0
:10B5D0000803B3F57A7FCDD300224721304608F027
:10B5E00073FD634B5B68C3F30803002B40F09D8041
:10B5F000EFF31183002B40F098800AF07DFD804628
:10B60000DFF86CA110274FF0E02907E00AF074FD85
:10B61000A0EB0803B3F57A7FBFF4F3AADAF804309D
:10B62000C3F308031BB9EFF31183002BEED0EFF344
:10B63000118387F31288D9F818C0D9F81020D203E3
:10B640004FF0010103D5C5F88411D9F818C0D4F81A
:10B650005824D5F88401DBB283F31188D4F8501450
:10B6600010444FF47A7202FB01F3A3EB0C03B3FB1B
:10B67000F1F302FB0030CBE7B02230467E2108F028
:10B6800023FD3B4B5B68C3F30803002B45D1EFF36D
:10B690001183002B41D10AF02FFD0746DFF8D0902F
:10B6A00010264FF0E02806E00AF026FDC31BB3F594
:10B6B0007A7FBFF465ADD9F80430C3F308031BB932
:10B6C000EFF31183002BEFD0EFF3118386F3128891
:10B6D000D8F818C0D8F81020D2034FF0010103D5D4
:10B6E000C5F88411D8F818C0D4F85824D5F88401C6
:10B6F000DBB283F31188D4F8501410444FF47A72FB
:10B7000002FB01F3A3EB0C03B3FBF1F302FB0030EC
:10B71000CCE70AF015FB8046CEE50AF011FB0746A0
:10B72000BCE70AF00DFB804616E60AF009FB8046EE
:10B7300066E70AF005FB80460FE70AF001FB80464A
:10B74000B0E60AF0FDFA804659E60099094B41F847
:10B750000C3F4BF067F931E502234FE504234DE53B
:10B7600008234BE5102349E5202347E5402345E521
:10B7700000ED00E0B98D00082DE9F047836882B044
:10B78000804613B11A689B8853835F4B5B68C3F391
:10B790000803002B40F0B380EFF31183002B40F03F
:10B7A000AE800AF0A9FC0546574E584C584F05E0AC
:10B7B0000AF0A2FC431BB3F57A7F30D27368C3F35F
:10B7C00008031BB9EFF31183002BF1D0EFF31182C3
:10B7D000102383F312884FF0E0210120D1F818C024
:10B7E0000B69DB0303D5C4F88401D1F818C0D7F87E
:10B7F00058E4D4F88401D2B282F31188D7F85014F7
:10B800004FF47A7202FB01F37044A3EB0C03B3FB19
:10B81000F1F302FB0030431BB3F57A7FCED3D8F8A7
:10B82000083013B11A689B881383374CDFF8E0A007
:10B83000364D0A2710266368C3F30803002B4BD14B
:10B84000EFF31183002B47D10AF056FC814606E046
:10B850000AF052FCA0EB0903B3F57A7F30D263689B
:10B86000C3F308031BB9EFF31183002BF0D0EFF300
:10B87000118286F312884FF0E0210120D1F818C020
:10B880000B69DB0344BFC5F88401D1F818C0DAF8AE
:10B8900058E4D5F88401D2B282F31188DAF8501452
:10B8A0004FF47A7202FB01F37044A3EB0C03B3FB79
:10B8B000F1F302FB0030A0EB0903B3F57A7FCED39E
:10B8C000013FB8D1D8F80030ADF804701B6A3BB125
:10B8D000384602B0BDE8F0870AF032FA8146BEE78A
:10B8E0004046022301AA802108F018FC9DF805308B
:10B8F000242B14BF00200F2002B0BDE8F0870AF00F
:10B900001FFA054650E700BF00ED00E03828002090
:10B910004017002038B580226B21044608F0D4FB84
:10B9200064200AF031FEF521204608F045FC05466A
:10B9300001200AF03DFC682D1BD18C21204608F027
:10B940003BFC18280DD8142834BF002503252046B9
:10B950000722682108F0B8FB64200AF015FE28468B
:10B9600038BDA0F15403DBB2072B34BF03250025FB
:10B97000EDE70025F3E738B580226B21054608F096
:10B98000A3FB64200AF000FEF521284608F014FC11
:10B99000AC2818D005D8122817D0982817D0002422
:10B9A0000FE0AF28FBD1092410226A21284608F0B5
:10B9B0008BFB28460322682108F086FB64200AF0EE
:10B9C000E3FD204638BD0724EEE70824ECE70B240E
:10B9D000EAE738B5044600F11005224808F0CCFA31
:10B9E00044F23B33A4F84C31A0822046FDF742FAE2
:10B9F00001226B21284608F067FB48F0EFFA182275
:10BA00001B21284608F060FB18221C21284608F05C
:10BA10005BFB94F8DB30052B21D894F81E31032B07
:10BA20001DD194F8233103F0FB03022B0CBF00223D
:10BA3000072228461A2108F047FB94F820212846BF
:10BA4000192108F041FB28461022372108F03CFB61
:10BA500028460122BDE83840382108F035BB0022D5
:10BA6000E7E700BF00127A0010B500F10C04C068CF
:10BA70004CF01CF801220B2120460AF08DF920B170
:10BA80001D22092120460AF087F900F0010010BDAF
:10BA900038B51B4D95F8AC310446ABB1052205F520
:10BAA000D87120304EF06DF9152205F5DC7104F1E6
:10BAB00025004EF066F9012384F83A3095F8CD312F
:10BAC00073B984F83B3038BD0E49152225304EF04D
:10BAD00058F9012384F83A3095F8CD31002BF0D095
:10BAE000094D0FCD20606160A260E3600FCD4FF083
:10BAF000010C84F83BC020616161A261E36138BD43
